{
	"NewContract.sol": {
		"ItemListing": {
			"abi": [
				{
					"inputs": [],
					"stateMutability": "nonpayable",
					"type": "constructor"
				},
				{
					"anonymous": false,
					"inputs": [
						{
							"indexed": true,
							"internalType": "address",
							"name": "seller",
							"type": "address"
						},
						{
							"indexed": true,
							"internalType": "uint256",
							"name": "itemId",
							"type": "uint256"
						}
					],
					"name": "ItemDeleted",
					"type": "event"
				},
				{
					"anonymous": false,
					"inputs": [
						{
							"indexed": true,
							"internalType": "address",
							"name": "seller",
							"type": "address"
						},
						{
							"indexed": true,
							"internalType": "uint256",
							"name": "itemId",
							"type": "uint256"
						}
					],
					"name": "ItemEdited",
					"type": "event"
				},
				{
					"anonymous": false,
					"inputs": [
						{
							"indexed": true,
							"internalType": "address",
							"name": "seller",
							"type": "address"
						},
						{
							"indexed": true,
							"internalType": "uint256",
							"name": "itemId",
							"type": "uint256"
						}
					],
					"name": "ItemListed",
					"type": "event"
				},
				{
					"anonymous": false,
					"inputs": [
						{
							"indexed": true,
							"internalType": "address",
							"name": "seller",
							"type": "address"
						},
						{
							"indexed": true,
							"internalType": "uint256",
							"name": "itemId",
							"type": "uint256"
						},
						{
							"indexed": false,
							"internalType": "uint256",
							"name": "quantity",
							"type": "uint256"
						}
					],
					"name": "ItemPurchased",
					"type": "event"
				},
				{
					"inputs": [
						{
							"internalType": "address",
							"name": "_seller",
							"type": "address"
						},
						{
							"internalType": "uint256",
							"name": "_itemId",
							"type": "uint256"
						},
						{
							"internalType": "uint256",
							"name": "_quantity",
							"type": "uint256"
						},
						{
							"internalType": "address",
							"name": "_paymentGateway",
							"type": "address"
						}
					],
					"name": "buyItem",
					"outputs": [],
					"stateMutability": "nonpayable",
					"type": "function"
				},
				{
					"inputs": [
						{
							"internalType": "address",
							"name": "_externalContract",
							"type": "address"
						},
						{
							"internalType": "bytes",
							"name": "_data",
							"type": "bytes"
						}
					],
					"name": "callExternalContract",
					"outputs": [],
					"stateMutability": "nonpayable",
					"type": "function"
				},
				{
					"inputs": [
						{
							"internalType": "uint256",
							"name": "_itemId",
							"type": "uint256"
						}
					],
					"name": "deleteItem",
					"outputs": [],
					"stateMutability": "nonpayable",
					"type": "function"
				},
				{
					"inputs": [
						{
							"internalType": "uint256",
							"name": "_itemId",
							"type": "uint256"
						},
						{
							"internalType": "string",
							"name": "_name",
							"type": "string"
						},
						{
							"internalType": "string",
							"name": "_description",
							"type": "string"
						},
						{
							"internalType": "uint256",
							"name": "_price",
							"type": "uint256"
						},
						{
							"internalType": "uint256",
							"name": "_quantity",
							"type": "uint256"
						}
					],
					"name": "editItem",
					"outputs": [],
					"stateMutability": "nonpayable",
					"type": "function"
				},
				{
					"inputs": [
						{
							"internalType": "address",
							"name": "_seller",
							"type": "address"
						},
						{
							"internalType": "uint256",
							"name": "_itemId",
							"type": "uint256"
						}
					],
					"name": "getItemDetails",
					"outputs": [
						{
							"internalType": "string",
							"name": "",
							"type": "string"
						},
						{
							"internalType": "string",
							"name": "",
							"type": "string"
						},
						{
							"internalType": "uint256",
							"name": "",
							"type": "uint256"
						},
						{
							"internalType": "uint256",
							"name": "",
							"type": "uint256"
						},
						{
							"internalType": "address",
							"name": "",
							"type": "address"
						}
					],
					"stateMutability": "view",
					"type": "function"
				},
				{
					"inputs": [
						{
							"internalType": "string",
							"name": "_name",
							"type": "string"
						},
						{
							"internalType": "string",
							"name": "_description",
							"type": "string"
						},
						{
							"internalType": "uint256",
							"name": "_price",
							"type": "uint256"
						},
						{
							"internalType": "uint256",
							"name": "_quantity",
							"type": "uint256"
						}
					],
					"name": "listItem",
					"outputs": [],
					"stateMutability": "nonpayable",
					"type": "function"
				},
				{
					"inputs": [
						{
							"internalType": "address",
							"name": "_seller",
							"type": "address"
						},
						{
							"internalType": "uint256",
							"name": "_itemId",
							"type": "uint256"
						},
						{
							"internalType": "uint256",
							"name": "_quantity",
							"type": "uint256"
						}
					],
					"name": "purchaseItem",
					"outputs": [],
					"stateMutability": "payable",
					"type": "function"
				}
			],
			"devdoc": {
				"kind": "dev",
				"methods": {},
				"version": 1
			},
			"evm": {
				"assembly": "    /* \"NewContract.sol\":60:3916  contract ItemListing {... */\n  mstore(0x40, 0x80)\n    /* \"NewContract.sol\":857:933  constructor() {... */\n  callvalue\n  dup1\n  iszero\n  tag_1\n  jumpi\n  0x00\n  dup1\n  revert\ntag_1:\n  pop\n    /* \"NewContract.sol\":60:3916  contract ItemListing {... */\n  dataSize(sub_0)\n  dup1\n  dataOffset(sub_0)\n  0x00\n  codecopy\n  0x00\n  return\nstop\n\nsub_0: assembly {\n        /* \"NewContract.sol\":60:3916  contract ItemListing {... */\n      mstore(0x40, 0x80)\n      jumpi(tag_1, lt(calldatasize, 0x04))\n      shr(0xe0, calldataload(0x00))\n      dup1\n      0xa92e06a5\n      gt\n      tag_9\n      jumpi\n      dup1\n      0xa92e06a5\n      eq\n      tag_5\n      jumpi\n      dup1\n      0xca339212\n      eq\n      tag_6\n      jumpi\n      dup1\n      0xec4ceeea\n      eq\n      tag_7\n      jumpi\n      dup1\n      0xfe6a30ca\n      eq\n      tag_8\n      jumpi\n      jump(tag_1)\n    tag_9:\n      dup1\n      0x594b1bfd\n      eq\n      tag_2\n      jumpi\n      dup1\n      0x5e7b5fbf\n      eq\n      tag_3\n      jumpi\n      dup1\n      0x654fc833\n      eq\n      tag_4\n      jumpi\n    tag_1:\n      0x00\n      dup1\n      revert\n        /* \"NewContract.sol\":2519:2936  function getItemDetails(address _seller, uint256 _itemId) public view returns (... */\n    tag_2:\n      callvalue\n      dup1\n      iszero\n      tag_10\n      jumpi\n      0x00\n      dup1\n      revert\n    tag_10:\n      pop\n      tag_11\n      0x04\n      dup1\n      calldatasize\n      sub\n      dup2\n      add\n      swap1\n      tag_12\n      swap2\n      swap1\n      tag_13\n      jump\t// in\n    tag_12:\n      tag_14\n      jump\t// in\n    tag_11:\n      mload(0x40)\n      tag_15\n      swap6\n      swap5\n      swap4\n      swap3\n      swap2\n      swap1\n      tag_16\n      jump\t// in\n    tag_15:\n      mload(0x40)\n      dup1\n      swap2\n      sub\n      swap1\n      return\n        /* \"NewContract.sol\":2944:3207  function callExternalContract(address _externalContract, bytes memory _data) public {... */\n    tag_3:\n      callvalue\n      dup1\n      iszero\n      tag_17\n      jumpi\n      0x00\n      dup1\n      revert\n    tag_17:\n      pop\n      tag_18\n      0x04\n      dup1\n      calldatasize\n      sub\n      dup2\n      add\n      swap1\n      tag_19\n      swap2\n      swap1\n      tag_20\n      jump\t// in\n    tag_19:\n      tag_21\n      jump\t// in\n    tag_18:\n      stop\n        /* \"NewContract.sol\":1829:2014  function deleteItem(uint256 _itemId) public onlyItemOwner(msg.sender, _itemId) {... */\n    tag_4:\n      callvalue\n      dup1\n      iszero\n      tag_22\n      jumpi\n      0x00\n      dup1\n      revert\n    tag_22:\n      pop\n      tag_23\n      0x04\n      dup1\n      calldatasize\n      sub\n      dup2\n      add\n      swap1\n      tag_24\n      swap2\n      swap1\n      tag_25\n      jump\t// in\n    tag_24:\n      tag_26\n      jump\t// in\n    tag_23:\n      stop\n        /* \"NewContract.sol\":3215:3913  function buyItem(address _seller, uint256 _itemId, uint256 _quantity, address _paymentGateway) public {... */\n    tag_5:\n      callvalue\n      dup1\n      iszero\n      tag_27\n      jumpi\n      0x00\n      dup1\n      revert\n    tag_27:\n      pop\n      tag_28\n      0x04\n      dup1\n      calldatasize\n      sub\n      dup2\n      add\n      swap1\n      tag_29\n      swap2\n      swap1\n      tag_30\n      jump\t// in\n    tag_29:\n      tag_31\n      jump\t// in\n    tag_28:\n      stop\n        /* \"NewContract.sol\":1354:1821  function editItem(... */\n    tag_6:\n      callvalue\n      dup1\n      iszero\n      tag_32\n      jumpi\n      0x00\n      dup1\n      revert\n    tag_32:\n      pop\n      tag_33\n      0x04\n      dup1\n      calldatasize\n      sub\n      dup2\n      add\n      swap1\n      tag_34\n      swap2\n      swap1\n      tag_35\n      jump\t// in\n    tag_34:\n      tag_36\n      jump\t// in\n    tag_33:\n      stop\n        /* \"NewContract.sol\":941:1346  function listItem(... */\n    tag_7:\n      callvalue\n      dup1\n      iszero\n      tag_37\n      jumpi\n      0x00\n      dup1\n      revert\n    tag_37:\n      pop\n      tag_38\n      0x04\n      dup1\n      calldatasize\n      sub\n      dup2\n      add\n      swap1\n      tag_39\n      swap2\n      swap1\n      tag_40\n      jump\t// in\n    tag_39:\n      tag_41\n      jump\t// in\n    tag_38:\n      stop\n        /* \"NewContract.sol\":2022:2511  function purchaseItem(address _seller, uint256 _itemId, uint256 _quantity) public payable {... */\n    tag_8:\n      tag_42\n      0x04\n      dup1\n      calldatasize\n      sub\n      dup2\n      add\n      swap1\n      tag_43\n      swap2\n      swap1\n      tag_44\n      jump\t// in\n    tag_43:\n      tag_45\n      jump\t// in\n    tag_42:\n      stop\n        /* \"NewContract.sol\":2519:2936  function getItemDetails(address _seller, uint256 _itemId) public view returns (... */\n    tag_14:\n        /* \"NewContract.sol\":2608:2621  string memory */\n      0x60\n        /* \"NewContract.sol\":2632:2645  string memory */\n      dup1\n        /* \"NewContract.sol\":2656:2663  uint256 */\n      0x00\n        /* \"NewContract.sol\":2674:2681  uint256 */\n      dup1\n        /* \"NewContract.sol\":2692:2699  address */\n      0x00\n        /* \"NewContract.sol\":2756:2763  _itemId */\n      dup6\n        /* \"NewContract.sol\":2726:2737  sellerItems */\n      0x00\n        /* \"NewContract.sol\":2726:2746  sellerItems[_seller] */\n      dup1\n        /* \"NewContract.sol\":2738:2745  _seller */\n      dup10\n        /* \"NewContract.sol\":2726:2746  sellerItems[_seller] */\n      0xffffffffffffffffffffffffffffffffffffffff\n      and\n      0xffffffffffffffffffffffffffffffffffffffff\n      and\n      dup2\n      mstore\n      0x20\n      add\n      swap1\n      dup2\n      mstore\n      0x20\n      add\n      0x00\n      keccak256\n        /* \"NewContract.sol\":2726:2753  sellerItems[_seller].length */\n      dup1\n      sload\n      swap1\n      pop\n        /* \"NewContract.sol\":2726:2763  sellerItems[_seller].length > _itemId */\n      gt\n        /* \"NewContract.sol\":2718:2783  require(sellerItems[_seller].length > _itemId, \"Invalid item ID\") */\n      tag_47\n      jumpi\n      mload(0x40)\n      0x08c379a000000000000000000000000000000000000000000000000000000000\n      dup2\n      mstore\n      0x04\n      add\n      tag_48\n      swap1\n      tag_49\n      jump\t// in\n    tag_48:\n      mload(0x40)\n      dup1\n      swap2\n      sub\n      swap1\n      revert\n    tag_47:\n        /* \"NewContract.sol\":2794:2810  Item memory item */\n      0x00\n        /* \"NewContract.sol\":2813:2824  sellerItems */\n      dup1\n        /* \"NewContract.sol\":2813:2833  sellerItems[_seller] */\n      0x00\n        /* \"NewContract.sol\":2825:2832  _seller */\n      dup10\n        /* \"NewContract.sol\":2813:2833  sellerItems[_seller] */\n      0xffffffffffffffffffffffffffffffffffffffff\n      and\n      0xffffffffffffffffffffffffffffffffffffffff\n      and\n      dup2\n      mstore\n      0x20\n      add\n      swap1\n      dup2\n      mstore\n      0x20\n      add\n      0x00\n      keccak256\n        /* \"NewContract.sol\":2834:2841  _itemId */\n      dup8\n        /* \"NewContract.sol\":2813:2842  sellerItems[_seller][_itemId] */\n      dup2\n      sload\n      dup2\n      lt\n      tag_50\n      jumpi\n      tag_51\n      tag_52\n      jump\t// in\n    tag_51:\n    tag_50:\n      swap1\n      0x00\n      mstore\n      keccak256(0x00, 0x20)\n      swap1\n      0x05\n      mul\n      add\n        /* \"NewContract.sol\":2794:2842  Item memory item = sellerItems[_seller][_itemId] */\n      mload(0x40)\n      dup1\n      0xa0\n      add\n      0x40\n      mstore\n      swap1\n      dup2\n      0x00\n      dup3\n      add\n      dup1\n      sload\n      tag_54\n      swap1\n      tag_55\n      jump\t// in\n    tag_54:\n      dup1\n      0x1f\n      add\n      0x20\n      dup1\n      swap2\n      div\n      mul\n      0x20\n      add\n      mload(0x40)\n      swap1\n      dup2\n      add\n      0x40\n      mstore\n      dup1\n      swap3\n      swap2\n      swap1\n      dup2\n      dup2\n      mstore\n      0x20\n      add\n      dup3\n      dup1\n      sload\n      tag_56\n      swap1\n      tag_55\n      jump\t// in\n    tag_56:\n      dup1\n      iszero\n      tag_57\n      jumpi\n      dup1\n      0x1f\n      lt\n      tag_58\n      jumpi\n      0x0100\n      dup1\n      dup4\n      sload\n      div\n      mul\n      dup4\n      mstore\n      swap2\n      0x20\n      add\n      swap2\n      jump(tag_57)\n    tag_58:\n      dup3\n      add\n      swap2\n      swap1\n      0x00\n      mstore\n      keccak256(0x00, 0x20)\n      swap1\n    tag_59:\n      dup2\n      sload\n      dup2\n      mstore\n      swap1\n      0x01\n      add\n      swap1\n      0x20\n      add\n      dup1\n      dup4\n      gt\n      tag_59\n      jumpi\n      dup3\n      swap1\n      sub\n      0x1f\n      and\n      dup3\n      add\n      swap2\n    tag_57:\n      pop\n      pop\n      pop\n      pop\n      pop\n      dup2\n      mstore\n      0x20\n      add\n      0x01\n      dup3\n      add\n      dup1\n      sload\n      tag_60\n      swap1\n      tag_55\n      jump\t// in\n    tag_60:\n      dup1\n      0x1f\n      add\n      0x20\n      dup1\n      swap2\n      div\n      mul\n      0x20\n      add\n      mload(0x40)\n      swap1\n      dup2\n      add\n      0x40\n      mstore\n      dup1\n      swap3\n      swap2\n      swap1\n      dup2\n      dup2\n      mstore\n      0x20\n      add\n      dup3\n      dup1\n      sload\n      tag_61\n      swap1\n      tag_55\n      jump\t// in\n    tag_61:\n      dup1\n      iszero\n      tag_62\n      jumpi\n      dup1\n      0x1f\n      lt\n      tag_63\n      jumpi\n      0x0100\n      dup1\n      dup4\n      sload\n      div\n      mul\n      dup4\n      mstore\n      swap2\n      0x20\n      add\n      swap2\n      jump(tag_62)\n    tag_63:\n      dup3\n      add\n      swap2\n      swap1\n      0x00\n      mstore\n      keccak256(0x00, 0x20)\n      swap1\n    tag_64:\n      dup2\n      sload\n      dup2\n      mstore\n      swap1\n      0x01\n      add\n      swap1\n      0x20\n      add\n      dup1\n      dup4\n      gt\n      tag_64\n      jumpi\n      dup3\n      swap1\n      sub\n      0x1f\n      and\n      dup3\n      add\n      swap2\n    tag_62:\n      pop\n      pop\n      pop\n      pop\n      pop\n      dup2\n      mstore\n      0x20\n      add\n      0x02\n      dup3\n      add\n      sload\n      dup2\n      mstore\n      0x20\n      add\n      0x03\n      dup3\n      add\n      sload\n      dup2\n      mstore\n      0x20\n      add\n      0x04\n      dup3\n      add\n      0x00\n      swap1\n      sload\n      swap1\n      0x0100\n      exp\n      swap1\n      div\n      0xffffffffffffffffffffffffffffffffffffffff\n      and\n      0xffffffffffffffffffffffffffffffffffffffff\n      and\n      0xffffffffffffffffffffffffffffffffffffffff\n      and\n      dup2\n      mstore\n      pop\n      pop\n      swap1\n      pop\n        /* \"NewContract.sol\":2861:2865  item */\n      dup1\n        /* \"NewContract.sol\":2861:2870  item.name */\n      0x00\n      add\n      mload\n        /* \"NewContract.sol\":2872:2876  item */\n      dup2\n        /* \"NewContract.sol\":2872:2888  item.description */\n      0x20\n      add\n      mload\n        /* \"NewContract.sol\":2890:2894  item */\n      dup3\n        /* \"NewContract.sol\":2890:2900  item.price */\n      0x40\n      add\n      mload\n        /* \"NewContract.sol\":2902:2906  item */\n      dup4\n        /* \"NewContract.sol\":2902:2915  item.quantity */\n      0x60\n      add\n      mload\n        /* \"NewContract.sol\":2917:2921  item */\n      dup5\n        /* \"NewContract.sol\":2917:2927  item.owner */\n      0x80\n      add\n      mload\n        /* \"NewContract.sol\":2853:2928  return (item.name, item.description, item.price, item.quantity, item.owner) */\n      swap6\n      pop\n      swap6\n      pop\n      swap6\n      pop\n      swap6\n      pop\n      swap6\n      pop\n      pop\n        /* \"NewContract.sol\":2519:2936  function getItemDetails(address _seller, uint256 _itemId) public view returns (... */\n      swap3\n      swap6\n      pop\n      swap3\n      swap6\n      swap1\n      swap4\n      pop\n      jump\t// out\n        /* \"NewContract.sol\":2944:3207  function callExternalContract(address _externalContract, bytes memory _data) public {... */\n    tag_21:\n        /* \"NewContract.sol\":3092:3104  bool success */\n      0x00\n        /* \"NewContract.sol\":3110:3127  _externalContract */\n      dup3\n        /* \"NewContract.sol\":3110:3132  _externalContract.call */\n      0xffffffffffffffffffffffffffffffffffffffff\n      and\n        /* \"NewContract.sol\":3133:3138  _data */\n      dup3\n        /* \"NewContract.sol\":3110:3139  _externalContract.call(_data) */\n      mload(0x40)\n      tag_66\n      swap2\n      swap1\n      tag_67\n      jump\t// in\n    tag_66:\n      0x00\n      mload(0x40)\n      dup1\n      dup4\n      sub\n      dup2\n      0x00\n      dup7\n      gas\n      call\n      swap2\n      pop\n      pop\n      returndatasize\n      dup1\n      0x00\n      dup2\n      eq\n      tag_70\n      jumpi\n      mload(0x40)\n      swap2\n      pop\n      and(add(returndatasize, 0x3f), not(0x1f))\n      dup3\n      add\n      0x40\n      mstore\n      returndatasize\n      dup3\n      mstore\n      returndatasize\n      0x00\n      0x20\n      dup5\n      add\n      returndatacopy\n      jump(tag_69)\n    tag_70:\n      0x60\n      swap2\n      pop\n    tag_69:\n      pop\n        /* \"NewContract.sol\":3091:3139  (bool success, ) = _externalContract.call(_data) */\n      pop\n      swap1\n      pop\n        /* \"NewContract.sol\":3158:3165  success */\n      dup1\n        /* \"NewContract.sol\":3150:3199  require(success, \"External contract call failed\") */\n      tag_71\n      jumpi\n      mload(0x40)\n      0x08c379a000000000000000000000000000000000000000000000000000000000\n      dup2\n      mstore\n      0x04\n      add\n      tag_72\n      swap1\n      tag_73\n      jump\t// in\n    tag_72:\n      mload(0x40)\n      dup1\n      swap2\n      sub\n      swap1\n      revert\n    tag_71:\n        /* \"NewContract.sol\":3028:3207  {... */\n      pop\n        /* \"NewContract.sol\":2944:3207  function callExternalContract(address _externalContract, bytes memory _data) public {... */\n      pop\n      pop\n      jump\t// out\n        /* \"NewContract.sol\":1829:2014  function deleteItem(uint256 _itemId) public onlyItemOwner(msg.sender, _itemId) {... */\n    tag_26:\n        /* \"NewContract.sol\":1887:1897  msg.sender */\n      caller\n        /* \"NewContract.sol\":1899:1906  _itemId */\n      dup2\n        /* \"NewContract.sol\":711:718  _itemId */\n      dup1\n        /* \"NewContract.sol\":681:692  sellerItems */\n      0x00\n        /* \"NewContract.sol\":681:701  sellerItems[_seller] */\n      dup1\n        /* \"NewContract.sol\":693:700  _seller */\n      dup5\n        /* \"NewContract.sol\":681:701  sellerItems[_seller] */\n      0xffffffffffffffffffffffffffffffffffffffff\n      and\n      0xffffffffffffffffffffffffffffffffffffffff\n      and\n      dup2\n      mstore\n      0x20\n      add\n      swap1\n      dup2\n      mstore\n      0x20\n      add\n      0x00\n      keccak256\n        /* \"NewContract.sol\":681:708  sellerItems[_seller].length */\n      dup1\n      sload\n      swap1\n      pop\n        /* \"NewContract.sol\":681:718  sellerItems[_seller].length > _itemId */\n      gt\n        /* \"NewContract.sol\":673:738  require(sellerItems[_seller].length > _itemId, \"Invalid item ID\") */\n      tag_75\n      jumpi\n      mload(0x40)\n      0x08c379a000000000000000000000000000000000000000000000000000000000\n      dup2\n      mstore\n      0x04\n      add\n      tag_76\n      swap1\n      tag_49\n      jump\t// in\n    tag_76:\n      mload(0x40)\n      dup1\n      swap2\n      sub\n      swap1\n      revert\n    tag_75:\n        /* \"NewContract.sol\":796:806  msg.sender */\n      caller\n        /* \"NewContract.sol\":757:806  sellerItems[_seller][_itemId].owner == msg.sender */\n      0xffffffffffffffffffffffffffffffffffffffff\n      and\n        /* \"NewContract.sol\":757:768  sellerItems */\n      0x00\n        /* \"NewContract.sol\":757:777  sellerItems[_seller] */\n      dup1\n        /* \"NewContract.sol\":769:776  _seller */\n      dup5\n        /* \"NewContract.sol\":757:777  sellerItems[_seller] */\n      0xffffffffffffffffffffffffffffffffffffffff\n      and\n      0xffffffffffffffffffffffffffffffffffffffff\n      and\n      dup2\n      mstore\n      0x20\n      add\n      swap1\n      dup2\n      mstore\n      0x20\n      add\n      0x00\n      keccak256\n        /* \"NewContract.sol\":778:785  _itemId */\n      dup3\n        /* \"NewContract.sol\":757:786  sellerItems[_seller][_itemId] */\n      dup2\n      sload\n      dup2\n      lt\n      tag_77\n      jumpi\n      tag_78\n      tag_52\n      jump\t// in\n    tag_78:\n    tag_77:\n      swap1\n      0x00\n      mstore\n      keccak256(0x00, 0x20)\n      swap1\n      0x05\n      mul\n      add\n        /* \"NewContract.sol\":757:792  sellerItems[_seller][_itemId].owner */\n      0x04\n      add\n      0x00\n      swap1\n      sload\n      swap1\n      0x0100\n      exp\n      swap1\n      div\n      0xffffffffffffffffffffffffffffffffffffffff\n      and\n        /* \"NewContract.sol\":757:806  sellerItems[_seller][_itemId].owner == msg.sender */\n      0xffffffffffffffffffffffffffffffffffffffff\n      and\n      eq\n        /* \"NewContract.sol\":749:829  require(sellerItems[_seller][_itemId].owner == msg.sender, \"Not the item owner\") */\n      tag_80\n      jumpi\n      mload(0x40)\n      0x08c379a000000000000000000000000000000000000000000000000000000000\n      dup2\n      mstore\n      0x04\n      add\n      tag_81\n      swap1\n      tag_82\n      jump\t// in\n    tag_81:\n      mload(0x40)\n      dup1\n      swap2\n      sub\n      swap1\n      revert\n    tag_80:\n        /* \"NewContract.sol\":1926:1937  sellerItems */\n      0x00\n        /* \"NewContract.sol\":1926:1949  sellerItems[msg.sender] */\n      dup1\n        /* \"NewContract.sol\":1938:1948  msg.sender */\n      caller\n        /* \"NewContract.sol\":1926:1949  sellerItems[msg.sender] */\n      0xffffffffffffffffffffffffffffffffffffffff\n      and\n      0xffffffffffffffffffffffffffffffffffffffff\n      and\n      dup2\n      mstore\n      0x20\n      add\n      swap1\n      dup2\n      mstore\n      0x20\n      add\n      0x00\n      keccak256\n        /* \"NewContract.sol\":1950:1957  _itemId */\n      dup4\n        /* \"NewContract.sol\":1926:1958  sellerItems[msg.sender][_itemId] */\n      dup2\n      sload\n      dup2\n      lt\n      tag_84\n      jumpi\n      tag_85\n      tag_52\n      jump\t// in\n    tag_85:\n    tag_84:\n      swap1\n      0x00\n      mstore\n      keccak256(0x00, 0x20)\n      swap1\n      0x05\n      mul\n      add\n      0x00\n        /* \"NewContract.sol\":1919:1958  delete sellerItems[msg.sender][_itemId] */\n      dup1\n      dup3\n      add\n      0x00\n      tag_87\n      swap2\n      swap1\n      tag_88\n      jump\t// in\n    tag_87:\n      0x01\n      dup3\n      add\n      0x00\n      tag_89\n      swap2\n      swap1\n      tag_88\n      jump\t// in\n    tag_89:\n      0x02\n      dup3\n      add\n      0x00\n      swap1\n      sstore\n      0x03\n      dup3\n      add\n      0x00\n      swap1\n      sstore\n      0x04\n      dup3\n      add\n      exp(0x0100, 0x00)\n      dup2\n      sload\n      swap1\n      0xffffffffffffffffffffffffffffffffffffffff\n      mul\n      not\n      and\n      swap1\n      sstore\n      pop\n      pop\n        /* \"NewContract.sol\":1998:2005  _itemId */\n      dup3\n        /* \"NewContract.sol\":1986:1996  msg.sender */\n      caller\n        /* \"NewContract.sol\":1974:2006  ItemDeleted(msg.sender, _itemId) */\n      0xffffffffffffffffffffffffffffffffffffffff\n      and\n      0x21c5ff13f7a7163d7cd6a98d82517de93dcc833b527ad63a5550894be16070c8\n      mload(0x40)\n      mload(0x40)\n      dup1\n      swap2\n      sub\n      swap1\n      log3\n        /* \"NewContract.sol\":1829:2014  function deleteItem(uint256 _itemId) public onlyItemOwner(msg.sender, _itemId) {... */\n      pop\n      pop\n      pop\n      jump\t// out\n        /* \"NewContract.sol\":3215:3913  function buyItem(address _seller, uint256 _itemId, uint256 _quantity, address _paymentGateway) public {... */\n    tag_31:\n        /* \"NewContract.sol\":3402:3409  _itemId */\n      dup3\n        /* \"NewContract.sol\":3372:3383  sellerItems */\n      0x00\n        /* \"NewContract.sol\":3372:3392  sellerItems[_seller] */\n      dup1\n        /* \"NewContract.sol\":3384:3391  _seller */\n      dup7\n        /* \"NewContract.sol\":3372:3392  sellerItems[_seller] */\n      0xffffffffffffffffffffffffffffffffffffffff\n      and\n      0xffffffffffffffffffffffffffffffffffffffff\n      and\n      dup2\n      mstore\n      0x20\n      add\n      swap1\n      dup2\n      mstore\n      0x20\n      add\n      0x00\n      keccak256\n        /* \"NewContract.sol\":3372:3399  sellerItems[_seller].length */\n      dup1\n      sload\n      swap1\n      pop\n        /* \"NewContract.sol\":3372:3409  sellerItems[_seller].length > _itemId */\n      gt\n        /* \"NewContract.sol\":3364:3429  require(sellerItems[_seller].length > _itemId, \"Invalid item ID\") */\n      tag_91\n      jumpi\n      mload(0x40)\n      0x08c379a000000000000000000000000000000000000000000000000000000000\n      dup2\n      mstore\n      0x04\n      add\n      tag_92\n      swap1\n      tag_49\n      jump\t// in\n    tag_92:\n      mload(0x40)\n      dup1\n      swap2\n      sub\n      swap1\n      revert\n    tag_91:\n        /* \"NewContract.sol\":3440:3457  Item storage item */\n      0x00\n        /* \"NewContract.sol\":3460:3471  sellerItems */\n      dup1\n        /* \"NewContract.sol\":3460:3480  sellerItems[_seller] */\n      0x00\n        /* \"NewContract.sol\":3472:3479  _seller */\n      dup7\n        /* \"NewContract.sol\":3460:3480  sellerItems[_seller] */\n      0xffffffffffffffffffffffffffffffffffffffff\n      and\n      0xffffffffffffffffffffffffffffffffffffffff\n      and\n      dup2\n      mstore\n      0x20\n      add\n      swap1\n      dup2\n      mstore\n      0x20\n      add\n      0x00\n      keccak256\n        /* \"NewContract.sol\":3481:3488  _itemId */\n      dup5\n        /* \"NewContract.sol\":3460:3489  sellerItems[_seller][_itemId] */\n      dup2\n      sload\n      dup2\n      lt\n      tag_93\n      jumpi\n      tag_94\n      tag_52\n      jump\t// in\n    tag_94:\n    tag_93:\n      swap1\n      0x00\n      mstore\n      keccak256(0x00, 0x20)\n      swap1\n      0x05\n      mul\n      add\n        /* \"NewContract.sol\":3440:3489  Item storage item = sellerItems[_seller][_itemId] */\n      swap1\n      pop\n        /* \"NewContract.sol\":3525:3534  _quantity */\n      dup3\n        /* \"NewContract.sol\":3508:3512  item */\n      dup2\n        /* \"NewContract.sol\":3508:3521  item.quantity */\n      0x03\n      add\n      sload\n        /* \"NewContract.sol\":3508:3534  item.quantity >= _quantity */\n      lt\n      iszero\n        /* \"NewContract.sol\":3500:3568  require(item.quantity >= _quantity, \"Not enough quantity available\") */\n      tag_96\n      jumpi\n      mload(0x40)\n      0x08c379a000000000000000000000000000000000000000000000000000000000\n      dup2\n      mstore\n      0x04\n      add\n      tag_97\n      swap1\n      tag_98\n      jump\t// in\n    tag_97:\n      mload(0x40)\n      dup1\n      swap2\n      sub\n      swap1\n      revert\n    tag_96:\n        /* \"NewContract.sol\":3643:3662  bool paymentSuccess */\n      0x00\n        /* \"NewContract.sol\":3668:3683  _paymentGateway */\n      dup3\n        /* \"NewContract.sol\":3668:3688  _paymentGateway.call */\n      0xffffffffffffffffffffffffffffffffffffffff\n      and\n        /* \"NewContract.sol\":3709:3718  _quantity */\n      dup5\n        /* \"NewContract.sol\":3696:3700  item */\n      dup4\n        /* \"NewContract.sol\":3696:3706  item.price */\n      0x02\n      add\n      sload\n        /* \"NewContract.sol\":3696:3718  item.price * _quantity */\n      tag_99\n      swap2\n      swap1\n      tag_100\n      jump\t// in\n    tag_99:\n        /* \"NewContract.sol\":3668:3723  _paymentGateway.call{value: item.price * _quantity}(\"\") */\n      mload(0x40)\n      tag_101\n      swap1\n      tag_102\n      jump\t// in\n    tag_101:\n      0x00\n      mload(0x40)\n      dup1\n      dup4\n      sub\n      dup2\n      dup6\n      dup8\n      gas\n      call\n      swap3\n      pop\n      pop\n      pop\n      returndatasize\n      dup1\n      0x00\n      dup2\n      eq\n      tag_105\n      jumpi\n      mload(0x40)\n      swap2\n      pop\n      and(add(returndatasize, 0x3f), not(0x1f))\n      dup3\n      add\n      0x40\n      mstore\n      returndatasize\n      dup3\n      mstore\n      returndatasize\n      0x00\n      0x20\n      dup5\n      add\n      returndatacopy\n      jump(tag_104)\n    tag_105:\n      0x60\n      swap2\n      pop\n    tag_104:\n      pop\n        /* \"NewContract.sol\":3642:3723  (bool paymentSuccess, ) = _paymentGateway.call{value: item.price * _quantity}(\"\") */\n      pop\n      swap1\n      pop\n        /* \"NewContract.sol\":3742:3756  paymentSuccess */\n      dup1\n        /* \"NewContract.sol\":3734:3775  require(paymentSuccess, \"Payment failed\") */\n      tag_106\n      jumpi\n      mload(0x40)\n      0x08c379a000000000000000000000000000000000000000000000000000000000\n      dup2\n      mstore\n      0x04\n      add\n      tag_107\n      swap1\n      tag_108\n      jump\t// in\n    tag_107:\n      mload(0x40)\n      dup1\n      swap2\n      sub\n      swap1\n      revert\n    tag_106:\n        /* \"NewContract.sol\":3838:3847  _quantity */\n      dup4\n        /* \"NewContract.sol\":3821:3825  item */\n      dup3\n        /* \"NewContract.sol\":3821:3834  item.quantity */\n      0x03\n      add\n      0x00\n        /* \"NewContract.sol\":3821:3847  item.quantity -= _quantity */\n      dup3\n      dup3\n      sload\n      tag_109\n      swap2\n      swap1\n      tag_110\n      jump\t// in\n    tag_109:\n      swap3\n      pop\n      pop\n      dup2\n      swap1\n      sstore\n      pop\n        /* \"NewContract.sol\":3886:3893  _itemId */\n      dup5\n        /* \"NewContract.sol\":3877:3884  _seller */\n      dup7\n        /* \"NewContract.sol\":3863:3905  ItemPurchased(_seller, _itemId, _quantity) */\n      0xffffffffffffffffffffffffffffffffffffffff\n      and\n      0x1452773cf753d0d7c71ed9990f7c7e2bdde4a2d08d187b3647953877e400488d\n        /* \"NewContract.sol\":3895:3904  _quantity */\n      dup7\n        /* \"NewContract.sol\":3863:3905  ItemPurchased(_seller, _itemId, _quantity) */\n      mload(0x40)\n      tag_111\n      swap2\n      swap1\n      tag_112\n      jump\t// in\n    tag_111:\n      mload(0x40)\n      dup1\n      swap2\n      sub\n      swap1\n      log3\n        /* \"NewContract.sol\":3317:3913  {... */\n      pop\n      pop\n        /* \"NewContract.sol\":3215:3913  function buyItem(address _seller, uint256 _itemId, uint256 _quantity, address _paymentGateway) public {... */\n      pop\n      pop\n      pop\n      pop\n      jump\t// out\n        /* \"NewContract.sol\":1354:1821  function editItem(... */\n    tag_36:\n        /* \"NewContract.sol\":1546:1556  msg.sender */\n      caller\n        /* \"NewContract.sol\":1558:1565  _itemId */\n      dup6\n        /* \"NewContract.sol\":711:718  _itemId */\n      dup1\n        /* \"NewContract.sol\":681:692  sellerItems */\n      0x00\n        /* \"NewContract.sol\":681:701  sellerItems[_seller] */\n      dup1\n        /* \"NewContract.sol\":693:700  _seller */\n      dup5\n        /* \"NewContract.sol\":681:701  sellerItems[_seller] */\n      0xffffffffffffffffffffffffffffffffffffffff\n      and\n      0xffffffffffffffffffffffffffffffffffffffff\n      and\n      dup2\n      mstore\n      0x20\n      add\n      swap1\n      dup2\n      mstore\n      0x20\n      add\n      0x00\n      keccak256\n        /* \"NewContract.sol\":681:708  sellerItems[_seller].length */\n      dup1\n      sload\n      swap1\n      pop\n        /* \"NewContract.sol\":681:718  sellerItems[_seller].length > _itemId */\n      gt\n        /* \"NewContract.sol\":673:738  require(sellerItems[_seller].length > _itemId, \"Invalid item ID\") */\n      tag_114\n      jumpi\n      mload(0x40)\n      0x08c379a000000000000000000000000000000000000000000000000000000000\n      dup2\n      mstore\n      0x04\n      add\n      tag_115\n      swap1\n      tag_49\n      jump\t// in\n    tag_115:\n      mload(0x40)\n      dup1\n      swap2\n      sub\n      swap1\n      revert\n    tag_114:\n        /* \"NewContract.sol\":796:806  msg.sender */\n      caller\n        /* \"NewContract.sol\":757:806  sellerItems[_seller][_itemId].owner == msg.sender */\n      0xffffffffffffffffffffffffffffffffffffffff\n      and\n        /* \"NewContract.sol\":757:768  sellerItems */\n      0x00\n        /* \"NewContract.sol\":757:777  sellerItems[_seller] */\n      dup1\n        /* \"NewContract.sol\":769:776  _seller */\n      dup5\n        /* \"NewContract.sol\":757:777  sellerItems[_seller] */\n      0xffffffffffffffffffffffffffffffffffffffff\n      and\n      0xffffffffffffffffffffffffffffffffffffffff\n      and\n      dup2\n      mstore\n      0x20\n      add\n      swap1\n      dup2\n      mstore\n      0x20\n      add\n      0x00\n      keccak256\n        /* \"NewContract.sol\":778:785  _itemId */\n      dup3\n        /* \"NewContract.sol\":757:786  sellerItems[_seller][_itemId] */\n      dup2\n      sload\n      dup2\n      lt\n      tag_116\n      jumpi\n      tag_117\n      tag_52\n      jump\t// in\n    tag_117:\n    tag_116:\n      swap1\n      0x00\n      mstore\n      keccak256(0x00, 0x20)\n      swap1\n      0x05\n      mul\n      add\n        /* \"NewContract.sol\":757:792  sellerItems[_seller][_itemId].owner */\n      0x04\n      add\n      0x00\n      swap1\n      sload\n      swap1\n      0x0100\n      exp\n      swap1\n      div\n      0xffffffffffffffffffffffffffffffffffffffff\n      and\n        /* \"NewContract.sol\":757:806  sellerItems[_seller][_itemId].owner == msg.sender */\n      0xffffffffffffffffffffffffffffffffffffffff\n      and\n      eq\n        /* \"NewContract.sol\":749:829  require(sellerItems[_seller][_itemId].owner == msg.sender, \"Not the item owner\") */\n      tag_119\n      jumpi\n      mload(0x40)\n      0x08c379a000000000000000000000000000000000000000000000000000000000\n      dup2\n      mstore\n      0x04\n      add\n      tag_120\n      swap1\n      tag_82\n      jump\t// in\n    tag_120:\n      mload(0x40)\n      dup1\n      swap2\n      sub\n      swap1\n      revert\n    tag_119:\n        /* \"NewContract.sol\":1578:1595  Item storage item */\n      0x00\n        /* \"NewContract.sol\":1598:1609  sellerItems */\n      dup1\n        /* \"NewContract.sol\":1598:1621  sellerItems[msg.sender] */\n      0x00\n        /* \"NewContract.sol\":1610:1620  msg.sender */\n      caller\n        /* \"NewContract.sol\":1598:1621  sellerItems[msg.sender] */\n      0xffffffffffffffffffffffffffffffffffffffff\n      and\n      0xffffffffffffffffffffffffffffffffffffffff\n      and\n      dup2\n      mstore\n      0x20\n      add\n      swap1\n      dup2\n      mstore\n      0x20\n      add\n      0x00\n      keccak256\n        /* \"NewContract.sol\":1622:1629  _itemId */\n      dup9\n        /* \"NewContract.sol\":1598:1630  sellerItems[msg.sender][_itemId] */\n      dup2\n      sload\n      dup2\n      lt\n      tag_122\n      jumpi\n      tag_123\n      tag_52\n      jump\t// in\n    tag_123:\n    tag_122:\n      swap1\n      0x00\n      mstore\n      keccak256(0x00, 0x20)\n      swap1\n      0x05\n      mul\n      add\n        /* \"NewContract.sol\":1578:1630  Item storage item = sellerItems[msg.sender][_itemId] */\n      swap1\n      pop\n        /* \"NewContract.sol\":1653:1658  _name */\n      dup7\n        /* \"NewContract.sol\":1641:1645  item */\n      dup2\n        /* \"NewContract.sol\":1641:1650  item.name */\n      0x00\n      add\n        /* \"NewContract.sol\":1641:1658  item.name = _name */\n      swap1\n      dup2\n      tag_125\n      swap2\n      swap1\n      tag_126\n      jump\t// in\n    tag_125:\n      pop\n        /* \"NewContract.sol\":1688:1700  _description */\n      dup6\n        /* \"NewContract.sol\":1669:1673  item */\n      dup2\n        /* \"NewContract.sol\":1669:1685  item.description */\n      0x01\n      add\n        /* \"NewContract.sol\":1669:1700  item.description = _description */\n      swap1\n      dup2\n      tag_127\n      swap2\n      swap1\n      tag_126\n      jump\t// in\n    tag_127:\n      pop\n        /* \"NewContract.sol\":1724:1730  _price */\n      dup5\n        /* \"NewContract.sol\":1711:1715  item */\n      dup2\n        /* \"NewContract.sol\":1711:1721  item.price */\n      0x02\n      add\n        /* \"NewContract.sol\":1711:1730  item.price = _price */\n      dup2\n      swap1\n      sstore\n      pop\n        /* \"NewContract.sol\":1757:1766  _quantity */\n      dup4\n        /* \"NewContract.sol\":1741:1745  item */\n      dup2\n        /* \"NewContract.sol\":1741:1754  item.quantity */\n      0x03\n      add\n        /* \"NewContract.sol\":1741:1766  item.quantity = _quantity */\n      dup2\n      swap1\n      sstore\n      pop\n        /* \"NewContract.sol\":1805:1812  _itemId */\n      dup8\n        /* \"NewContract.sol\":1793:1803  msg.sender */\n      caller\n        /* \"NewContract.sol\":1782:1813  ItemEdited(msg.sender, _itemId) */\n      0xffffffffffffffffffffffffffffffffffffffff\n      and\n      0xef5c8e262c5ede94f110ea1a85d49828bf157d39ff38b9dd555e8f409c93f058\n      mload(0x40)\n      mload(0x40)\n      dup1\n      swap2\n      sub\n      swap1\n      log3\n        /* \"NewContract.sol\":1567:1821  {... */\n      pop\n        /* \"NewContract.sol\":1354:1821  function editItem(... */\n      pop\n      pop\n      pop\n      pop\n      pop\n      pop\n      pop\n      jump\t// out\n        /* \"NewContract.sol\":941:1346  function listItem(... */\n    tag_41:\n        /* \"NewContract.sol\":1104:1123  Item memory newItem */\n      0x00\n        /* \"NewContract.sol\":1126:1182  Item(_name, _description, _price, _quantity, msg.sender) */\n      mload(0x40)\n      dup1\n      0xa0\n      add\n      0x40\n      mstore\n      dup1\n        /* \"NewContract.sol\":1131:1136  _name */\n      dup7\n        /* \"NewContract.sol\":1126:1182  Item(_name, _description, _price, _quantity, msg.sender) */\n      dup2\n      mstore\n      0x20\n      add\n        /* \"NewContract.sol\":1138:1150  _description */\n      dup6\n        /* \"NewContract.sol\":1126:1182  Item(_name, _description, _price, _quantity, msg.sender) */\n      dup2\n      mstore\n      0x20\n      add\n        /* \"NewContract.sol\":1152:1158  _price */\n      dup5\n        /* \"NewContract.sol\":1126:1182  Item(_name, _description, _price, _quantity, msg.sender) */\n      dup2\n      mstore\n      0x20\n      add\n        /* \"NewContract.sol\":1160:1169  _quantity */\n      dup4\n        /* \"NewContract.sol\":1126:1182  Item(_name, _description, _price, _quantity, msg.sender) */\n      dup2\n      mstore\n      0x20\n      add\n        /* \"NewContract.sol\":1171:1181  msg.sender */\n      caller\n        /* \"NewContract.sol\":1126:1182  Item(_name, _description, _price, _quantity, msg.sender) */\n      0xffffffffffffffffffffffffffffffffffffffff\n      and\n      dup2\n      mstore\n      pop\n        /* \"NewContract.sol\":1104:1182  Item memory newItem = Item(_name, _description, _price, _quantity, msg.sender) */\n      swap1\n      pop\n        /* \"NewContract.sol\":1193:1204  sellerItems */\n      0x00\n        /* \"NewContract.sol\":1193:1216  sellerItems[msg.sender] */\n      dup1\n        /* \"NewContract.sol\":1205:1215  msg.sender */\n      caller\n        /* \"NewContract.sol\":1193:1216  sellerItems[msg.sender] */\n      0xffffffffffffffffffffffffffffffffffffffff\n      and\n      0xffffffffffffffffffffffffffffffffffffffff\n      and\n      dup2\n      mstore\n      0x20\n      add\n      swap1\n      dup2\n      mstore\n      0x20\n      add\n      0x00\n      keccak256\n        /* \"NewContract.sol\":1222:1229  newItem */\n      dup2\n        /* \"NewContract.sol\":1193:1230  sellerItems[msg.sender].push(newItem) */\n      swap1\n      dup1\n      0x01\n      dup2\n      sload\n      add\n      dup1\n      dup3\n      sstore\n      dup1\n      swap2\n      pop\n      pop\n      0x01\n      swap1\n      sub\n      swap1\n      0x00\n      mstore\n      keccak256(0x00, 0x20)\n      swap1\n      0x05\n      mul\n      add\n      0x00\n      swap1\n      swap2\n      swap1\n      swap2\n      swap1\n      swap2\n      pop\n      0x00\n      dup3\n      add\n      mload\n      dup2\n      0x00\n      add\n      swap1\n      dup2\n      tag_130\n      swap2\n      swap1\n      tag_126\n      jump\t// in\n    tag_130:\n      pop\n      0x20\n      dup3\n      add\n      mload\n      dup2\n      0x01\n      add\n      swap1\n      dup2\n      tag_131\n      swap2\n      swap1\n      tag_126\n      jump\t// in\n    tag_131:\n      pop\n      0x40\n      dup3\n      add\n      mload\n      dup2\n      0x02\n      add\n      sstore\n      0x60\n      dup3\n      add\n      mload\n      dup2\n      0x03\n      add\n      sstore\n      0x80\n      dup3\n      add\n      mload\n      dup2\n      0x04\n      add\n      exp(0x0100, 0x00)\n      dup2\n      sload\n      dup2\n      0xffffffffffffffffffffffffffffffffffffffff\n      mul\n      not\n      and\n      swap1\n      dup4\n      0xffffffffffffffffffffffffffffffffffffffff\n      and\n      mul\n      or\n      swap1\n      sstore\n      pop\n      pop\n      pop\n        /* \"NewContract.sol\":1241:1255  uint256 itemId */\n      0x00\n        /* \"NewContract.sol\":1291:1292  1 */\n      0x01\n        /* \"NewContract.sol\":1258:1269  sellerItems */\n      0x00\n        /* \"NewContract.sol\":1258:1281  sellerItems[msg.sender] */\n      dup1\n        /* \"NewContract.sol\":1270:1280  msg.sender */\n      caller\n        /* \"NewContract.sol\":1258:1281  sellerItems[msg.sender] */\n      0xffffffffffffffffffffffffffffffffffffffff\n      and\n      0xffffffffffffffffffffffffffffffffffffffff\n      and\n      dup2\n      mstore\n      0x20\n      add\n      swap1\n      dup2\n      mstore\n      0x20\n      add\n      0x00\n      keccak256\n        /* \"NewContract.sol\":1258:1288  sellerItems[msg.sender].length */\n      dup1\n      sload\n      swap1\n      pop\n        /* \"NewContract.sol\":1258:1292  sellerItems[msg.sender].length - 1 */\n      tag_132\n      swap2\n      swap1\n      tag_110\n      jump\t// in\n    tag_132:\n        /* \"NewContract.sol\":1241:1292  uint256 itemId = sellerItems[msg.sender].length - 1 */\n      swap1\n      pop\n        /* \"NewContract.sol\":1331:1337  itemId */\n      dup1\n        /* \"NewContract.sol\":1319:1329  msg.sender */\n      caller\n        /* \"NewContract.sol\":1308:1338  ItemListed(msg.sender, itemId) */\n      0xffffffffffffffffffffffffffffffffffffffff\n      and\n      0x5fa975b058a6046ec5054ab1ec0cc5c350c1c467c8147cd03ca62342bc63545e\n      mload(0x40)\n      mload(0x40)\n      dup1\n      swap2\n      sub\n      swap1\n      log3\n        /* \"NewContract.sol\":1093:1346  {... */\n      pop\n      pop\n        /* \"NewContract.sol\":941:1346  function listItem(... */\n      pop\n      pop\n      pop\n      pop\n      jump\t// out\n        /* \"NewContract.sol\":2022:2511  function purchaseItem(address _seller, uint256 _itemId, uint256 _quantity) public payable {... */\n    tag_45:\n        /* \"NewContract.sol\":2161:2168  _itemId */\n      dup2\n        /* \"NewContract.sol\":2131:2142  sellerItems */\n      0x00\n        /* \"NewContract.sol\":2131:2151  sellerItems[_seller] */\n      dup1\n        /* \"NewContract.sol\":2143:2150  _seller */\n      dup6\n        /* \"NewContract.sol\":2131:2151  sellerItems[_seller] */\n      0xffffffffffffffffffffffffffffffffffffffff\n      and\n      0xffffffffffffffffffffffffffffffffffffffff\n      and\n      dup2\n      mstore\n      0x20\n      add\n      swap1\n      dup2\n      mstore\n      0x20\n      add\n      0x00\n      keccak256\n        /* \"NewContract.sol\":2131:2158  sellerItems[_seller].length */\n      dup1\n      sload\n      swap1\n      pop\n        /* \"NewContract.sol\":2131:2168  sellerItems[_seller].length > _itemId */\n      gt\n        /* \"NewContract.sol\":2123:2188  require(sellerItems[_seller].length > _itemId, \"Invalid item ID\") */\n      tag_134\n      jumpi\n      mload(0x40)\n      0x08c379a000000000000000000000000000000000000000000000000000000000\n      dup2\n      mstore\n      0x04\n      add\n      tag_135\n      swap1\n      tag_49\n      jump\t// in\n    tag_135:\n      mload(0x40)\n      dup1\n      swap2\n      sub\n      swap1\n      revert\n    tag_134:\n        /* \"NewContract.sol\":2199:2216  Item storage item */\n      0x00\n        /* \"NewContract.sol\":2219:2230  sellerItems */\n      dup1\n        /* \"NewContract.sol\":2219:2239  sellerItems[_seller] */\n      0x00\n        /* \"NewContract.sol\":2231:2238  _seller */\n      dup6\n        /* \"NewContract.sol\":2219:2239  sellerItems[_seller] */\n      0xffffffffffffffffffffffffffffffffffffffff\n      and\n      0xffffffffffffffffffffffffffffffffffffffff\n      and\n      dup2\n      mstore\n      0x20\n      add\n      swap1\n      dup2\n      mstore\n      0x20\n      add\n      0x00\n      keccak256\n        /* \"NewContract.sol\":2240:2247  _itemId */\n      dup4\n        /* \"NewContract.sol\":2219:2248  sellerItems[_seller][_itemId] */\n      dup2\n      sload\n      dup2\n      lt\n      tag_136\n      jumpi\n      tag_137\n      tag_52\n      jump\t// in\n    tag_137:\n    tag_136:\n      swap1\n      0x00\n      mstore\n      keccak256(0x00, 0x20)\n      swap1\n      0x05\n      mul\n      add\n        /* \"NewContract.sol\":2199:2248  Item storage item = sellerItems[_seller][_itemId] */\n      swap1\n      pop\n        /* \"NewContract.sol\":2284:2293  _quantity */\n      dup2\n        /* \"NewContract.sol\":2267:2271  item */\n      dup2\n        /* \"NewContract.sol\":2267:2280  item.quantity */\n      0x03\n      add\n      sload\n        /* \"NewContract.sol\":2267:2293  item.quantity >= _quantity */\n      lt\n      iszero\n        /* \"NewContract.sol\":2259:2327  require(item.quantity >= _quantity, \"Not enough quantity available\") */\n      tag_139\n      jumpi\n      mload(0x40)\n      0x08c379a000000000000000000000000000000000000000000000000000000000\n      dup2\n      mstore\n      0x04\n      add\n      tag_140\n      swap1\n      tag_98\n      jump\t// in\n    tag_140:\n      mload(0x40)\n      dup1\n      swap2\n      sub\n      swap1\n      revert\n    tag_139:\n        /* \"NewContract.sol\":2372:2381  _quantity */\n      dup2\n        /* \"NewContract.sol\":2359:2363  item */\n      dup2\n        /* \"NewContract.sol\":2359:2369  item.price */\n      0x02\n      add\n      sload\n        /* \"NewContract.sol\":2359:2381  item.price * _quantity */\n      tag_141\n      swap2\n      swap1\n      tag_100\n      jump\t// in\n    tag_141:\n        /* \"NewContract.sol\":2346:2355  msg.value */\n      callvalue\n        /* \"NewContract.sol\":2346:2381  msg.value >= item.price * _quantity */\n      lt\n      iszero\n        /* \"NewContract.sol\":2338:2406  require(msg.value >= item.price * _quantity, \"Insufficient payment\") */\n      tag_142\n      jumpi\n      mload(0x40)\n      0x08c379a000000000000000000000000000000000000000000000000000000000\n      dup2\n      mstore\n      0x04\n      add\n      tag_143\n      swap1\n      tag_144\n      jump\t// in\n    tag_143:\n      mload(0x40)\n      dup1\n      swap2\n      sub\n      swap1\n      revert\n    tag_142:\n        /* \"NewContract.sol\":2436:2445  _quantity */\n      dup2\n        /* \"NewContract.sol\":2419:2423  item */\n      dup2\n        /* \"NewContract.sol\":2419:2432  item.quantity */\n      0x03\n      add\n      0x00\n        /* \"NewContract.sol\":2419:2445  item.quantity -= _quantity */\n      dup3\n      dup3\n      sload\n      tag_145\n      swap2\n      swap1\n      tag_110\n      jump\t// in\n    tag_145:\n      swap3\n      pop\n      pop\n      dup2\n      swap1\n      sstore\n      pop\n        /* \"NewContract.sol\":2484:2491  _itemId */\n      dup3\n        /* \"NewContract.sol\":2475:2482  _seller */\n      dup5\n        /* \"NewContract.sol\":2461:2503  ItemPurchased(_seller, _itemId, _quantity) */\n      0xffffffffffffffffffffffffffffffffffffffff\n      and\n      0x1452773cf753d0d7c71ed9990f7c7e2bdde4a2d08d187b3647953877e400488d\n        /* \"NewContract.sol\":2493:2502  _quantity */\n      dup5\n        /* \"NewContract.sol\":2461:2503  ItemPurchased(_seller, _itemId, _quantity) */\n      mload(0x40)\n      tag_146\n      swap2\n      swap1\n      tag_112\n      jump\t// in\n    tag_146:\n      mload(0x40)\n      dup1\n      swap2\n      sub\n      swap1\n      log3\n        /* \"NewContract.sol\":2112:2511  {... */\n      pop\n        /* \"NewContract.sol\":2022:2511  function purchaseItem(address _seller, uint256 _itemId, uint256 _quantity) public payable {... */\n      pop\n      pop\n      pop\n      jump\t// out\n    tag_88:\n      pop\n      dup1\n      sload\n      tag_147\n      swap1\n      tag_55\n      jump\t// in\n    tag_147:\n      0x00\n      dup3\n      sstore\n      dup1\n      0x1f\n      lt\n      tag_149\n      jumpi\n      pop\n      jump(tag_148)\n    tag_149:\n      0x1f\n      add\n      0x20\n      swap1\n      div\n      swap1\n      0x00\n      mstore\n      keccak256(0x00, 0x20)\n      swap1\n      dup2\n      add\n      swap1\n      tag_150\n      swap2\n      swap1\n      tag_151\n      jump\t// in\n    tag_150:\n    tag_148:\n      pop\n      jump\t// out\n    tag_151:\n    tag_152:\n      dup1\n      dup3\n      gt\n      iszero\n      tag_153\n      jumpi\n      0x00\n      dup2\n      0x00\n      swap1\n      sstore\n      pop\n      0x01\n      add\n      jump(tag_152)\n    tag_153:\n      pop\n      swap1\n      jump\t// out\n        /* \"#utility.yul\":7:82   */\n    tag_154:\n        /* \"#utility.yul\":40:46   */\n      0x00\n        /* \"#utility.yul\":73:75   */\n      0x40\n        /* \"#utility.yul\":67:76   */\n      mload\n        /* \"#utility.yul\":57:76   */\n      swap1\n      pop\n        /* \"#utility.yul\":7:82   */\n      swap1\n      jump\t// out\n        /* \"#utility.yul\":88:205   */\n    tag_155:\n        /* \"#utility.yul\":197:198   */\n      0x00\n        /* \"#utility.yul\":194:195   */\n      dup1\n        /* \"#utility.yul\":187:199   */\n      revert\n        /* \"#utility.yul\":211:328   */\n    tag_156:\n        /* \"#utility.yul\":320:321   */\n      0x00\n        /* \"#utility.yul\":317:318   */\n      dup1\n        /* \"#utility.yul\":310:322   */\n      revert\n        /* \"#utility.yul\":334:460   */\n    tag_157:\n        /* \"#utility.yul\":371:378   */\n      0x00\n        /* \"#utility.yul\":411:453   */\n      0xffffffffffffffffffffffffffffffffffffffff\n        /* \"#utility.yul\":404:409   */\n      dup3\n        /* \"#utility.yul\":400:454   */\n      and\n        /* \"#utility.yul\":389:454   */\n      swap1\n      pop\n        /* \"#utility.yul\":334:460   */\n      swap2\n      swap1\n      pop\n      jump\t// out\n        /* \"#utility.yul\":466:562   */\n    tag_158:\n        /* \"#utility.yul\":503:510   */\n      0x00\n        /* \"#utility.yul\":532:556   */\n      tag_223\n        /* \"#utility.yul\":550:555   */\n      dup3\n        /* \"#utility.yul\":532:556   */\n      tag_157\n      jump\t// in\n    tag_223:\n        /* \"#utility.yul\":521:556   */\n      swap1\n      pop\n        /* \"#utility.yul\":466:562   */\n      swap2\n      swap1\n      pop\n      jump\t// out\n        /* \"#utility.yul\":568:690   */\n    tag_159:\n        /* \"#utility.yul\":641:665   */\n      tag_225\n        /* \"#utility.yul\":659:664   */\n      dup2\n        /* \"#utility.yul\":641:665   */\n      tag_158\n      jump\t// in\n    tag_225:\n        /* \"#utility.yul\":634:639   */\n      dup2\n        /* \"#utility.yul\":631:666   */\n      eq\n        /* \"#utility.yul\":621:684   */\n      tag_226\n      jumpi\n        /* \"#utility.yul\":680:681   */\n      0x00\n        /* \"#utility.yul\":677:678   */\n      dup1\n        /* \"#utility.yul\":670:682   */\n      revert\n        /* \"#utility.yul\":621:684   */\n    tag_226:\n        /* \"#utility.yul\":568:690   */\n      pop\n      jump\t// out\n        /* \"#utility.yul\":696:835   */\n    tag_160:\n        /* \"#utility.yul\":742:747   */\n      0x00\n        /* \"#utility.yul\":780:786   */\n      dup2\n        /* \"#utility.yul\":767:787   */\n      calldataload\n        /* \"#utility.yul\":758:787   */\n      swap1\n      pop\n        /* \"#utility.yul\":796:829   */\n      tag_228\n        /* \"#utility.yul\":823:828   */\n      dup2\n        /* \"#utility.yul\":796:829   */\n      tag_159\n      jump\t// in\n    tag_228:\n        /* \"#utility.yul\":696:835   */\n      swap3\n      swap2\n      pop\n      pop\n      jump\t// out\n        /* \"#utility.yul\":841:918   */\n    tag_161:\n        /* \"#utility.yul\":878:885   */\n      0x00\n        /* \"#utility.yul\":907:912   */\n      dup2\n        /* \"#utility.yul\":896:912   */\n      swap1\n      pop\n        /* \"#utility.yul\":841:918   */\n      swap2\n      swap1\n      pop\n      jump\t// out\n        /* \"#utility.yul\":924:1046   */\n    tag_162:\n        /* \"#utility.yul\":997:1021   */\n      tag_231\n        /* \"#utility.yul\":1015:1020   */\n      dup2\n        /* \"#utility.yul\":997:1021   */\n      tag_161\n      jump\t// in\n    tag_231:\n        /* \"#utility.yul\":990:995   */\n      dup2\n        /* \"#utility.yul\":987:1022   */\n      eq\n        /* \"#utility.yul\":977:1040   */\n      tag_232\n      jumpi\n        /* \"#utility.yul\":1036:1037   */\n      0x00\n        /* \"#utility.yul\":1033:1034   */\n      dup1\n        /* \"#utility.yul\":1026:1038   */\n      revert\n        /* \"#utility.yul\":977:1040   */\n    tag_232:\n        /* \"#utility.yul\":924:1046   */\n      pop\n      jump\t// out\n        /* \"#utility.yul\":1052:1191   */\n    tag_163:\n        /* \"#utility.yul\":1098:1103   */\n      0x00\n        /* \"#utility.yul\":1136:1142   */\n      dup2\n        /* \"#utility.yul\":1123:1143   */\n      calldataload\n        /* \"#utility.yul\":1114:1143   */\n      swap1\n      pop\n        /* \"#utility.yul\":1152:1185   */\n      tag_234\n        /* \"#utility.yul\":1179:1184   */\n      dup2\n        /* \"#utility.yul\":1152:1185   */\n      tag_162\n      jump\t// in\n    tag_234:\n        /* \"#utility.yul\":1052:1191   */\n      swap3\n      swap2\n      pop\n      pop\n      jump\t// out\n        /* \"#utility.yul\":1197:1671   */\n    tag_13:\n        /* \"#utility.yul\":1265:1271   */\n      0x00\n        /* \"#utility.yul\":1273:1279   */\n      dup1\n        /* \"#utility.yul\":1322:1324   */\n      0x40\n        /* \"#utility.yul\":1310:1319   */\n      dup4\n        /* \"#utility.yul\":1301:1308   */\n      dup6\n        /* \"#utility.yul\":1297:1320   */\n      sub\n        /* \"#utility.yul\":1293:1325   */\n      slt\n        /* \"#utility.yul\":1290:1409   */\n      iszero\n      tag_236\n      jumpi\n        /* \"#utility.yul\":1328:1407   */\n      tag_237\n      tag_155\n      jump\t// in\n    tag_237:\n        /* \"#utility.yul\":1290:1409   */\n    tag_236:\n        /* \"#utility.yul\":1448:1449   */\n      0x00\n        /* \"#utility.yul\":1473:1526   */\n      tag_238\n        /* \"#utility.yul\":1518:1525   */\n      dup6\n        /* \"#utility.yul\":1509:1515   */\n      dup3\n        /* \"#utility.yul\":1498:1507   */\n      dup7\n        /* \"#utility.yul\":1494:1516   */\n      add\n        /* \"#utility.yul\":1473:1526   */\n      tag_160\n      jump\t// in\n    tag_238:\n        /* \"#utility.yul\":1463:1526   */\n      swap3\n      pop\n        /* \"#utility.yul\":1419:1536   */\n      pop\n        /* \"#utility.yul\":1575:1577   */\n      0x20\n        /* \"#utility.yul\":1601:1654   */\n      tag_239\n        /* \"#utility.yul\":1646:1653   */\n      dup6\n        /* \"#utility.yul\":1637:1643   */\n      dup3\n        /* \"#utility.yul\":1626:1635   */\n      dup7\n        /* \"#utility.yul\":1622:1644   */\n      add\n        /* \"#utility.yul\":1601:1654   */\n      tag_163\n      jump\t// in\n    tag_239:\n        /* \"#utility.yul\":1591:1654   */\n      swap2\n      pop\n        /* \"#utility.yul\":1546:1664   */\n      pop\n        /* \"#utility.yul\":1197:1671   */\n      swap3\n      pop\n      swap3\n      swap1\n      pop\n      jump\t// out\n        /* \"#utility.yul\":1677:1776   */\n    tag_164:\n        /* \"#utility.yul\":1729:1735   */\n      0x00\n        /* \"#utility.yul\":1763:1768   */\n      dup2\n        /* \"#utility.yul\":1757:1769   */\n      mload\n        /* \"#utility.yul\":1747:1769   */\n      swap1\n      pop\n        /* \"#utility.yul\":1677:1776   */\n      swap2\n      swap1\n      pop\n      jump\t// out\n        /* \"#utility.yul\":1782:1951   */\n    tag_165:\n        /* \"#utility.yul\":1866:1877   */\n      0x00\n        /* \"#utility.yul\":1900:1906   */\n      dup3\n        /* \"#utility.yul\":1895:1898   */\n      dup3\n        /* \"#utility.yul\":1888:1907   */\n      mstore\n        /* \"#utility.yul\":1940:1944   */\n      0x20\n        /* \"#utility.yul\":1935:1938   */\n      dup3\n        /* \"#utility.yul\":1931:1945   */\n      add\n        /* \"#utility.yul\":1916:1945   */\n      swap1\n      pop\n        /* \"#utility.yul\":1782:1951   */\n      swap3\n      swap2\n      pop\n      pop\n      jump\t// out\n        /* \"#utility.yul\":1957:2203   */\n    tag_166:\n        /* \"#utility.yul\":2038:2039   */\n      0x00\n        /* \"#utility.yul\":2048:2161   */\n    tag_243:\n        /* \"#utility.yul\":2062:2068   */\n      dup4\n        /* \"#utility.yul\":2059:2060   */\n      dup2\n        /* \"#utility.yul\":2056:2069   */\n      lt\n        /* \"#utility.yul\":2048:2161   */\n      iszero\n      tag_245\n      jumpi\n        /* \"#utility.yul\":2147:2148   */\n      dup1\n        /* \"#utility.yul\":2142:2145   */\n      dup3\n        /* \"#utility.yul\":2138:2149   */\n      add\n        /* \"#utility.yul\":2132:2150   */\n      mload\n        /* \"#utility.yul\":2128:2129   */\n      dup2\n        /* \"#utility.yul\":2123:2126   */\n      dup5\n        /* \"#utility.yul\":2119:2130   */\n      add\n        /* \"#utility.yul\":2112:2151   */\n      mstore\n        /* \"#utility.yul\":2084:2086   */\n      0x20\n        /* \"#utility.yul\":2081:2082   */\n      dup2\n        /* \"#utility.yul\":2077:2087   */\n      add\n        /* \"#utility.yul\":2072:2087   */\n      swap1\n      pop\n        /* \"#utility.yul\":2048:2161   */\n      jump(tag_243)\n    tag_245:\n        /* \"#utility.yul\":2195:2196   */\n      0x00\n        /* \"#utility.yul\":2186:2192   */\n      dup5\n        /* \"#utility.yul\":2181:2184   */\n      dup5\n        /* \"#utility.yul\":2177:2193   */\n      add\n        /* \"#utility.yul\":2170:2197   */\n      mstore\n        /* \"#utility.yul\":2019:2203   */\n      pop\n        /* \"#utility.yul\":1957:2203   */\n      pop\n      pop\n      pop\n      jump\t// out\n        /* \"#utility.yul\":2209:2311   */\n    tag_167:\n        /* \"#utility.yul\":2250:2256   */\n      0x00\n        /* \"#utility.yul\":2301:2303   */\n      0x1f\n        /* \"#utility.yul\":2297:2304   */\n      not\n        /* \"#utility.yul\":2292:2294   */\n      0x1f\n        /* \"#utility.yul\":2285:2290   */\n      dup4\n        /* \"#utility.yul\":2281:2295   */\n      add\n        /* \"#utility.yul\":2277:2305   */\n      and\n        /* \"#utility.yul\":2267:2305   */\n      swap1\n      pop\n        /* \"#utility.yul\":2209:2311   */\n      swap2\n      swap1\n      pop\n      jump\t// out\n        /* \"#utility.yul\":2317:2694   */\n    tag_168:\n        /* \"#utility.yul\":2405:2408   */\n      0x00\n        /* \"#utility.yul\":2433:2472   */\n      tag_248\n        /* \"#utility.yul\":2466:2471   */\n      dup3\n        /* \"#utility.yul\":2433:2472   */\n      tag_164\n      jump\t// in\n    tag_248:\n        /* \"#utility.yul\":2488:2559   */\n      tag_249\n        /* \"#utility.yul\":2552:2558   */\n      dup2\n        /* \"#utility.yul\":2547:2550   */\n      dup6\n        /* \"#utility.yul\":2488:2559   */\n      tag_165\n      jump\t// in\n    tag_249:\n        /* \"#utility.yul\":2481:2559   */\n      swap4\n      pop\n        /* \"#utility.yul\":2568:2633   */\n      tag_250\n        /* \"#utility.yul\":2626:2632   */\n      dup2\n        /* \"#utility.yul\":2621:2624   */\n      dup6\n        /* \"#utility.yul\":2614:2618   */\n      0x20\n        /* \"#utility.yul\":2607:2612   */\n      dup7\n        /* \"#utility.yul\":2603:2619   */\n      add\n        /* \"#utility.yul\":2568:2633   */\n      tag_166\n      jump\t// in\n    tag_250:\n        /* \"#utility.yul\":2658:2687   */\n      tag_251\n        /* \"#utility.yul\":2680:2686   */\n      dup2\n        /* \"#utility.yul\":2658:2687   */\n      tag_167\n      jump\t// in\n    tag_251:\n        /* \"#utility.yul\":2653:2656   */\n      dup5\n        /* \"#utility.yul\":2649:2688   */\n      add\n        /* \"#utility.yul\":2642:2688   */\n      swap2\n      pop\n        /* \"#utility.yul\":2409:2694   */\n      pop\n        /* \"#utility.yul\":2317:2694   */\n      swap3\n      swap2\n      pop\n      pop\n      jump\t// out\n        /* \"#utility.yul\":2700:2818   */\n    tag_169:\n        /* \"#utility.yul\":2787:2811   */\n      tag_253\n        /* \"#utility.yul\":2805:2810   */\n      dup2\n        /* \"#utility.yul\":2787:2811   */\n      tag_161\n      jump\t// in\n    tag_253:\n        /* \"#utility.yul\":2782:2785   */\n      dup3\n        /* \"#utility.yul\":2775:2812   */\n      mstore\n        /* \"#utility.yul\":2700:2818   */\n      pop\n      pop\n      jump\t// out\n        /* \"#utility.yul\":2824:2942   */\n    tag_170:\n        /* \"#utility.yul\":2911:2935   */\n      tag_255\n        /* \"#utility.yul\":2929:2934   */\n      dup2\n        /* \"#utility.yul\":2911:2935   */\n      tag_158\n      jump\t// in\n    tag_255:\n        /* \"#utility.yul\":2906:2909   */\n      dup3\n        /* \"#utility.yul\":2899:2936   */\n      mstore\n        /* \"#utility.yul\":2824:2942   */\n      pop\n      pop\n      jump\t// out\n        /* \"#utility.yul\":2948:3794   */\n    tag_16:\n        /* \"#utility.yul\":3193:3197   */\n      0x00\n        /* \"#utility.yul\":3231:3234   */\n      0xa0\n        /* \"#utility.yul\":3220:3229   */\n      dup3\n        /* \"#utility.yul\":3216:3235   */\n      add\n        /* \"#utility.yul\":3208:3235   */\n      swap1\n      pop\n        /* \"#utility.yul\":3281:3290   */\n      dup2\n        /* \"#utility.yul\":3275:3279   */\n      dup2\n        /* \"#utility.yul\":3271:3291   */\n      sub\n        /* \"#utility.yul\":3267:3268   */\n      0x00\n        /* \"#utility.yul\":3256:3265   */\n      dup4\n        /* \"#utility.yul\":3252:3269   */\n      add\n        /* \"#utility.yul\":3245:3292   */\n      mstore\n        /* \"#utility.yul\":3309:3387   */\n      tag_257\n        /* \"#utility.yul\":3382:3386   */\n      dup2\n        /* \"#utility.yul\":3373:3379   */\n      dup9\n        /* \"#utility.yul\":3309:3387   */\n      tag_168\n      jump\t// in\n    tag_257:\n        /* \"#utility.yul\":3301:3387   */\n      swap1\n      pop\n        /* \"#utility.yul\":3434:3443   */\n      dup2\n        /* \"#utility.yul\":3428:3432   */\n      dup2\n        /* \"#utility.yul\":3424:3444   */\n      sub\n        /* \"#utility.yul\":3419:3421   */\n      0x20\n        /* \"#utility.yul\":3408:3417   */\n      dup4\n        /* \"#utility.yul\":3404:3422   */\n      add\n        /* \"#utility.yul\":3397:3445   */\n      mstore\n        /* \"#utility.yul\":3462:3540   */\n      tag_258\n        /* \"#utility.yul\":3535:3539   */\n      dup2\n        /* \"#utility.yul\":3526:3532   */\n      dup8\n        /* \"#utility.yul\":3462:3540   */\n      tag_168\n      jump\t// in\n    tag_258:\n        /* \"#utility.yul\":3454:3540   */\n      swap1\n      pop\n        /* \"#utility.yul\":3550:3622   */\n      tag_259\n        /* \"#utility.yul\":3618:3620   */\n      0x40\n        /* \"#utility.yul\":3607:3616   */\n      dup4\n        /* \"#utility.yul\":3603:3621   */\n      add\n        /* \"#utility.yul\":3594:3600   */\n      dup7\n        /* \"#utility.yul\":3550:3622   */\n      tag_169\n      jump\t// in\n    tag_259:\n        /* \"#utility.yul\":3632:3704   */\n      tag_260\n        /* \"#utility.yul\":3700:3702   */\n      0x60\n        /* \"#utility.yul\":3689:3698   */\n      dup4\n        /* \"#utility.yul\":3685:3703   */\n      add\n        /* \"#utility.yul\":3676:3682   */\n      dup6\n        /* \"#utility.yul\":3632:3704   */\n      tag_169\n      jump\t// in\n    tag_260:\n        /* \"#utility.yul\":3714:3787   */\n      tag_261\n        /* \"#utility.yul\":3782:3785   */\n      0x80\n        /* \"#utility.yul\":3771:3780   */\n      dup4\n        /* \"#utility.yul\":3767:3786   */\n      add\n        /* \"#utility.yul\":3758:3764   */\n      dup5\n        /* \"#utility.yul\":3714:3787   */\n      tag_170\n      jump\t// in\n    tag_261:\n        /* \"#utility.yul\":2948:3794   */\n      swap7\n      swap6\n      pop\n      pop\n      pop\n      pop\n      pop\n      pop\n      jump\t// out\n        /* \"#utility.yul\":3800:3917   */\n    tag_171:\n        /* \"#utility.yul\":3909:3910   */\n      0x00\n        /* \"#utility.yul\":3906:3907   */\n      dup1\n        /* \"#utility.yul\":3899:3911   */\n      revert\n        /* \"#utility.yul\":3923:4040   */\n    tag_172:\n        /* \"#utility.yul\":4032:4033   */\n      0x00\n        /* \"#utility.yul\":4029:4030   */\n      dup1\n        /* \"#utility.yul\":4022:4034   */\n      revert\n        /* \"#utility.yul\":4046:4226   */\n    tag_173:\n        /* \"#utility.yul\":4094:4171   */\n      0x4e487b7100000000000000000000000000000000000000000000000000000000\n        /* \"#utility.yul\":4091:4092   */\n      0x00\n        /* \"#utility.yul\":4084:4172   */\n      mstore\n        /* \"#utility.yul\":4191:4195   */\n      0x41\n        /* \"#utility.yul\":4188:4189   */\n      0x04\n        /* \"#utility.yul\":4181:4196   */\n      mstore\n        /* \"#utility.yul\":4215:4219   */\n      0x24\n        /* \"#utility.yul\":4212:4213   */\n      0x00\n        /* \"#utility.yul\":4205:4220   */\n      revert\n        /* \"#utility.yul\":4232:4513   */\n    tag_174:\n        /* \"#utility.yul\":4315:4342   */\n      tag_266\n        /* \"#utility.yul\":4337:4341   */\n      dup3\n        /* \"#utility.yul\":4315:4342   */\n      tag_167\n      jump\t// in\n    tag_266:\n        /* \"#utility.yul\":4307:4313   */\n      dup2\n        /* \"#utility.yul\":4303:4343   */\n      add\n        /* \"#utility.yul\":4445:4451   */\n      dup2\n        /* \"#utility.yul\":4433:4443   */\n      dup2\n        /* \"#utility.yul\":4430:4452   */\n      lt\n        /* \"#utility.yul\":4409:4427   */\n      0xffffffffffffffff\n        /* \"#utility.yul\":4397:4407   */\n      dup3\n        /* \"#utility.yul\":4394:4428   */\n      gt\n        /* \"#utility.yul\":4391:4453   */\n      or\n        /* \"#utility.yul\":4388:4476   */\n      iszero\n      tag_267\n      jumpi\n        /* \"#utility.yul\":4456:4474   */\n      tag_268\n      tag_173\n      jump\t// in\n    tag_268:\n        /* \"#utility.yul\":4388:4476   */\n    tag_267:\n        /* \"#utility.yul\":4496:4506   */\n      dup1\n        /* \"#utility.yul\":4492:4494   */\n      0x40\n        /* \"#utility.yul\":4485:4507   */\n      mstore\n        /* \"#utility.yul\":4275:4513   */\n      pop\n        /* \"#utility.yul\":4232:4513   */\n      pop\n      pop\n      jump\t// out\n        /* \"#utility.yul\":4519:4648   */\n    tag_175:\n        /* \"#utility.yul\":4553:4559   */\n      0x00\n        /* \"#utility.yul\":4580:4600   */\n      tag_270\n      tag_154\n      jump\t// in\n    tag_270:\n        /* \"#utility.yul\":4570:4600   */\n      swap1\n      pop\n        /* \"#utility.yul\":4609:4642   */\n      tag_271\n        /* \"#utility.yul\":4637:4641   */\n      dup3\n        /* \"#utility.yul\":4629:4635   */\n      dup3\n        /* \"#utility.yul\":4609:4642   */\n      tag_174\n      jump\t// in\n    tag_271:\n        /* \"#utility.yul\":4519:4648   */\n      swap2\n      swap1\n      pop\n      jump\t// out\n        /* \"#utility.yul\":4654:4961   */\n    tag_176:\n        /* \"#utility.yul\":4715:4719   */\n      0x00\n        /* \"#utility.yul\":4805:4823   */\n      0xffffffffffffffff\n        /* \"#utility.yul\":4797:4803   */\n      dup3\n        /* \"#utility.yul\":4794:4824   */\n      gt\n        /* \"#utility.yul\":4791:4847   */\n      iszero\n      tag_273\n      jumpi\n        /* \"#utility.yul\":4827:4845   */\n      tag_274\n      tag_173\n      jump\t// in\n    tag_274:\n        /* \"#utility.yul\":4791:4847   */\n    tag_273:\n        /* \"#utility.yul\":4865:4894   */\n      tag_275\n        /* \"#utility.yul\":4887:4893   */\n      dup3\n        /* \"#utility.yul\":4865:4894   */\n      tag_167\n      jump\t// in\n    tag_275:\n        /* \"#utility.yul\":4857:4894   */\n      swap1\n      pop\n        /* \"#utility.yul\":4949:4953   */\n      0x20\n        /* \"#utility.yul\":4943:4947   */\n      dup2\n        /* \"#utility.yul\":4939:4954   */\n      add\n        /* \"#utility.yul\":4931:4954   */\n      swap1\n      pop\n        /* \"#utility.yul\":4654:4961   */\n      swap2\n      swap1\n      pop\n      jump\t// out\n        /* \"#utility.yul\":4967:5113   */\n    tag_177:\n        /* \"#utility.yul\":5064:5070   */\n      dup3\n        /* \"#utility.yul\":5059:5062   */\n      dup2\n        /* \"#utility.yul\":5054:5057   */\n      dup4\n        /* \"#utility.yul\":5041:5071   */\n      calldatacopy\n        /* \"#utility.yul\":5105:5106   */\n      0x00\n        /* \"#utility.yul\":5096:5102   */\n      dup4\n        /* \"#utility.yul\":5091:5094   */\n      dup4\n        /* \"#utility.yul\":5087:5103   */\n      add\n        /* \"#utility.yul\":5080:5107   */\n      mstore\n        /* \"#utility.yul\":4967:5113   */\n      pop\n      pop\n      pop\n      jump\t// out\n        /* \"#utility.yul\":5119:5542   */\n    tag_178:\n        /* \"#utility.yul\":5196:5201   */\n      0x00\n        /* \"#utility.yul\":5221:5286   */\n      tag_278\n        /* \"#utility.yul\":5237:5285   */\n      tag_279\n        /* \"#utility.yul\":5278:5284   */\n      dup5\n        /* \"#utility.yul\":5237:5285   */\n      tag_176\n      jump\t// in\n    tag_279:\n        /* \"#utility.yul\":5221:5286   */\n      tag_175\n      jump\t// in\n    tag_278:\n        /* \"#utility.yul\":5212:5286   */\n      swap1\n      pop\n        /* \"#utility.yul\":5309:5315   */\n      dup3\n        /* \"#utility.yul\":5302:5307   */\n      dup2\n        /* \"#utility.yul\":5295:5316   */\n      mstore\n        /* \"#utility.yul\":5347:5351   */\n      0x20\n        /* \"#utility.yul\":5340:5345   */\n      dup2\n        /* \"#utility.yul\":5336:5352   */\n      add\n        /* \"#utility.yul\":5385:5388   */\n      dup5\n        /* \"#utility.yul\":5376:5382   */\n      dup5\n        /* \"#utility.yul\":5371:5374   */\n      dup5\n        /* \"#utility.yul\":5367:5383   */\n      add\n        /* \"#utility.yul\":5364:5389   */\n      gt\n        /* \"#utility.yul\":5361:5473   */\n      iszero\n      tag_280\n      jumpi\n        /* \"#utility.yul\":5392:5471   */\n      tag_281\n      tag_172\n      jump\t// in\n    tag_281:\n        /* \"#utility.yul\":5361:5473   */\n    tag_280:\n        /* \"#utility.yul\":5482:5536   */\n      tag_282\n        /* \"#utility.yul\":5529:5535   */\n      dup5\n        /* \"#utility.yul\":5524:5527   */\n      dup3\n        /* \"#utility.yul\":5519:5522   */\n      dup6\n        /* \"#utility.yul\":5482:5536   */\n      tag_177\n      jump\t// in\n    tag_282:\n        /* \"#utility.yul\":5202:5542   */\n      pop\n        /* \"#utility.yul\":5119:5542   */\n      swap4\n      swap3\n      pop\n      pop\n      pop\n      jump\t// out\n        /* \"#utility.yul\":5561:5899   */\n    tag_179:\n        /* \"#utility.yul\":5616:5621   */\n      0x00\n        /* \"#utility.yul\":5665:5668   */\n      dup3\n        /* \"#utility.yul\":5658:5662   */\n      0x1f\n        /* \"#utility.yul\":5650:5656   */\n      dup4\n        /* \"#utility.yul\":5646:5663   */\n      add\n        /* \"#utility.yul\":5642:5669   */\n      slt\n        /* \"#utility.yul\":5632:5754   */\n      tag_284\n      jumpi\n        /* \"#utility.yul\":5673:5752   */\n      tag_285\n      tag_171\n      jump\t// in\n    tag_285:\n        /* \"#utility.yul\":5632:5754   */\n    tag_284:\n        /* \"#utility.yul\":5790:5796   */\n      dup2\n        /* \"#utility.yul\":5777:5797   */\n      calldataload\n        /* \"#utility.yul\":5815:5893   */\n      tag_286\n        /* \"#utility.yul\":5889:5892   */\n      dup5\n        /* \"#utility.yul\":5881:5887   */\n      dup3\n        /* \"#utility.yul\":5874:5878   */\n      0x20\n        /* \"#utility.yul\":5866:5872   */\n      dup7\n        /* \"#utility.yul\":5862:5879   */\n      add\n        /* \"#utility.yul\":5815:5893   */\n      tag_178\n      jump\t// in\n    tag_286:\n        /* \"#utility.yul\":5806:5893   */\n      swap2\n      pop\n        /* \"#utility.yul\":5622:5899   */\n      pop\n        /* \"#utility.yul\":5561:5899   */\n      swap3\n      swap2\n      pop\n      pop\n      jump\t// out\n        /* \"#utility.yul\":5905:6557   */\n    tag_20:\n        /* \"#utility.yul\":5982:5988   */\n      0x00\n        /* \"#utility.yul\":5990:5996   */\n      dup1\n        /* \"#utility.yul\":6039:6041   */\n      0x40\n        /* \"#utility.yul\":6027:6036   */\n      dup4\n        /* \"#utility.yul\":6018:6025   */\n      dup6\n        /* \"#utility.yul\":6014:6037   */\n      sub\n        /* \"#utility.yul\":6010:6042   */\n      slt\n        /* \"#utility.yul\":6007:6126   */\n      iszero\n      tag_288\n      jumpi\n        /* \"#utility.yul\":6045:6124   */\n      tag_289\n      tag_155\n      jump\t// in\n    tag_289:\n        /* \"#utility.yul\":6007:6126   */\n    tag_288:\n        /* \"#utility.yul\":6165:6166   */\n      0x00\n        /* \"#utility.yul\":6190:6243   */\n      tag_290\n        /* \"#utility.yul\":6235:6242   */\n      dup6\n        /* \"#utility.yul\":6226:6232   */\n      dup3\n        /* \"#utility.yul\":6215:6224   */\n      dup7\n        /* \"#utility.yul\":6211:6233   */\n      add\n        /* \"#utility.yul\":6190:6243   */\n      tag_160\n      jump\t// in\n    tag_290:\n        /* \"#utility.yul\":6180:6243   */\n      swap3\n      pop\n        /* \"#utility.yul\":6136:6253   */\n      pop\n        /* \"#utility.yul\":6320:6322   */\n      0x20\n        /* \"#utility.yul\":6309:6318   */\n      dup4\n        /* \"#utility.yul\":6305:6323   */\n      add\n        /* \"#utility.yul\":6292:6324   */\n      calldataload\n        /* \"#utility.yul\":6351:6369   */\n      0xffffffffffffffff\n        /* \"#utility.yul\":6343:6349   */\n      dup2\n        /* \"#utility.yul\":6340:6370   */\n      gt\n        /* \"#utility.yul\":6337:6454   */\n      iszero\n      tag_291\n      jumpi\n        /* \"#utility.yul\":6373:6452   */\n      tag_292\n      tag_156\n      jump\t// in\n    tag_292:\n        /* \"#utility.yul\":6337:6454   */\n    tag_291:\n        /* \"#utility.yul\":6478:6540   */\n      tag_293\n        /* \"#utility.yul\":6532:6539   */\n      dup6\n        /* \"#utility.yul\":6523:6529   */\n      dup3\n        /* \"#utility.yul\":6512:6521   */\n      dup7\n        /* \"#utility.yul\":6508:6530   */\n      add\n        /* \"#utility.yul\":6478:6540   */\n      tag_179\n      jump\t// in\n    tag_293:\n        /* \"#utility.yul\":6468:6540   */\n      swap2\n      pop\n        /* \"#utility.yul\":6263:6550   */\n      pop\n        /* \"#utility.yul\":5905:6557   */\n      swap3\n      pop\n      swap3\n      swap1\n      pop\n      jump\t// out\n        /* \"#utility.yul\":6563:6892   */\n    tag_25:\n        /* \"#utility.yul\":6622:6628   */\n      0x00\n        /* \"#utility.yul\":6671:6673   */\n      0x20\n        /* \"#utility.yul\":6659:6668   */\n      dup3\n        /* \"#utility.yul\":6650:6657   */\n      dup5\n        /* \"#utility.yul\":6646:6669   */\n      sub\n        /* \"#utility.yul\":6642:6674   */\n      slt\n        /* \"#utility.yul\":6639:6758   */\n      iszero\n      tag_295\n      jumpi\n        /* \"#utility.yul\":6677:6756   */\n      tag_296\n      tag_155\n      jump\t// in\n    tag_296:\n        /* \"#utility.yul\":6639:6758   */\n    tag_295:\n        /* \"#utility.yul\":6797:6798   */\n      0x00\n        /* \"#utility.yul\":6822:6875   */\n      tag_297\n        /* \"#utility.yul\":6867:6874   */\n      dup5\n        /* \"#utility.yul\":6858:6864   */\n      dup3\n        /* \"#utility.yul\":6847:6856   */\n      dup6\n        /* \"#utility.yul\":6843:6865   */\n      add\n        /* \"#utility.yul\":6822:6875   */\n      tag_163\n      jump\t// in\n    tag_297:\n        /* \"#utility.yul\":6812:6875   */\n      swap2\n      pop\n        /* \"#utility.yul\":6768:6885   */\n      pop\n        /* \"#utility.yul\":6563:6892   */\n      swap3\n      swap2\n      pop\n      pop\n      jump\t// out\n        /* \"#utility.yul\":6898:7663   */\n    tag_30:\n        /* \"#utility.yul\":6984:6990   */\n      0x00\n        /* \"#utility.yul\":6992:6998   */\n      dup1\n        /* \"#utility.yul\":7000:7006   */\n      0x00\n        /* \"#utility.yul\":7008:7014   */\n      dup1\n        /* \"#utility.yul\":7057:7060   */\n      0x80\n        /* \"#utility.yul\":7045:7054   */\n      dup6\n        /* \"#utility.yul\":7036:7043   */\n      dup8\n        /* \"#utility.yul\":7032:7055   */\n      sub\n        /* \"#utility.yul\":7028:7061   */\n      slt\n        /* \"#utility.yul\":7025:7145   */\n      iszero\n      tag_299\n      jumpi\n        /* \"#utility.yul\":7064:7143   */\n      tag_300\n      tag_155\n      jump\t// in\n    tag_300:\n        /* \"#utility.yul\":7025:7145   */\n    tag_299:\n        /* \"#utility.yul\":7184:7185   */\n      0x00\n        /* \"#utility.yul\":7209:7262   */\n      tag_301\n        /* \"#utility.yul\":7254:7261   */\n      dup8\n        /* \"#utility.yul\":7245:7251   */\n      dup3\n        /* \"#utility.yul\":7234:7243   */\n      dup9\n        /* \"#utility.yul\":7230:7252   */\n      add\n        /* \"#utility.yul\":7209:7262   */\n      tag_160\n      jump\t// in\n    tag_301:\n        /* \"#utility.yul\":7199:7262   */\n      swap5\n      pop\n        /* \"#utility.yul\":7155:7272   */\n      pop\n        /* \"#utility.yul\":7311:7313   */\n      0x20\n        /* \"#utility.yul\":7337:7390   */\n      tag_302\n        /* \"#utility.yul\":7382:7389   */\n      dup8\n        /* \"#utility.yul\":7373:7379   */\n      dup3\n        /* \"#utility.yul\":7362:7371   */\n      dup9\n        /* \"#utility.yul\":7358:7380   */\n      add\n        /* \"#utility.yul\":7337:7390   */\n      tag_163\n      jump\t// in\n    tag_302:\n        /* \"#utility.yul\":7327:7390   */\n      swap4\n      pop\n        /* \"#utility.yul\":7282:7400   */\n      pop\n        /* \"#utility.yul\":7439:7441   */\n      0x40\n        /* \"#utility.yul\":7465:7518   */\n      tag_303\n        /* \"#utility.yul\":7510:7517   */\n      dup8\n        /* \"#utility.yul\":7501:7507   */\n      dup3\n        /* \"#utility.yul\":7490:7499   */\n      dup9\n        /* \"#utility.yul\":7486:7508   */\n      add\n        /* \"#utility.yul\":7465:7518   */\n      tag_163\n      jump\t// in\n    tag_303:\n        /* \"#utility.yul\":7455:7518   */\n      swap3\n      pop\n        /* \"#utility.yul\":7410:7528   */\n      pop\n        /* \"#utility.yul\":7567:7569   */\n      0x60\n        /* \"#utility.yul\":7593:7646   */\n      tag_304\n        /* \"#utility.yul\":7638:7645   */\n      dup8\n        /* \"#utility.yul\":7629:7635   */\n      dup3\n        /* \"#utility.yul\":7618:7627   */\n      dup9\n        /* \"#utility.yul\":7614:7636   */\n      add\n        /* \"#utility.yul\":7593:7646   */\n      tag_160\n      jump\t// in\n    tag_304:\n        /* \"#utility.yul\":7583:7646   */\n      swap2\n      pop\n        /* \"#utility.yul\":7538:7656   */\n      pop\n        /* \"#utility.yul\":6898:7663   */\n      swap3\n      swap6\n      swap2\n      swap5\n      pop\n      swap3\n      pop\n      jump\t// out\n        /* \"#utility.yul\":7669:7977   */\n    tag_180:\n        /* \"#utility.yul\":7731:7735   */\n      0x00\n        /* \"#utility.yul\":7821:7839   */\n      0xffffffffffffffff\n        /* \"#utility.yul\":7813:7819   */\n      dup3\n        /* \"#utility.yul\":7810:7840   */\n      gt\n        /* \"#utility.yul\":7807:7863   */\n      iszero\n      tag_306\n      jumpi\n        /* \"#utility.yul\":7843:7861   */\n      tag_307\n      tag_173\n      jump\t// in\n    tag_307:\n        /* \"#utility.yul\":7807:7863   */\n    tag_306:\n        /* \"#utility.yul\":7881:7910   */\n      tag_308\n        /* \"#utility.yul\":7903:7909   */\n      dup3\n        /* \"#utility.yul\":7881:7910   */\n      tag_167\n      jump\t// in\n    tag_308:\n        /* \"#utility.yul\":7873:7910   */\n      swap1\n      pop\n        /* \"#utility.yul\":7965:7969   */\n      0x20\n        /* \"#utility.yul\":7959:7963   */\n      dup2\n        /* \"#utility.yul\":7955:7970   */\n      add\n        /* \"#utility.yul\":7947:7970   */\n      swap1\n      pop\n        /* \"#utility.yul\":7669:7977   */\n      swap2\n      swap1\n      pop\n      jump\t// out\n        /* \"#utility.yul\":7983:8408   */\n    tag_181:\n        /* \"#utility.yul\":8061:8066   */\n      0x00\n        /* \"#utility.yul\":8086:8152   */\n      tag_310\n        /* \"#utility.yul\":8102:8151   */\n      tag_311\n        /* \"#utility.yul\":8144:8150   */\n      dup5\n        /* \"#utility.yul\":8102:8151   */\n      tag_180\n      jump\t// in\n    tag_311:\n        /* \"#utility.yul\":8086:8152   */\n      tag_175\n      jump\t// in\n    tag_310:\n        /* \"#utility.yul\":8077:8152   */\n      swap1\n      pop\n        /* \"#utility.yul\":8175:8181   */\n      dup3\n        /* \"#utility.yul\":8168:8173   */\n      dup2\n        /* \"#utility.yul\":8161:8182   */\n      mstore\n        /* \"#utility.yul\":8213:8217   */\n      0x20\n        /* \"#utility.yul\":8206:8211   */\n      dup2\n        /* \"#utility.yul\":8202:8218   */\n      add\n        /* \"#utility.yul\":8251:8254   */\n      dup5\n        /* \"#utility.yul\":8242:8248   */\n      dup5\n        /* \"#utility.yul\":8237:8240   */\n      dup5\n        /* \"#utility.yul\":8233:8249   */\n      add\n        /* \"#utility.yul\":8230:8255   */\n      gt\n        /* \"#utility.yul\":8227:8339   */\n      iszero\n      tag_312\n      jumpi\n        /* \"#utility.yul\":8258:8337   */\n      tag_313\n      tag_172\n      jump\t// in\n    tag_313:\n        /* \"#utility.yul\":8227:8339   */\n    tag_312:\n        /* \"#utility.yul\":8348:8402   */\n      tag_314\n        /* \"#utility.yul\":8395:8401   */\n      dup5\n        /* \"#utility.yul\":8390:8393   */\n      dup3\n        /* \"#utility.yul\":8385:8388   */\n      dup6\n        /* \"#utility.yul\":8348:8402   */\n      tag_177\n      jump\t// in\n    tag_314:\n        /* \"#utility.yul\":8067:8408   */\n      pop\n        /* \"#utility.yul\":7983:8408   */\n      swap4\n      swap3\n      pop\n      pop\n      pop\n      jump\t// out\n        /* \"#utility.yul\":8428:8768   */\n    tag_182:\n        /* \"#utility.yul\":8484:8489   */\n      0x00\n        /* \"#utility.yul\":8533:8536   */\n      dup3\n        /* \"#utility.yul\":8526:8530   */\n      0x1f\n        /* \"#utility.yul\":8518:8524   */\n      dup4\n        /* \"#utility.yul\":8514:8531   */\n      add\n        /* \"#utility.yul\":8510:8537   */\n      slt\n        /* \"#utility.yul\":8500:8622   */\n      tag_316\n      jumpi\n        /* \"#utility.yul\":8541:8620   */\n      tag_317\n      tag_171\n      jump\t// in\n    tag_317:\n        /* \"#utility.yul\":8500:8622   */\n    tag_316:\n        /* \"#utility.yul\":8658:8664   */\n      dup2\n        /* \"#utility.yul\":8645:8665   */\n      calldataload\n        /* \"#utility.yul\":8683:8762   */\n      tag_318\n        /* \"#utility.yul\":8758:8761   */\n      dup5\n        /* \"#utility.yul\":8750:8756   */\n      dup3\n        /* \"#utility.yul\":8743:8747   */\n      0x20\n        /* \"#utility.yul\":8735:8741   */\n      dup7\n        /* \"#utility.yul\":8731:8748   */\n      add\n        /* \"#utility.yul\":8683:8762   */\n      tag_181\n      jump\t// in\n    tag_318:\n        /* \"#utility.yul\":8674:8762   */\n      swap2\n      pop\n        /* \"#utility.yul\":8490:8768   */\n      pop\n        /* \"#utility.yul\":8428:8768   */\n      swap3\n      swap2\n      pop\n      pop\n      jump\t// out\n        /* \"#utility.yul\":8774:10045   */\n    tag_35:\n        /* \"#utility.yul\":8889:8895   */\n      0x00\n        /* \"#utility.yul\":8897:8903   */\n      dup1\n        /* \"#utility.yul\":8905:8911   */\n      0x00\n        /* \"#utility.yul\":8913:8919   */\n      dup1\n        /* \"#utility.yul\":8921:8927   */\n      0x00\n        /* \"#utility.yul\":8970:8973   */\n      0xa0\n        /* \"#utility.yul\":8958:8967   */\n      dup7\n        /* \"#utility.yul\":8949:8956   */\n      dup9\n        /* \"#utility.yul\":8945:8968   */\n      sub\n        /* \"#utility.yul\":8941:8974   */\n      slt\n        /* \"#utility.yul\":8938:9058   */\n      iszero\n      tag_320\n      jumpi\n        /* \"#utility.yul\":8977:9056   */\n      tag_321\n      tag_155\n      jump\t// in\n    tag_321:\n        /* \"#utility.yul\":8938:9058   */\n    tag_320:\n        /* \"#utility.yul\":9097:9098   */\n      0x00\n        /* \"#utility.yul\":9122:9175   */\n      tag_322\n        /* \"#utility.yul\":9167:9174   */\n      dup9\n        /* \"#utility.yul\":9158:9164   */\n      dup3\n        /* \"#utility.yul\":9147:9156   */\n      dup10\n        /* \"#utility.yul\":9143:9165   */\n      add\n        /* \"#utility.yul\":9122:9175   */\n      tag_163\n      jump\t// in\n    tag_322:\n        /* \"#utility.yul\":9112:9175   */\n      swap6\n      pop\n        /* \"#utility.yul\":9068:9185   */\n      pop\n        /* \"#utility.yul\":9252:9254   */\n      0x20\n        /* \"#utility.yul\":9241:9250   */\n      dup7\n        /* \"#utility.yul\":9237:9255   */\n      add\n        /* \"#utility.yul\":9224:9256   */\n      calldataload\n        /* \"#utility.yul\":9283:9301   */\n      0xffffffffffffffff\n        /* \"#utility.yul\":9275:9281   */\n      dup2\n        /* \"#utility.yul\":9272:9302   */\n      gt\n        /* \"#utility.yul\":9269:9386   */\n      iszero\n      tag_323\n      jumpi\n        /* \"#utility.yul\":9305:9384   */\n      tag_324\n      tag_156\n      jump\t// in\n    tag_324:\n        /* \"#utility.yul\":9269:9386   */\n    tag_323:\n        /* \"#utility.yul\":9410:9473   */\n      tag_325\n        /* \"#utility.yul\":9465:9472   */\n      dup9\n        /* \"#utility.yul\":9456:9462   */\n      dup3\n        /* \"#utility.yul\":9445:9454   */\n      dup10\n        /* \"#utility.yul\":9441:9463   */\n      add\n        /* \"#utility.yul\":9410:9473   */\n      tag_182\n      jump\t// in\n    tag_325:\n        /* \"#utility.yul\":9400:9473   */\n      swap5\n      pop\n        /* \"#utility.yul\":9195:9483   */\n      pop\n        /* \"#utility.yul\":9550:9552   */\n      0x40\n        /* \"#utility.yul\":9539:9548   */\n      dup7\n        /* \"#utility.yul\":9535:9553   */\n      add\n        /* \"#utility.yul\":9522:9554   */\n      calldataload\n        /* \"#utility.yul\":9581:9599   */\n      0xffffffffffffffff\n        /* \"#utility.yul\":9573:9579   */\n      dup2\n        /* \"#utility.yul\":9570:9600   */\n      gt\n        /* \"#utility.yul\":9567:9684   */\n      iszero\n      tag_326\n      jumpi\n        /* \"#utility.yul\":9603:9682   */\n      tag_327\n      tag_156\n      jump\t// in\n    tag_327:\n        /* \"#utility.yul\":9567:9684   */\n    tag_326:\n        /* \"#utility.yul\":9708:9771   */\n      tag_328\n        /* \"#utility.yul\":9763:9770   */\n      dup9\n        /* \"#utility.yul\":9754:9760   */\n      dup3\n        /* \"#utility.yul\":9743:9752   */\n      dup10\n        /* \"#utility.yul\":9739:9761   */\n      add\n        /* \"#utility.yul\":9708:9771   */\n      tag_182\n      jump\t// in\n    tag_328:\n        /* \"#utility.yul\":9698:9771   */\n      swap4\n      pop\n        /* \"#utility.yul\":9493:9781   */\n      pop\n        /* \"#utility.yul\":9820:9822   */\n      0x60\n        /* \"#utility.yul\":9846:9899   */\n      tag_329\n        /* \"#utility.yul\":9891:9898   */\n      dup9\n        /* \"#utility.yul\":9882:9888   */\n      dup3\n        /* \"#utility.yul\":9871:9880   */\n      dup10\n        /* \"#utility.yul\":9867:9889   */\n      add\n        /* \"#utility.yul\":9846:9899   */\n      tag_163\n      jump\t// in\n    tag_329:\n        /* \"#utility.yul\":9836:9899   */\n      swap3\n      pop\n        /* \"#utility.yul\":9791:9909   */\n      pop\n        /* \"#utility.yul\":9948:9951   */\n      0x80\n        /* \"#utility.yul\":9975:10028   */\n      tag_330\n        /* \"#utility.yul\":10020:10027   */\n      dup9\n        /* \"#utility.yul\":10011:10017   */\n      dup3\n        /* \"#utility.yul\":10000:10009   */\n      dup10\n        /* \"#utility.yul\":9996:10018   */\n      add\n        /* \"#utility.yul\":9975:10028   */\n      tag_163\n      jump\t// in\n    tag_330:\n        /* \"#utility.yul\":9965:10028   */\n      swap2\n      pop\n        /* \"#utility.yul\":9919:10038   */\n      pop\n        /* \"#utility.yul\":8774:10045   */\n      swap3\n      swap6\n      pop\n      swap3\n      swap6\n      swap1\n      swap4\n      pop\n      jump\t// out\n        /* \"#utility.yul\":10051:11176   */\n    tag_40:\n        /* \"#utility.yul\":10157:10163   */\n      0x00\n        /* \"#utility.yul\":10165:10171   */\n      dup1\n        /* \"#utility.yul\":10173:10179   */\n      0x00\n        /* \"#utility.yul\":10181:10187   */\n      dup1\n        /* \"#utility.yul\":10230:10233   */\n      0x80\n        /* \"#utility.yul\":10218:10227   */\n      dup6\n        /* \"#utility.yul\":10209:10216   */\n      dup8\n        /* \"#utility.yul\":10205:10228   */\n      sub\n        /* \"#utility.yul\":10201:10234   */\n      slt\n        /* \"#utility.yul\":10198:10318   */\n      iszero\n      tag_332\n      jumpi\n        /* \"#utility.yul\":10237:10316   */\n      tag_333\n      tag_155\n      jump\t// in\n    tag_333:\n        /* \"#utility.yul\":10198:10318   */\n    tag_332:\n        /* \"#utility.yul\":10385:10386   */\n      0x00\n        /* \"#utility.yul\":10374:10383   */\n      dup6\n        /* \"#utility.yul\":10370:10387   */\n      add\n        /* \"#utility.yul\":10357:10388   */\n      calldataload\n        /* \"#utility.yul\":10415:10433   */\n      0xffffffffffffffff\n        /* \"#utility.yul\":10407:10413   */\n      dup2\n        /* \"#utility.yul\":10404:10434   */\n      gt\n        /* \"#utility.yul\":10401:10518   */\n      iszero\n      tag_334\n      jumpi\n        /* \"#utility.yul\":10437:10516   */\n      tag_335\n      tag_156\n      jump\t// in\n    tag_335:\n        /* \"#utility.yul\":10401:10518   */\n    tag_334:\n        /* \"#utility.yul\":10542:10605   */\n      tag_336\n        /* \"#utility.yul\":10597:10604   */\n      dup8\n        /* \"#utility.yul\":10588:10594   */\n      dup3\n        /* \"#utility.yul\":10577:10586   */\n      dup9\n        /* \"#utility.yul\":10573:10595   */\n      add\n        /* \"#utility.yul\":10542:10605   */\n      tag_182\n      jump\t// in\n    tag_336:\n        /* \"#utility.yul\":10532:10605   */\n      swap5\n      pop\n        /* \"#utility.yul\":10328:10615   */\n      pop\n        /* \"#utility.yul\":10682:10684   */\n      0x20\n        /* \"#utility.yul\":10671:10680   */\n      dup6\n        /* \"#utility.yul\":10667:10685   */\n      add\n        /* \"#utility.yul\":10654:10686   */\n      calldataload\n        /* \"#utility.yul\":10713:10731   */\n      0xffffffffffffffff\n        /* \"#utility.yul\":10705:10711   */\n      dup2\n        /* \"#utility.yul\":10702:10732   */\n      gt\n        /* \"#utility.yul\":10699:10816   */\n      iszero\n      tag_337\n      jumpi\n        /* \"#utility.yul\":10735:10814   */\n      tag_338\n      tag_156\n      jump\t// in\n    tag_338:\n        /* \"#utility.yul\":10699:10816   */\n    tag_337:\n        /* \"#utility.yul\":10840:10903   */\n      tag_339\n        /* \"#utility.yul\":10895:10902   */\n      dup8\n        /* \"#utility.yul\":10886:10892   */\n      dup3\n        /* \"#utility.yul\":10875:10884   */\n      dup9\n        /* \"#utility.yul\":10871:10893   */\n      add\n        /* \"#utility.yul\":10840:10903   */\n      tag_182\n      jump\t// in\n    tag_339:\n        /* \"#utility.yul\":10830:10903   */\n      swap4\n      pop\n        /* \"#utility.yul\":10625:10913   */\n      pop\n        /* \"#utility.yul\":10952:10954   */\n      0x40\n        /* \"#utility.yul\":10978:11031   */\n      tag_340\n        /* \"#utility.yul\":11023:11030   */\n      dup8\n        /* \"#utility.yul\":11014:11020   */\n      dup3\n        /* \"#utility.yul\":11003:11012   */\n      dup9\n        /* \"#utility.yul\":10999:11021   */\n      add\n        /* \"#utility.yul\":10978:11031   */\n      tag_163\n      jump\t// in\n    tag_340:\n        /* \"#utility.yul\":10968:11031   */\n      swap3\n      pop\n        /* \"#utility.yul\":10923:11041   */\n      pop\n        /* \"#utility.yul\":11080:11082   */\n      0x60\n        /* \"#utility.yul\":11106:11159   */\n      tag_341\n        /* \"#utility.yul\":11151:11158   */\n      dup8\n        /* \"#utility.yul\":11142:11148   */\n      dup3\n        /* \"#utility.yul\":11131:11140   */\n      dup9\n        /* \"#utility.yul\":11127:11149   */\n      add\n        /* \"#utility.yul\":11106:11159   */\n      tag_163\n      jump\t// in\n    tag_341:\n        /* \"#utility.yul\":11096:11159   */\n      swap2\n      pop\n        /* \"#utility.yul\":11051:11169   */\n      pop\n        /* \"#utility.yul\":10051:11176   */\n      swap3\n      swap6\n      swap2\n      swap5\n      pop\n      swap3\n      pop\n      jump\t// out\n        /* \"#utility.yul\":11182:11801   */\n    tag_44:\n        /* \"#utility.yul\":11259:11265   */\n      0x00\n        /* \"#utility.yul\":11267:11273   */\n      dup1\n        /* \"#utility.yul\":11275:11281   */\n      0x00\n        /* \"#utility.yul\":11324:11326   */\n      0x60\n        /* \"#utility.yul\":11312:11321   */\n      dup5\n        /* \"#utility.yul\":11303:11310   */\n      dup7\n        /* \"#utility.yul\":11299:11322   */\n      sub\n        /* \"#utility.yul\":11295:11327   */\n      slt\n        /* \"#utility.yul\":11292:11411   */\n      iszero\n      tag_343\n      jumpi\n        /* \"#utility.yul\":11330:11409   */\n      tag_344\n      tag_155\n      jump\t// in\n    tag_344:\n        /* \"#utility.yul\":11292:11411   */\n    tag_343:\n        /* \"#utility.yul\":11450:11451   */\n      0x00\n        /* \"#utility.yul\":11475:11528   */\n      tag_345\n        /* \"#utility.yul\":11520:11527   */\n      dup7\n        /* \"#utility.yul\":11511:11517   */\n      dup3\n        /* \"#utility.yul\":11500:11509   */\n      dup8\n        /* \"#utility.yul\":11496:11518   */\n      add\n        /* \"#utility.yul\":11475:11528   */\n      tag_160\n      jump\t// in\n    tag_345:\n        /* \"#utility.yul\":11465:11528   */\n      swap4\n      pop\n        /* \"#utility.yul\":11421:11538   */\n      pop\n        /* \"#utility.yul\":11577:11579   */\n      0x20\n        /* \"#utility.yul\":11603:11656   */\n      tag_346\n        /* \"#utility.yul\":11648:11655   */\n      dup7\n        /* \"#utility.yul\":11639:11645   */\n      dup3\n        /* \"#utility.yul\":11628:11637   */\n      dup8\n        /* \"#utility.yul\":11624:11646   */\n      add\n        /* \"#utility.yul\":11603:11656   */\n      tag_163\n      jump\t// in\n    tag_346:\n        /* \"#utility.yul\":11593:11656   */\n      swap3\n      pop\n        /* \"#utility.yul\":11548:11666   */\n      pop\n        /* \"#utility.yul\":11705:11707   */\n      0x40\n        /* \"#utility.yul\":11731:11784   */\n      tag_347\n        /* \"#utility.yul\":11776:11783   */\n      dup7\n        /* \"#utility.yul\":11767:11773   */\n      dup3\n        /* \"#utility.yul\":11756:11765   */\n      dup8\n        /* \"#utility.yul\":11752:11774   */\n      add\n        /* \"#utility.yul\":11731:11784   */\n      tag_163\n      jump\t// in\n    tag_347:\n        /* \"#utility.yul\":11721:11784   */\n      swap2\n      pop\n        /* \"#utility.yul\":11676:11794   */\n      pop\n        /* \"#utility.yul\":11182:11801   */\n      swap3\n      pop\n      swap3\n      pop\n      swap3\n      jump\t// out\n        /* \"#utility.yul\":11807:11972   */\n    tag_183:\n        /* \"#utility.yul\":11947:11964   */\n      0x496e76616c6964206974656d2049440000000000000000000000000000000000\n        /* \"#utility.yul\":11943:11944   */\n      0x00\n        /* \"#utility.yul\":11935:11941   */\n      dup3\n        /* \"#utility.yul\":11931:11945   */\n      add\n        /* \"#utility.yul\":11924:11965   */\n      mstore\n        /* \"#utility.yul\":11807:11972   */\n      pop\n      jump\t// out\n        /* \"#utility.yul\":11978:12344   */\n    tag_184:\n        /* \"#utility.yul\":12120:12123   */\n      0x00\n        /* \"#utility.yul\":12141:12208   */\n      tag_350\n        /* \"#utility.yul\":12205:12207   */\n      0x0f\n        /* \"#utility.yul\":12200:12203   */\n      dup4\n        /* \"#utility.yul\":12141:12208   */\n      tag_165\n      jump\t// in\n    tag_350:\n        /* \"#utility.yul\":12134:12208   */\n      swap2\n      pop\n        /* \"#utility.yul\":12217:12310   */\n      tag_351\n        /* \"#utility.yul\":12306:12309   */\n      dup3\n        /* \"#utility.yul\":12217:12310   */\n      tag_183\n      jump\t// in\n    tag_351:\n        /* \"#utility.yul\":12335:12337   */\n      0x20\n        /* \"#utility.yul\":12330:12333   */\n      dup3\n        /* \"#utility.yul\":12326:12338   */\n      add\n        /* \"#utility.yul\":12319:12338   */\n      swap1\n      pop\n        /* \"#utility.yul\":11978:12344   */\n      swap2\n      swap1\n      pop\n      jump\t// out\n        /* \"#utility.yul\":12350:12769   */\n    tag_49:\n        /* \"#utility.yul\":12516:12520   */\n      0x00\n        /* \"#utility.yul\":12554:12556   */\n      0x20\n        /* \"#utility.yul\":12543:12552   */\n      dup3\n        /* \"#utility.yul\":12539:12557   */\n      add\n        /* \"#utility.yul\":12531:12557   */\n      swap1\n      pop\n        /* \"#utility.yul\":12603:12612   */\n      dup2\n        /* \"#utility.yul\":12597:12601   */\n      dup2\n        /* \"#utility.yul\":12593:12613   */\n      sub\n        /* \"#utility.yul\":12589:12590   */\n      0x00\n        /* \"#utility.yul\":12578:12587   */\n      dup4\n        /* \"#utility.yul\":12574:12591   */\n      add\n        /* \"#utility.yul\":12567:12614   */\n      mstore\n        /* \"#utility.yul\":12631:12762   */\n      tag_353\n        /* \"#utility.yul\":12757:12761   */\n      dup2\n        /* \"#utility.yul\":12631:12762   */\n      tag_184\n      jump\t// in\n    tag_353:\n        /* \"#utility.yul\":12623:12762   */\n      swap1\n      pop\n        /* \"#utility.yul\":12350:12769   */\n      swap2\n      swap1\n      pop\n      jump\t// out\n        /* \"#utility.yul\":12775:12955   */\n    tag_52:\n        /* \"#utility.yul\":12823:12900   */\n      0x4e487b7100000000000000000000000000000000000000000000000000000000\n        /* \"#utility.yul\":12820:12821   */\n      0x00\n        /* \"#utility.yul\":12813:12901   */\n      mstore\n        /* \"#utility.yul\":12920:12924   */\n      0x32\n        /* \"#utility.yul\":12917:12918   */\n      0x04\n        /* \"#utility.yul\":12910:12925   */\n      mstore\n        /* \"#utility.yul\":12944:12948   */\n      0x24\n        /* \"#utility.yul\":12941:12942   */\n      0x00\n        /* \"#utility.yul\":12934:12949   */\n      revert\n        /* \"#utility.yul\":12961:13141   */\n    tag_185:\n        /* \"#utility.yul\":13009:13086   */\n      0x4e487b7100000000000000000000000000000000000000000000000000000000\n        /* \"#utility.yul\":13006:13007   */\n      0x00\n        /* \"#utility.yul\":12999:13087   */\n      mstore\n        /* \"#utility.yul\":13106:13110   */\n      0x22\n        /* \"#utility.yul\":13103:13104   */\n      0x04\n        /* \"#utility.yul\":13096:13111   */\n      mstore\n        /* \"#utility.yul\":13130:13134   */\n      0x24\n        /* \"#utility.yul\":13127:13128   */\n      0x00\n        /* \"#utility.yul\":13120:13135   */\n      revert\n        /* \"#utility.yul\":13147:13467   */\n    tag_55:\n        /* \"#utility.yul\":13191:13197   */\n      0x00\n        /* \"#utility.yul\":13228:13229   */\n      0x02\n        /* \"#utility.yul\":13222:13226   */\n      dup3\n        /* \"#utility.yul\":13218:13230   */\n      div\n        /* \"#utility.yul\":13208:13230   */\n      swap1\n      pop\n        /* \"#utility.yul\":13275:13276   */\n      0x01\n        /* \"#utility.yul\":13269:13273   */\n      dup3\n        /* \"#utility.yul\":13265:13277   */\n      and\n        /* \"#utility.yul\":13296:13314   */\n      dup1\n        /* \"#utility.yul\":13286:13367   */\n      tag_357\n      jumpi\n        /* \"#utility.yul\":13352:13356   */\n      0x7f\n        /* \"#utility.yul\":13344:13350   */\n      dup3\n        /* \"#utility.yul\":13340:13357   */\n      and\n        /* \"#utility.yul\":13330:13357   */\n      swap2\n      pop\n        /* \"#utility.yul\":13286:13367   */\n    tag_357:\n        /* \"#utility.yul\":13414:13416   */\n      0x20\n        /* \"#utility.yul\":13406:13412   */\n      dup3\n        /* \"#utility.yul\":13403:13417   */\n      lt\n        /* \"#utility.yul\":13383:13401   */\n      dup2\n        /* \"#utility.yul\":13380:13418   */\n      sub\n        /* \"#utility.yul\":13377:13461   */\n      tag_358\n      jumpi\n        /* \"#utility.yul\":13433:13451   */\n      tag_359\n      tag_185\n      jump\t// in\n    tag_359:\n        /* \"#utility.yul\":13377:13461   */\n    tag_358:\n        /* \"#utility.yul\":13198:13467   */\n      pop\n        /* \"#utility.yul\":13147:13467   */\n      swap2\n      swap1\n      pop\n      jump\t// out\n        /* \"#utility.yul\":13473:13571   */\n    tag_186:\n        /* \"#utility.yul\":13524:13530   */\n      0x00\n        /* \"#utility.yul\":13558:13563   */\n      dup2\n        /* \"#utility.yul\":13552:13564   */\n      mload\n        /* \"#utility.yul\":13542:13564   */\n      swap1\n      pop\n        /* \"#utility.yul\":13473:13571   */\n      swap2\n      swap1\n      pop\n      jump\t// out\n        /* \"#utility.yul\":13577:13724   */\n    tag_187:\n        /* \"#utility.yul\":13678:13689   */\n      0x00\n        /* \"#utility.yul\":13715:13718   */\n      dup2\n        /* \"#utility.yul\":13700:13718   */\n      swap1\n      pop\n        /* \"#utility.yul\":13577:13724   */\n      swap3\n      swap2\n      pop\n      pop\n      jump\t// out\n        /* \"#utility.yul\":13730:14116   */\n    tag_188:\n        /* \"#utility.yul\":13834:13837   */\n      0x00\n        /* \"#utility.yul\":13862:13900   */\n      tag_363\n        /* \"#utility.yul\":13894:13899   */\n      dup3\n        /* \"#utility.yul\":13862:13900   */\n      tag_186\n      jump\t// in\n    tag_363:\n        /* \"#utility.yul\":13916:14004   */\n      tag_364\n        /* \"#utility.yul\":13997:14003   */\n      dup2\n        /* \"#utility.yul\":13992:13995   */\n      dup6\n        /* \"#utility.yul\":13916:14004   */\n      tag_187\n      jump\t// in\n    tag_364:\n        /* \"#utility.yul\":13909:14004   */\n      swap4\n      pop\n        /* \"#utility.yul\":14013:14078   */\n      tag_365\n        /* \"#utility.yul\":14071:14077   */\n      dup2\n        /* \"#utility.yul\":14066:14069   */\n      dup6\n        /* \"#utility.yul\":14059:14063   */\n      0x20\n        /* \"#utility.yul\":14052:14057   */\n      dup7\n        /* \"#utility.yul\":14048:14064   */\n      add\n        /* \"#utility.yul\":14013:14078   */\n      tag_166\n      jump\t// in\n    tag_365:\n        /* \"#utility.yul\":14103:14109   */\n      dup1\n        /* \"#utility.yul\":14098:14101   */\n      dup5\n        /* \"#utility.yul\":14094:14110   */\n      add\n        /* \"#utility.yul\":14087:14110   */\n      swap2\n      pop\n        /* \"#utility.yul\":13838:14116   */\n      pop\n        /* \"#utility.yul\":13730:14116   */\n      swap3\n      swap2\n      pop\n      pop\n      jump\t// out\n        /* \"#utility.yul\":14122:14393   */\n    tag_67:\n        /* \"#utility.yul\":14252:14255   */\n      0x00\n        /* \"#utility.yul\":14274:14367   */\n      tag_367\n        /* \"#utility.yul\":14363:14366   */\n      dup3\n        /* \"#utility.yul\":14354:14360   */\n      dup5\n        /* \"#utility.yul\":14274:14367   */\n      tag_188\n      jump\t// in\n    tag_367:\n        /* \"#utility.yul\":14267:14367   */\n      swap2\n      pop\n        /* \"#utility.yul\":14384:14387   */\n      dup2\n        /* \"#utility.yul\":14377:14387   */\n      swap1\n      pop\n        /* \"#utility.yul\":14122:14393   */\n      swap3\n      swap2\n      pop\n      pop\n      jump\t// out\n        /* \"#utility.yul\":14399:14578   */\n    tag_189:\n        /* \"#utility.yul\":14539:14570   */\n      0x45787465726e616c20636f6e74726163742063616c6c206661696c6564000000\n        /* \"#utility.yul\":14535:14536   */\n      0x00\n        /* \"#utility.yul\":14527:14533   */\n      dup3\n        /* \"#utility.yul\":14523:14537   */\n      add\n        /* \"#utility.yul\":14516:14571   */\n      mstore\n        /* \"#utility.yul\":14399:14578   */\n      pop\n      jump\t// out\n        /* \"#utility.yul\":14584:14950   */\n    tag_190:\n        /* \"#utility.yul\":14726:14729   */\n      0x00\n        /* \"#utility.yul\":14747:14814   */\n      tag_370\n        /* \"#utility.yul\":14811:14813   */\n      0x1d\n        /* \"#utility.yul\":14806:14809   */\n      dup4\n        /* \"#utility.yul\":14747:14814   */\n      tag_165\n      jump\t// in\n    tag_370:\n        /* \"#utility.yul\":14740:14814   */\n      swap2\n      pop\n        /* \"#utility.yul\":14823:14916   */\n      tag_371\n        /* \"#utility.yul\":14912:14915   */\n      dup3\n        /* \"#utility.yul\":14823:14916   */\n      tag_189\n      jump\t// in\n    tag_371:\n        /* \"#utility.yul\":14941:14943   */\n      0x20\n        /* \"#utility.yul\":14936:14939   */\n      dup3\n        /* \"#utility.yul\":14932:14944   */\n      add\n        /* \"#utility.yul\":14925:14944   */\n      swap1\n      pop\n        /* \"#utility.yul\":14584:14950   */\n      swap2\n      swap1\n      pop\n      jump\t// out\n        /* \"#utility.yul\":14956:15375   */\n    tag_73:\n        /* \"#utility.yul\":15122:15126   */\n      0x00\n        /* \"#utility.yul\":15160:15162   */\n      0x20\n        /* \"#utility.yul\":15149:15158   */\n      dup3\n        /* \"#utility.yul\":15145:15163   */\n      add\n        /* \"#utility.yul\":15137:15163   */\n      swap1\n      pop\n        /* \"#utility.yul\":15209:15218   */\n      dup2\n        /* \"#utility.yul\":15203:15207   */\n      dup2\n        /* \"#utility.yul\":15199:15219   */\n      sub\n        /* \"#utility.yul\":15195:15196   */\n      0x00\n        /* \"#utility.yul\":15184:15193   */\n      dup4\n        /* \"#utility.yul\":15180:15197   */\n      add\n        /* \"#utility.yul\":15173:15220   */\n      mstore\n        /* \"#utility.yul\":15237:15368   */\n      tag_373\n        /* \"#utility.yul\":15363:15367   */\n      dup2\n        /* \"#utility.yul\":15237:15368   */\n      tag_190\n      jump\t// in\n    tag_373:\n        /* \"#utility.yul\":15229:15368   */\n      swap1\n      pop\n        /* \"#utility.yul\":14956:15375   */\n      swap2\n      swap1\n      pop\n      jump\t// out\n        /* \"#utility.yul\":15381:15549   */\n    tag_191:\n        /* \"#utility.yul\":15521:15541   */\n      0x4e6f7420746865206974656d206f776e65720000000000000000000000000000\n        /* \"#utility.yul\":15517:15518   */\n      0x00\n        /* \"#utility.yul\":15509:15515   */\n      dup3\n        /* \"#utility.yul\":15505:15519   */\n      add\n        /* \"#utility.yul\":15498:15542   */\n      mstore\n        /* \"#utility.yul\":15381:15549   */\n      pop\n      jump\t// out\n        /* \"#utility.yul\":15555:15921   */\n    tag_192:\n        /* \"#utility.yul\":15697:15700   */\n      0x00\n        /* \"#utility.yul\":15718:15785   */\n      tag_376\n        /* \"#utility.yul\":15782:15784   */\n      0x12\n        /* \"#utility.yul\":15777:15780   */\n      dup4\n        /* \"#utility.yul\":15718:15785   */\n      tag_165\n      jump\t// in\n    tag_376:\n        /* \"#utility.yul\":15711:15785   */\n      swap2\n      pop\n        /* \"#utility.yul\":15794:15887   */\n      tag_377\n        /* \"#utility.yul\":15883:15886   */\n      dup3\n        /* \"#utility.yul\":15794:15887   */\n      tag_191\n      jump\t// in\n    tag_377:\n        /* \"#utility.yul\":15912:15914   */\n      0x20\n        /* \"#utility.yul\":15907:15910   */\n      dup3\n        /* \"#utility.yul\":15903:15915   */\n      add\n        /* \"#utility.yul\":15896:15915   */\n      swap1\n      pop\n        /* \"#utility.yul\":15555:15921   */\n      swap2\n      swap1\n      pop\n      jump\t// out\n        /* \"#utility.yul\":15927:16346   */\n    tag_82:\n        /* \"#utility.yul\":16093:16097   */\n      0x00\n        /* \"#utility.yul\":16131:16133   */\n      0x20\n        /* \"#utility.yul\":16120:16129   */\n      dup3\n        /* \"#utility.yul\":16116:16134   */\n      add\n        /* \"#utility.yul\":16108:16134   */\n      swap1\n      pop\n        /* \"#utility.yul\":16180:16189   */\n      dup2\n        /* \"#utility.yul\":16174:16178   */\n      dup2\n        /* \"#utility.yul\":16170:16190   */\n      sub\n        /* \"#utility.yul\":16166:16167   */\n      0x00\n        /* \"#utility.yul\":16155:16164   */\n      dup4\n        /* \"#utility.yul\":16151:16168   */\n      add\n        /* \"#utility.yul\":16144:16191   */\n      mstore\n        /* \"#utility.yul\":16208:16339   */\n      tag_379\n        /* \"#utility.yul\":16334:16338   */\n      dup2\n        /* \"#utility.yul\":16208:16339   */\n      tag_192\n      jump\t// in\n    tag_379:\n        /* \"#utility.yul\":16200:16339   */\n      swap1\n      pop\n        /* \"#utility.yul\":15927:16346   */\n      swap2\n      swap1\n      pop\n      jump\t// out\n        /* \"#utility.yul\":16352:16531   */\n    tag_193:\n        /* \"#utility.yul\":16492:16523   */\n      0x4e6f7420656e6f756768207175616e7469747920617661696c61626c65000000\n        /* \"#utility.yul\":16488:16489   */\n      0x00\n        /* \"#utility.yul\":16480:16486   */\n      dup3\n        /* \"#utility.yul\":16476:16490   */\n      add\n        /* \"#utility.yul\":16469:16524   */\n      mstore\n        /* \"#utility.yul\":16352:16531   */\n      pop\n      jump\t// out\n        /* \"#utility.yul\":16537:16903   */\n    tag_194:\n        /* \"#utility.yul\":16679:16682   */\n      0x00\n        /* \"#utility.yul\":16700:16767   */\n      tag_382\n        /* \"#utility.yul\":16764:16766   */\n      0x1d\n        /* \"#utility.yul\":16759:16762   */\n      dup4\n        /* \"#utility.yul\":16700:16767   */\n      tag_165\n      jump\t// in\n    tag_382:\n        /* \"#utility.yul\":16693:16767   */\n      swap2\n      pop\n        /* \"#utility.yul\":16776:16869   */\n      tag_383\n        /* \"#utility.yul\":16865:16868   */\n      dup3\n        /* \"#utility.yul\":16776:16869   */\n      tag_193\n      jump\t// in\n    tag_383:\n        /* \"#utility.yul\":16894:16896   */\n      0x20\n        /* \"#utility.yul\":16889:16892   */\n      dup3\n        /* \"#utility.yul\":16885:16897   */\n      add\n        /* \"#utility.yul\":16878:16897   */\n      swap1\n      pop\n        /* \"#utility.yul\":16537:16903   */\n      swap2\n      swap1\n      pop\n      jump\t// out\n        /* \"#utility.yul\":16909:17328   */\n    tag_98:\n        /* \"#utility.yul\":17075:17079   */\n      0x00\n        /* \"#utility.yul\":17113:17115   */\n      0x20\n        /* \"#utility.yul\":17102:17111   */\n      dup3\n        /* \"#utility.yul\":17098:17116   */\n      add\n        /* \"#utility.yul\":17090:17116   */\n      swap1\n      pop\n        /* \"#utility.yul\":17162:17171   */\n      dup2\n        /* \"#utility.yul\":17156:17160   */\n      dup2\n        /* \"#utility.yul\":17152:17172   */\n      sub\n        /* \"#utility.yul\":17148:17149   */\n      0x00\n        /* \"#utility.yul\":17137:17146   */\n      dup4\n        /* \"#utility.yul\":17133:17150   */\n      add\n        /* \"#utility.yul\":17126:17173   */\n      mstore\n        /* \"#utility.yul\":17190:17321   */\n      tag_385\n        /* \"#utility.yul\":17316:17320   */\n      dup2\n        /* \"#utility.yul\":17190:17321   */\n      tag_194\n      jump\t// in\n    tag_385:\n        /* \"#utility.yul\":17182:17321   */\n      swap1\n      pop\n        /* \"#utility.yul\":16909:17328   */\n      swap2\n      swap1\n      pop\n      jump\t// out\n        /* \"#utility.yul\":17334:17514   */\n    tag_195:\n        /* \"#utility.yul\":17382:17459   */\n      0x4e487b7100000000000000000000000000000000000000000000000000000000\n        /* \"#utility.yul\":17379:17380   */\n      0x00\n        /* \"#utility.yul\":17372:17460   */\n      mstore\n        /* \"#utility.yul\":17479:17483   */\n      0x11\n        /* \"#utility.yul\":17476:17477   */\n      0x04\n        /* \"#utility.yul\":17469:17484   */\n      mstore\n        /* \"#utility.yul\":17503:17507   */\n      0x24\n        /* \"#utility.yul\":17500:17501   */\n      0x00\n        /* \"#utility.yul\":17493:17508   */\n      revert\n        /* \"#utility.yul\":17520:17930   */\n    tag_100:\n        /* \"#utility.yul\":17560:17567   */\n      0x00\n        /* \"#utility.yul\":17583:17603   */\n      tag_388\n        /* \"#utility.yul\":17601:17602   */\n      dup3\n        /* \"#utility.yul\":17583:17603   */\n      tag_161\n      jump\t// in\n    tag_388:\n        /* \"#utility.yul\":17578:17603   */\n      swap2\n      pop\n        /* \"#utility.yul\":17617:17637   */\n      tag_389\n        /* \"#utility.yul\":17635:17636   */\n      dup4\n        /* \"#utility.yul\":17617:17637   */\n      tag_161\n      jump\t// in\n    tag_389:\n        /* \"#utility.yul\":17612:17637   */\n      swap3\n      pop\n        /* \"#utility.yul\":17672:17673   */\n      dup3\n        /* \"#utility.yul\":17669:17670   */\n      dup3\n        /* \"#utility.yul\":17665:17674   */\n      mul\n        /* \"#utility.yul\":17694:17724   */\n      tag_390\n        /* \"#utility.yul\":17712:17723   */\n      dup2\n        /* \"#utility.yul\":17694:17724   */\n      tag_161\n      jump\t// in\n    tag_390:\n        /* \"#utility.yul\":17683:17724   */\n      swap2\n      pop\n        /* \"#utility.yul\":17873:17874   */\n      dup3\n        /* \"#utility.yul\":17864:17871   */\n      dup3\n        /* \"#utility.yul\":17860:17875   */\n      div\n        /* \"#utility.yul\":17857:17858   */\n      dup5\n        /* \"#utility.yul\":17854:17876   */\n      eq\n        /* \"#utility.yul\":17834:17835   */\n      dup4\n        /* \"#utility.yul\":17827:17836   */\n      iszero\n        /* \"#utility.yul\":17807:17890   */\n      or\n        /* \"#utility.yul\":17784:17923   */\n      tag_391\n      jumpi\n        /* \"#utility.yul\":17903:17921   */\n      tag_392\n      tag_195\n      jump\t// in\n    tag_392:\n        /* \"#utility.yul\":17784:17923   */\n    tag_391:\n        /* \"#utility.yul\":17568:17930   */\n      pop\n        /* \"#utility.yul\":17520:17930   */\n      swap3\n      swap2\n      pop\n      pop\n      jump\t// out\n        /* \"#utility.yul\":17936:18050   */\n    tag_196:\n      pop\n      jump\t// out\n        /* \"#utility.yul\":18056:18454   */\n    tag_197:\n        /* \"#utility.yul\":18215:18218   */\n      0x00\n        /* \"#utility.yul\":18236:18319   */\n      tag_395\n        /* \"#utility.yul\":18317:18318   */\n      0x00\n        /* \"#utility.yul\":18312:18315   */\n      dup4\n        /* \"#utility.yul\":18236:18319   */\n      tag_187\n      jump\t// in\n    tag_395:\n        /* \"#utility.yul\":18229:18319   */\n      swap2\n      pop\n        /* \"#utility.yul\":18328:18421   */\n      tag_396\n        /* \"#utility.yul\":18417:18420   */\n      dup3\n        /* \"#utility.yul\":18328:18421   */\n      tag_196\n      jump\t// in\n    tag_396:\n        /* \"#utility.yul\":18446:18447   */\n      0x00\n        /* \"#utility.yul\":18441:18444   */\n      dup3\n        /* \"#utility.yul\":18437:18448   */\n      add\n        /* \"#utility.yul\":18430:18448   */\n      swap1\n      pop\n        /* \"#utility.yul\":18056:18454   */\n      swap2\n      swap1\n      pop\n      jump\t// out\n        /* \"#utility.yul\":18460:18839   */\n    tag_102:\n        /* \"#utility.yul\":18644:18647   */\n      0x00\n        /* \"#utility.yul\":18666:18813   */\n      tag_398\n        /* \"#utility.yul\":18809:18812   */\n      dup3\n        /* \"#utility.yul\":18666:18813   */\n      tag_197\n      jump\t// in\n    tag_398:\n        /* \"#utility.yul\":18659:18813   */\n      swap2\n      pop\n        /* \"#utility.yul\":18830:18833   */\n      dup2\n        /* \"#utility.yul\":18823:18833   */\n      swap1\n      pop\n        /* \"#utility.yul\":18460:18839   */\n      swap2\n      swap1\n      pop\n      jump\t// out\n        /* \"#utility.yul\":18845:19009   */\n    tag_198:\n        /* \"#utility.yul\":18985:19001   */\n      0x5061796d656e74206661696c6564000000000000000000000000000000000000\n        /* \"#utility.yul\":18981:18982   */\n      0x00\n        /* \"#utility.yul\":18973:18979   */\n      dup3\n        /* \"#utility.yul\":18969:18983   */\n      add\n        /* \"#utility.yul\":18962:19002   */\n      mstore\n        /* \"#utility.yul\":18845:19009   */\n      pop\n      jump\t// out\n        /* \"#utility.yul\":19015:19381   */\n    tag_199:\n        /* \"#utility.yul\":19157:19160   */\n      0x00\n        /* \"#utility.yul\":19178:19245   */\n      tag_401\n        /* \"#utility.yul\":19242:19244   */\n      0x0e\n        /* \"#utility.yul\":19237:19240   */\n      dup4\n        /* \"#utility.yul\":19178:19245   */\n      tag_165\n      jump\t// in\n    tag_401:\n        /* \"#utility.yul\":19171:19245   */\n      swap2\n      pop\n        /* \"#utility.yul\":19254:19347   */\n      tag_402\n        /* \"#utility.yul\":19343:19346   */\n      dup3\n        /* \"#utility.yul\":19254:19347   */\n      tag_198\n      jump\t// in\n    tag_402:\n        /* \"#utility.yul\":19372:19374   */\n      0x20\n        /* \"#utility.yul\":19367:19370   */\n      dup3\n        /* \"#utility.yul\":19363:19375   */\n      add\n        /* \"#utility.yul\":19356:19375   */\n      swap1\n      pop\n        /* \"#utility.yul\":19015:19381   */\n      swap2\n      swap1\n      pop\n      jump\t// out\n        /* \"#utility.yul\":19387:19806   */\n    tag_108:\n        /* \"#utility.yul\":19553:19557   */\n      0x00\n        /* \"#utility.yul\":19591:19593   */\n      0x20\n        /* \"#utility.yul\":19580:19589   */\n      dup3\n        /* \"#utility.yul\":19576:19594   */\n      add\n        /* \"#utility.yul\":19568:19594   */\n      swap1\n      pop\n        /* \"#utility.yul\":19640:19649   */\n      dup2\n        /* \"#utility.yul\":19634:19638   */\n      dup2\n        /* \"#utility.yul\":19630:19650   */\n      sub\n        /* \"#utility.yul\":19626:19627   */\n      0x00\n        /* \"#utility.yul\":19615:19624   */\n      dup4\n        /* \"#utility.yul\":19611:19628   */\n      add\n        /* \"#utility.yul\":19604:19651   */\n      mstore\n        /* \"#utility.yul\":19668:19799   */\n      tag_404\n        /* \"#utility.yul\":19794:19798   */\n      dup2\n        /* \"#utility.yul\":19668:19799   */\n      tag_199\n      jump\t// in\n    tag_404:\n        /* \"#utility.yul\":19660:19799   */\n      swap1\n      pop\n        /* \"#utility.yul\":19387:19806   */\n      swap2\n      swap1\n      pop\n      jump\t// out\n        /* \"#utility.yul\":19812:20006   */\n    tag_110:\n        /* \"#utility.yul\":19852:19856   */\n      0x00\n        /* \"#utility.yul\":19872:19892   */\n      tag_406\n        /* \"#utility.yul\":19890:19891   */\n      dup3\n        /* \"#utility.yul\":19872:19892   */\n      tag_161\n      jump\t// in\n    tag_406:\n        /* \"#utility.yul\":19867:19892   */\n      swap2\n      pop\n        /* \"#utility.yul\":19906:19926   */\n      tag_407\n        /* \"#utility.yul\":19924:19925   */\n      dup4\n        /* \"#utility.yul\":19906:19926   */\n      tag_161\n      jump\t// in\n    tag_407:\n        /* \"#utility.yul\":19901:19926   */\n      swap3\n      pop\n        /* \"#utility.yul\":19950:19951   */\n      dup3\n        /* \"#utility.yul\":19947:19948   */\n      dup3\n        /* \"#utility.yul\":19943:19952   */\n      sub\n        /* \"#utility.yul\":19935:19952   */\n      swap1\n      pop\n        /* \"#utility.yul\":19974:19975   */\n      dup2\n        /* \"#utility.yul\":19968:19972   */\n      dup2\n        /* \"#utility.yul\":19965:19976   */\n      gt\n        /* \"#utility.yul\":19962:19999   */\n      iszero\n      tag_408\n      jumpi\n        /* \"#utility.yul\":19979:19997   */\n      tag_409\n      tag_195\n      jump\t// in\n    tag_409:\n        /* \"#utility.yul\":19962:19999   */\n    tag_408:\n        /* \"#utility.yul\":19812:20006   */\n      swap3\n      swap2\n      pop\n      pop\n      jump\t// out\n        /* \"#utility.yul\":20012:20234   */\n    tag_112:\n        /* \"#utility.yul\":20105:20109   */\n      0x00\n        /* \"#utility.yul\":20143:20145   */\n      0x20\n        /* \"#utility.yul\":20132:20141   */\n      dup3\n        /* \"#utility.yul\":20128:20146   */\n      add\n        /* \"#utility.yul\":20120:20146   */\n      swap1\n      pop\n        /* \"#utility.yul\":20156:20227   */\n      tag_411\n        /* \"#utility.yul\":20224:20225   */\n      0x00\n        /* \"#utility.yul\":20213:20222   */\n      dup4\n        /* \"#utility.yul\":20209:20226   */\n      add\n        /* \"#utility.yul\":20200:20206   */\n      dup5\n        /* \"#utility.yul\":20156:20227   */\n      tag_169\n      jump\t// in\n    tag_411:\n        /* \"#utility.yul\":20012:20234   */\n      swap3\n      swap2\n      pop\n      pop\n      jump\t// out\n        /* \"#utility.yul\":20240:20381   */\n    tag_200:\n        /* \"#utility.yul\":20289:20293   */\n      0x00\n        /* \"#utility.yul\":20312:20315   */\n      dup2\n        /* \"#utility.yul\":20304:20315   */\n      swap1\n      pop\n        /* \"#utility.yul\":20335:20338   */\n      dup2\n        /* \"#utility.yul\":20332:20333   */\n      0x00\n        /* \"#utility.yul\":20325:20339   */\n      mstore\n        /* \"#utility.yul\":20369:20373   */\n      0x20\n        /* \"#utility.yul\":20366:20367   */\n      0x00\n        /* \"#utility.yul\":20356:20374   */\n      keccak256\n        /* \"#utility.yul\":20348:20374   */\n      swap1\n      pop\n        /* \"#utility.yul\":20240:20381   */\n      swap2\n      swap1\n      pop\n      jump\t// out\n        /* \"#utility.yul\":20387:20480   */\n    tag_201:\n        /* \"#utility.yul\":20424:20430   */\n      0x00\n        /* \"#utility.yul\":20471:20473   */\n      0x20\n        /* \"#utility.yul\":20466:20468   */\n      0x1f\n        /* \"#utility.yul\":20459:20464   */\n      dup4\n        /* \"#utility.yul\":20455:20469   */\n      add\n        /* \"#utility.yul\":20451:20474   */\n      div\n        /* \"#utility.yul\":20441:20474   */\n      swap1\n      pop\n        /* \"#utility.yul\":20387:20480   */\n      swap2\n      swap1\n      pop\n      jump\t// out\n        /* \"#utility.yul\":20486:20593   */\n    tag_202:\n        /* \"#utility.yul\":20530:20538   */\n      0x00\n        /* \"#utility.yul\":20580:20585   */\n      dup3\n        /* \"#utility.yul\":20574:20578   */\n      dup3\n        /* \"#utility.yul\":20570:20586   */\n      shl\n        /* \"#utility.yul\":20549:20586   */\n      swap1\n      pop\n        /* \"#utility.yul\":20486:20593   */\n      swap3\n      swap2\n      pop\n      pop\n      jump\t// out\n        /* \"#utility.yul\":20599:20992   */\n    tag_203:\n        /* \"#utility.yul\":20668:20674   */\n      0x00\n        /* \"#utility.yul\":20718:20719   */\n      0x08\n        /* \"#utility.yul\":20706:20716   */\n      dup4\n        /* \"#utility.yul\":20702:20720   */\n      mul\n        /* \"#utility.yul\":20741:20838   */\n      tag_416\n        /* \"#utility.yul\":20771:20837   */\n      0xffffffffffffffffffffffffffffffffffffffffffffffffffffffffffffffff\n        /* \"#utility.yul\":20760:20769   */\n      dup3\n        /* \"#utility.yul\":20741:20838   */\n      tag_202\n      jump\t// in\n    tag_416:\n        /* \"#utility.yul\":20859:20898   */\n      tag_417\n        /* \"#utility.yul\":20889:20897   */\n      dup7\n        /* \"#utility.yul\":20878:20887   */\n      dup4\n        /* \"#utility.yul\":20859:20898   */\n      tag_202\n      jump\t// in\n    tag_417:\n        /* \"#utility.yul\":20847:20898   */\n      swap6\n      pop\n        /* \"#utility.yul\":20931:20935   */\n      dup1\n        /* \"#utility.yul\":20927:20936   */\n      not\n        /* \"#utility.yul\":20920:20925   */\n      dup5\n        /* \"#utility.yul\":20916:20937   */\n      and\n        /* \"#utility.yul\":20907:20937   */\n      swap4\n      pop\n        /* \"#utility.yul\":20980:20984   */\n      dup1\n        /* \"#utility.yul\":20970:20978   */\n      dup7\n        /* \"#utility.yul\":20966:20985   */\n      and\n        /* \"#utility.yul\":20959:20964   */\n      dup5\n        /* \"#utility.yul\":20956:20986   */\n      or\n        /* \"#utility.yul\":20946:20986   */\n      swap3\n      pop\n        /* \"#utility.yul\":20675:20992   */\n      pop\n      pop\n        /* \"#utility.yul\":20599:20992   */\n      swap4\n      swap3\n      pop\n      pop\n      pop\n      jump\t// out\n        /* \"#utility.yul\":20998:21058   */\n    tag_204:\n        /* \"#utility.yul\":21026:21029   */\n      0x00\n        /* \"#utility.yul\":21047:21052   */\n      dup2\n        /* \"#utility.yul\":21040:21052   */\n      swap1\n      pop\n        /* \"#utility.yul\":20998:21058   */\n      swap2\n      swap1\n      pop\n      jump\t// out\n        /* \"#utility.yul\":21064:21206   */\n    tag_205:\n        /* \"#utility.yul\":21114:21123   */\n      0x00\n        /* \"#utility.yul\":21147:21200   */\n      tag_420\n        /* \"#utility.yul\":21165:21199   */\n      tag_421\n        /* \"#utility.yul\":21174:21198   */\n      tag_422\n        /* \"#utility.yul\":21192:21197   */\n      dup5\n        /* \"#utility.yul\":21174:21198   */\n      tag_161\n      jump\t// in\n    tag_422:\n        /* \"#utility.yul\":21165:21199   */\n      tag_204\n      jump\t// in\n    tag_421:\n        /* \"#utility.yul\":21147:21200   */\n      tag_161\n      jump\t// in\n    tag_420:\n        /* \"#utility.yul\":21134:21200   */\n      swap1\n      pop\n        /* \"#utility.yul\":21064:21206   */\n      swap2\n      swap1\n      pop\n      jump\t// out\n        /* \"#utility.yul\":21212:21287   */\n    tag_206:\n        /* \"#utility.yul\":21255:21258   */\n      0x00\n        /* \"#utility.yul\":21276:21281   */\n      dup2\n        /* \"#utility.yul\":21269:21281   */\n      swap1\n      pop\n        /* \"#utility.yul\":21212:21287   */\n      swap2\n      swap1\n      pop\n      jump\t// out\n        /* \"#utility.yul\":21293:21562   */\n    tag_207:\n        /* \"#utility.yul\":21403:21442   */\n      tag_425\n        /* \"#utility.yul\":21434:21441   */\n      dup4\n        /* \"#utility.yul\":21403:21442   */\n      tag_205\n      jump\t// in\n    tag_425:\n        /* \"#utility.yul\":21464:21555   */\n      tag_426\n        /* \"#utility.yul\":21513:21554   */\n      tag_427\n        /* \"#utility.yul\":21537:21553   */\n      dup3\n        /* \"#utility.yul\":21513:21554   */\n      tag_206\n      jump\t// in\n    tag_427:\n        /* \"#utility.yul\":21505:21511   */\n      dup5\n        /* \"#utility.yul\":21498:21502   */\n      dup5\n        /* \"#utility.yul\":21492:21503   */\n      sload\n        /* \"#utility.yul\":21464:21555   */\n      tag_203\n      jump\t// in\n    tag_426:\n        /* \"#utility.yul\":21458:21462   */\n      dup3\n        /* \"#utility.yul\":21451:21556   */\n      sstore\n        /* \"#utility.yul\":21369:21562   */\n      pop\n        /* \"#utility.yul\":21293:21562   */\n      pop\n      pop\n      pop\n      jump\t// out\n        /* \"#utility.yul\":21568:21641   */\n    tag_208:\n        /* \"#utility.yul\":21613:21616   */\n      0x00\n        /* \"#utility.yul\":21568:21641   */\n      swap1\n      jump\t// out\n        /* \"#utility.yul\":21647:21836   */\n    tag_209:\n        /* \"#utility.yul\":21724:21756   */\n      tag_430\n      tag_208\n      jump\t// in\n    tag_430:\n        /* \"#utility.yul\":21765:21830   */\n      tag_431\n        /* \"#utility.yul\":21823:21829   */\n      dup2\n        /* \"#utility.yul\":21815:21821   */\n      dup5\n        /* \"#utility.yul\":21809:21813   */\n      dup5\n        /* \"#utility.yul\":21765:21830   */\n      tag_207\n      jump\t// in\n    tag_431:\n        /* \"#utility.yul\":21700:21836   */\n      pop\n        /* \"#utility.yul\":21647:21836   */\n      pop\n      pop\n      jump\t// out\n        /* \"#utility.yul\":21842:22028   */\n    tag_210:\n        /* \"#utility.yul\":21902:22022   */\n    tag_433:\n        /* \"#utility.yul\":21919:21922   */\n      dup2\n        /* \"#utility.yul\":21912:21917   */\n      dup2\n        /* \"#utility.yul\":21909:21923   */\n      lt\n        /* \"#utility.yul\":21902:22022   */\n      iszero\n      tag_435\n      jumpi\n        /* \"#utility.yul\":21973:22012   */\n      tag_436\n        /* \"#utility.yul\":22010:22011   */\n      0x00\n        /* \"#utility.yul\":22003:22008   */\n      dup3\n        /* \"#utility.yul\":21973:22012   */\n      tag_209\n      jump\t// in\n    tag_436:\n        /* \"#utility.yul\":21946:21947   */\n      0x01\n        /* \"#utility.yul\":21939:21944   */\n      dup2\n        /* \"#utility.yul\":21935:21948   */\n      add\n        /* \"#utility.yul\":21926:21948   */\n      swap1\n      pop\n        /* \"#utility.yul\":21902:22022   */\n      jump(tag_433)\n    tag_435:\n        /* \"#utility.yul\":21842:22028   */\n      pop\n      pop\n      jump\t// out\n        /* \"#utility.yul\":22034:22577   */\n    tag_211:\n        /* \"#utility.yul\":22135:22137   */\n      0x1f\n        /* \"#utility.yul\":22130:22133   */\n      dup3\n        /* \"#utility.yul\":22127:22138   */\n      gt\n        /* \"#utility.yul\":22124:22570   */\n      iszero\n      tag_438\n      jumpi\n        /* \"#utility.yul\":22169:22207   */\n      tag_439\n        /* \"#utility.yul\":22201:22206   */\n      dup2\n        /* \"#utility.yul\":22169:22207   */\n      tag_200\n      jump\t// in\n    tag_439:\n        /* \"#utility.yul\":22253:22282   */\n      tag_440\n        /* \"#utility.yul\":22271:22281   */\n      dup5\n        /* \"#utility.yul\":22253:22282   */\n      tag_201\n      jump\t// in\n    tag_440:\n        /* \"#utility.yul\":22243:22251   */\n      dup2\n        /* \"#utility.yul\":22239:22283   */\n      add\n        /* \"#utility.yul\":22436:22438   */\n      0x20\n        /* \"#utility.yul\":22424:22434   */\n      dup6\n        /* \"#utility.yul\":22421:22439   */\n      lt\n        /* \"#utility.yul\":22418:22467   */\n      iszero\n      tag_441\n      jumpi\n        /* \"#utility.yul\":22457:22465   */\n      dup2\n        /* \"#utility.yul\":22442:22465   */\n      swap1\n      pop\n        /* \"#utility.yul\":22418:22467   */\n    tag_441:\n        /* \"#utility.yul\":22480:22560   */\n      tag_442\n        /* \"#utility.yul\":22536:22558   */\n      tag_443\n        /* \"#utility.yul\":22554:22557   */\n      dup6\n        /* \"#utility.yul\":22536:22558   */\n      tag_201\n      jump\t// in\n    tag_443:\n        /* \"#utility.yul\":22526:22534   */\n      dup4\n        /* \"#utility.yul\":22522:22559   */\n      add\n        /* \"#utility.yul\":22509:22520   */\n      dup3\n        /* \"#utility.yul\":22480:22560   */\n      tag_210\n      jump\t// in\n    tag_442:\n        /* \"#utility.yul\":22139:22570   */\n      pop\n      pop\n        /* \"#utility.yul\":22124:22570   */\n    tag_438:\n        /* \"#utility.yul\":22034:22577   */\n      pop\n      pop\n      pop\n      jump\t// out\n        /* \"#utility.yul\":22583:22700   */\n    tag_212:\n        /* \"#utility.yul\":22637:22645   */\n      0x00\n        /* \"#utility.yul\":22687:22692   */\n      dup3\n        /* \"#utility.yul\":22681:22685   */\n      dup3\n        /* \"#utility.yul\":22677:22693   */\n      shr\n        /* \"#utility.yul\":22656:22693   */\n      swap1\n      pop\n        /* \"#utility.yul\":22583:22700   */\n      swap3\n      swap2\n      pop\n      pop\n      jump\t// out\n        /* \"#utility.yul\":22706:22875   */\n    tag_213:\n        /* \"#utility.yul\":22750:22756   */\n      0x00\n        /* \"#utility.yul\":22783:22834   */\n      tag_446\n        /* \"#utility.yul\":22831:22832   */\n      0x00\n        /* \"#utility.yul\":22827:22833   */\n      not\n        /* \"#utility.yul\":22819:22824   */\n      dup5\n        /* \"#utility.yul\":22816:22817   */\n      0x08\n        /* \"#utility.yul\":22812:22825   */\n      mul\n        /* \"#utility.yul\":22783:22834   */\n      tag_212\n      jump\t// in\n    tag_446:\n        /* \"#utility.yul\":22779:22835   */\n      not\n        /* \"#utility.yul\":22864:22868   */\n      dup1\n        /* \"#utility.yul\":22858:22862   */\n      dup4\n        /* \"#utility.yul\":22854:22869   */\n      and\n        /* \"#utility.yul\":22844:22869   */\n      swap2\n      pop\n        /* \"#utility.yul\":22757:22875   */\n      pop\n        /* \"#utility.yul\":22706:22875   */\n      swap3\n      swap2\n      pop\n      pop\n      jump\t// out\n        /* \"#utility.yul\":22880:23175   */\n    tag_214:\n        /* \"#utility.yul\":22956:22960   */\n      0x00\n        /* \"#utility.yul\":23102:23131   */\n      tag_448\n        /* \"#utility.yul\":23127:23130   */\n      dup4\n        /* \"#utility.yul\":23121:23125   */\n      dup4\n        /* \"#utility.yul\":23102:23131   */\n      tag_213\n      jump\t// in\n    tag_448:\n        /* \"#utility.yul\":23094:23131   */\n      swap2\n      pop\n        /* \"#utility.yul\":23164:23167   */\n      dup3\n        /* \"#utility.yul\":23161:23162   */\n      0x02\n        /* \"#utility.yul\":23157:23168   */\n      mul\n        /* \"#utility.yul\":23151:23155   */\n      dup3\n        /* \"#utility.yul\":23148:23169   */\n      or\n        /* \"#utility.yul\":23140:23169   */\n      swap1\n      pop\n        /* \"#utility.yul\":22880:23175   */\n      swap3\n      swap2\n      pop\n      pop\n      jump\t// out\n        /* \"#utility.yul\":23180:24575   */\n    tag_126:\n        /* \"#utility.yul\":23297:23334   */\n      tag_450\n        /* \"#utility.yul\":23330:23333   */\n      dup3\n        /* \"#utility.yul\":23297:23334   */\n      tag_164\n      jump\t// in\n    tag_450:\n        /* \"#utility.yul\":23399:23417   */\n      0xffffffffffffffff\n        /* \"#utility.yul\":23391:23397   */\n      dup2\n        /* \"#utility.yul\":23388:23418   */\n      gt\n        /* \"#utility.yul\":23385:23441   */\n      iszero\n      tag_451\n      jumpi\n        /* \"#utility.yul\":23421:23439   */\n      tag_452\n      tag_173\n      jump\t// in\n    tag_452:\n        /* \"#utility.yul\":23385:23441   */\n    tag_451:\n        /* \"#utility.yul\":23465:23503   */\n      tag_453\n        /* \"#utility.yul\":23497:23501   */\n      dup3\n        /* \"#utility.yul\":23491:23502   */\n      sload\n        /* \"#utility.yul\":23465:23503   */\n      tag_55\n      jump\t// in\n    tag_453:\n        /* \"#utility.yul\":23550:23617   */\n      tag_454\n        /* \"#utility.yul\":23610:23616   */\n      dup3\n        /* \"#utility.yul\":23602:23608   */\n      dup3\n        /* \"#utility.yul\":23596:23600   */\n      dup6\n        /* \"#utility.yul\":23550:23617   */\n      tag_211\n      jump\t// in\n    tag_454:\n        /* \"#utility.yul\":23644:23645   */\n      0x00\n        /* \"#utility.yul\":23668:23672   */\n      0x20\n        /* \"#utility.yul\":23655:23672   */\n      swap1\n      pop\n        /* \"#utility.yul\":23700:23702   */\n      0x1f\n        /* \"#utility.yul\":23692:23698   */\n      dup4\n        /* \"#utility.yul\":23689:23703   */\n      gt\n        /* \"#utility.yul\":23717:23718   */\n      0x01\n        /* \"#utility.yul\":23712:24330   */\n      dup2\n      eq\n      tag_456\n      jumpi\n        /* \"#utility.yul\":24374:24375   */\n      0x00\n        /* \"#utility.yul\":24391:24397   */\n      dup5\n        /* \"#utility.yul\":24388:24465   */\n      iszero\n      tag_457\n      jumpi\n        /* \"#utility.yul\":24440:24449   */\n      dup3\n        /* \"#utility.yul\":24435:24438   */\n      dup8\n        /* \"#utility.yul\":24431:24450   */\n      add\n        /* \"#utility.yul\":24425:24451   */\n      mload\n        /* \"#utility.yul\":24416:24451   */\n      swap1\n      pop\n        /* \"#utility.yul\":24388:24465   */\n    tag_457:\n        /* \"#utility.yul\":24491:24558   */\n      tag_458\n        /* \"#utility.yul\":24551:24557   */\n      dup6\n        /* \"#utility.yul\":24544:24549   */\n      dup3\n        /* \"#utility.yul\":24491:24558   */\n      tag_214\n      jump\t// in\n    tag_458:\n        /* \"#utility.yul\":24485:24489   */\n      dup7\n        /* \"#utility.yul\":24478:24559   */\n      sstore\n        /* \"#utility.yul\":24347:24569   */\n      pop\n        /* \"#utility.yul\":23682:24569   */\n      jump(tag_455)\n        /* \"#utility.yul\":23712:24330   */\n    tag_456:\n        /* \"#utility.yul\":23764:23768   */\n      0x1f\n        /* \"#utility.yul\":23760:23769   */\n      not\n        /* \"#utility.yul\":23752:23758   */\n      dup5\n        /* \"#utility.yul\":23748:23770   */\n      and\n        /* \"#utility.yul\":23798:23835   */\n      tag_459\n        /* \"#utility.yul\":23830:23834   */\n      dup7\n        /* \"#utility.yul\":23798:23835   */\n      tag_200\n      jump\t// in\n    tag_459:\n        /* \"#utility.yul\":23857:23858   */\n      0x00\n        /* \"#utility.yul\":23871:24079   */\n    tag_460:\n        /* \"#utility.yul\":23885:23892   */\n      dup3\n        /* \"#utility.yul\":23882:23883   */\n      dup2\n        /* \"#utility.yul\":23879:23893   */\n      lt\n        /* \"#utility.yul\":23871:24079   */\n      iszero\n      tag_462\n      jumpi\n        /* \"#utility.yul\":23964:23973   */\n      dup5\n        /* \"#utility.yul\":23959:23962   */\n      dup10\n        /* \"#utility.yul\":23955:23974   */\n      add\n        /* \"#utility.yul\":23949:23975   */\n      mload\n        /* \"#utility.yul\":23941:23947   */\n      dup3\n        /* \"#utility.yul\":23934:23976   */\n      sstore\n        /* \"#utility.yul\":24015:24016   */\n      0x01\n        /* \"#utility.yul\":24007:24013   */\n      dup3\n        /* \"#utility.yul\":24003:24017   */\n      add\n        /* \"#utility.yul\":23993:24017   */\n      swap2\n      pop\n        /* \"#utility.yul\":24062:24064   */\n      0x20\n        /* \"#utility.yul\":24051:24060   */\n      dup6\n        /* \"#utility.yul\":24047:24065   */\n      add\n        /* \"#utility.yul\":24034:24065   */\n      swap5\n      pop\n        /* \"#utility.yul\":23908:23912   */\n      0x20\n        /* \"#utility.yul\":23905:23906   */\n      dup2\n        /* \"#utility.yul\":23901:23913   */\n      add\n        /* \"#utility.yul\":23896:23913   */\n      swap1\n      pop\n        /* \"#utility.yul\":23871:24079   */\n      jump(tag_460)\n    tag_462:\n        /* \"#utility.yul\":24107:24113   */\n      dup7\n        /* \"#utility.yul\":24098:24105   */\n      dup4\n        /* \"#utility.yul\":24095:24114   */\n      lt\n        /* \"#utility.yul\":24092:24271   */\n      iszero\n      tag_463\n      jumpi\n        /* \"#utility.yul\":24165:24174   */\n      dup5\n        /* \"#utility.yul\":24160:24163   */\n      dup10\n        /* \"#utility.yul\":24156:24175   */\n      add\n        /* \"#utility.yul\":24150:24176   */\n      mload\n        /* \"#utility.yul\":24208:24256   */\n      tag_464\n        /* \"#utility.yul\":24250:24254   */\n      0x1f\n        /* \"#utility.yul\":24242:24248   */\n      dup10\n        /* \"#utility.yul\":24238:24255   */\n      and\n        /* \"#utility.yul\":24227:24236   */\n      dup3\n        /* \"#utility.yul\":24208:24256   */\n      tag_213\n      jump\t// in\n    tag_464:\n        /* \"#utility.yul\":24200:24206   */\n      dup4\n        /* \"#utility.yul\":24193:24257   */\n      sstore\n        /* \"#utility.yul\":24115:24271   */\n      pop\n        /* \"#utility.yul\":24092:24271   */\n    tag_463:\n        /* \"#utility.yul\":24317:24318   */\n      0x01\n        /* \"#utility.yul\":24313:24314   */\n      0x02\n        /* \"#utility.yul\":24305:24311   */\n      dup9\n        /* \"#utility.yul\":24301:24315   */\n      mul\n        /* \"#utility.yul\":24297:24319   */\n      add\n        /* \"#utility.yul\":24291:24295   */\n      dup9\n        /* \"#utility.yul\":24284:24320   */\n      sstore\n        /* \"#utility.yul\":23719:24330   */\n      pop\n      pop\n      pop\n        /* \"#utility.yul\":23682:24569   */\n    tag_455:\n      pop\n        /* \"#utility.yul\":23272:24575   */\n      pop\n      pop\n      pop\n        /* \"#utility.yul\":23180:24575   */\n      pop\n      pop\n      jump\t// out\n        /* \"#utility.yul\":24581:24751   */\n    tag_215:\n        /* \"#utility.yul\":24721:24743   */\n      0x496e73756666696369656e74207061796d656e74000000000000000000000000\n        /* \"#utility.yul\":24717:24718   */\n      0x00\n        /* \"#utility.yul\":24709:24715   */\n      dup3\n        /* \"#utility.yul\":24705:24719   */\n      add\n        /* \"#utility.yul\":24698:24744   */\n      mstore\n        /* \"#utility.yul\":24581:24751   */\n      pop\n      jump\t// out\n        /* \"#utility.yul\":24757:25123   */\n    tag_216:\n        /* \"#utility.yul\":24899:24902   */\n      0x00\n        /* \"#utility.yul\":24920:24987   */\n      tag_467\n        /* \"#utility.yul\":24984:24986   */\n      0x14\n        /* \"#utility.yul\":24979:24982   */\n      dup4\n        /* \"#utility.yul\":24920:24987   */\n      tag_165\n      jump\t// in\n    tag_467:\n        /* \"#utility.yul\":24913:24987   */\n      swap2\n      pop\n        /* \"#utility.yul\":24996:25089   */\n      tag_468\n        /* \"#utility.yul\":25085:25088   */\n      dup3\n        /* \"#utility.yul\":24996:25089   */\n      tag_215\n      jump\t// in\n    tag_468:\n        /* \"#utility.yul\":25114:25116   */\n      0x20\n        /* \"#utility.yul\":25109:25112   */\n      dup3\n        /* \"#utility.yul\":25105:25117   */\n      add\n        /* \"#utility.yul\":25098:25117   */\n      swap1\n      pop\n        /* \"#utility.yul\":24757:25123   */\n      swap2\n      swap1\n      pop\n      jump\t// out\n        /* \"#utility.yul\":25129:25548   */\n    tag_144:\n        /* \"#utility.yul\":25295:25299   */\n      0x00\n        /* \"#utility.yul\":25333:25335   */\n      0x20\n        /* \"#utility.yul\":25322:25331   */\n      dup3\n        /* \"#utility.yul\":25318:25336   */\n      add\n        /* \"#utility.yul\":25310:25336   */\n      swap1\n      pop\n        /* \"#utility.yul\":25382:25391   */\n      dup2\n        /* \"#utility.yul\":25376:25380   */\n      dup2\n        /* \"#utility.yul\":25372:25392   */\n      sub\n        /* \"#utility.yul\":25368:25369   */\n      0x00\n        /* \"#utility.yul\":25357:25366   */\n      dup4\n        /* \"#utility.yul\":25353:25370   */\n      add\n        /* \"#utility.yul\":25346:25393   */\n      mstore\n        /* \"#utility.yul\":25410:25541   */\n      tag_470\n        /* \"#utility.yul\":25536:25540   */\n      dup2\n        /* \"#utility.yul\":25410:25541   */\n      tag_216\n      jump\t// in\n    tag_470:\n        /* \"#utility.yul\":25402:25541   */\n      swap1\n      pop\n        /* \"#utility.yul\":25129:25548   */\n      swap2\n      swap1\n      pop\n      jump\t// out\n\n    auxdata: 0xa26469706673582212208263a5ce50a089c007ee1cd0eecf48efa531c8974ea1e64b20eccf2b65f3604c64736f6c63430008110033\n}\n",
				"bytecode": {
					"linkReferences": {},
					"object": "608060405234801561001057600080fd5b50611dce806100206000396000f3fe6080604052600436106100705760003560e01c8063a92e06a51161004e578063a92e06a514610108578063ca33921214610131578063ec4ceeea1461015a578063fe6a30ca1461018357610070565b8063594b1bfd146100755780635e7b5fbf146100b6578063654fc833146100df575b600080fd5b34801561008157600080fd5b5061009c600480360381019061009791906110f0565b61019f565b6040516100ad9594939291906111de565b60405180910390f35b3480156100c257600080fd5b506100dd60048036038101906100d89190611374565b610453565b005b3480156100eb57600080fd5b50610106600480360381019061010191906113d0565b610505565b005b34801561011457600080fd5b5061012f600480360381019061012a91906113fd565b61077a565b005b34801561013d57600080fd5b5061015860048036038101906101539190611505565b6109d3565b005b34801561016657600080fd5b50610181600480360381019061017c91906115b8565b610c2d565b005b61019d60048036038101906101989190611657565b610dfd565b005b6060806000806000856000808973ffffffffffffffffffffffffffffffffffffffff1673ffffffffffffffffffffffffffffffffffffffff168152602001908152602001600020805490501161022a576040517f08c379a0000000000000000000000000000000000000000000000000000000008152600401610221906116f6565b60405180910390fd5b60008060008973ffffffffffffffffffffffffffffffffffffffff1673ffffffffffffffffffffffffffffffffffffffff168152602001908152602001600020878154811061027c5761027b611716565b5b90600052602060002090600502016040518060a00160405290816000820180546102a590611774565b80601f01602080910402602001604051908101604052809291908181526020018280546102d190611774565b801561031e5780601f106102f35761010080835404028352916020019161031e565b820191906000526020600020905b81548152906001019060200180831161030157829003601f168201915b5050505050815260200160018201805461033790611774565b80601f016020809104026020016040519081016040528092919081815260200182805461036390611774565b80156103b05780601f10610385576101008083540402835291602001916103b0565b820191906000526020600020905b81548152906001019060200180831161039357829003601f168201915b5050505050815260200160028201548152602001600382015481526020016004820160009054906101000a900473ffffffffffffffffffffffffffffffffffffffff1673ffffffffffffffffffffffffffffffffffffffff1673ffffffffffffffffffffffffffffffffffffffff168152505090508060000151816020015182604001518360600151846080015195509550955095509550509295509295909350565b60008273ffffffffffffffffffffffffffffffffffffffff168260405161047a91906117ec565b6000604051808303816000865af19150503d80600081146104b7576040519150601f19603f3d011682016040523d82523d6000602084013e6104bc565b606091505b5050905080610500576040517f08c379a00000000000000000000000000000000000000000000000000000000081526004016104f79061184f565b60405180910390fd5b505050565b3381806000808473ffffffffffffffffffffffffffffffffffffffff1673ffffffffffffffffffffffffffffffffffffffff168152602001908152602001600020805490501161058a576040517f08c379a0000000000000000000000000000000000000000000000000000000008152600401610581906116f6565b60405180910390fd5b3373ffffffffffffffffffffffffffffffffffffffff166000808473ffffffffffffffffffffffffffffffffffffffff1673ffffffffffffffffffffffffffffffffffffffff16815260200190815260200160002082815481106105f1576105f0611716565b5b906000526020600020906005020160040160009054906101000a900473ffffffffffffffffffffffffffffffffffffffff1673ffffffffffffffffffffffffffffffffffffffff1614610679576040517f08c379a0000000000000000000000000000000000000000000000000000000008152600401610670906118bb565b60405180910390fd5b6000803373ffffffffffffffffffffffffffffffffffffffff1673ffffffffffffffffffffffffffffffffffffffff16815260200190815260200160002083815481106106c9576106c8611716565b5b9060005260206000209060050201600080820160006106e89190610feb565b6001820160006106f89190610feb565b600282016000905560038201600090556004820160006101000a81549073ffffffffffffffffffffffffffffffffffffffff02191690555050823373ffffffffffffffffffffffffffffffffffffffff167f21c5ff13f7a7163d7cd6a98d82517de93dcc833b527ad63a5550894be16070c860405160405180910390a3505050565b826000808673ffffffffffffffffffffffffffffffffffffffff1673ffffffffffffffffffffffffffffffffffffffff16815260200190815260200160002080549050116107fd576040517f08c379a00000000000000000000000000000000000000000000000000000000081526004016107f4906116f6565b60405180910390fd5b60008060008673ffffffffffffffffffffffffffffffffffffffff1673ffffffffffffffffffffffffffffffffffffffff168152602001908152602001600020848154811061084f5761084e611716565b5b9060005260206000209060050201905082816003015410156108a6576040517f08c379a000000000000000000000000000000000000000000000000000000000815260040161089d90611927565b60405180910390fd5b60008273ffffffffffffffffffffffffffffffffffffffff168483600201546108cf9190611976565b6040516108db906119de565b60006040518083038185875af1925050503d8060008114610918576040519150601f19603f3d011682016040523d82523d6000602084013e61091d565b606091505b5050905080610961576040517f08c379a000000000000000000000000000000000000000000000000000000000815260040161095890611a3f565b60405180910390fd5b838260030160008282546109759190611a5f565b92505081905550848673ffffffffffffffffffffffffffffffffffffffff167f1452773cf753d0d7c71ed9990f7c7e2bdde4a2d08d187b3647953877e400488d866040516109c39190611a93565b60405180910390a3505050505050565b3385806000808473ffffffffffffffffffffffffffffffffffffffff1673ffffffffffffffffffffffffffffffffffffffff1681526020019081526020016000208054905011610a58576040517f08c379a0000000000000000000000000000000000000000000000000000000008152600401610a4f906116f6565b60405180910390fd5b3373ffffffffffffffffffffffffffffffffffffffff166000808473ffffffffffffffffffffffffffffffffffffffff1673ffffffffffffffffffffffffffffffffffffffff1681526020019081526020016000208281548110610abf57610abe611716565b5b906000526020600020906005020160040160009054906101000a900473ffffffffffffffffffffffffffffffffffffffff1673ffffffffffffffffffffffffffffffffffffffff1614610b47576040517f08c379a0000000000000000000000000000000000000000000000000000000008152600401610b3e906118bb565b60405180910390fd5b60008060003373ffffffffffffffffffffffffffffffffffffffff1673ffffffffffffffffffffffffffffffffffffffff1681526020019081526020016000208881548110610b9957610b98611716565b5b9060005260206000209060050201905086816000019081610bba9190611c5a565b5085816001019081610bcc9190611c5a565b50848160020181905550838160030181905550873373ffffffffffffffffffffffffffffffffffffffff167fef5c8e262c5ede94f110ea1a85d49828bf157d39ff38b9dd555e8f409c93f05860405160405180910390a35050505050505050565b60006040518060a001604052808681526020018581526020018481526020018381526020013373ffffffffffffffffffffffffffffffffffffffff1681525090506000803373ffffffffffffffffffffffffffffffffffffffff1673ffffffffffffffffffffffffffffffffffffffff1681526020019081526020016000208190806001815401808255809150506001900390600052602060002090600502016000909190919091506000820151816000019081610ceb9190611c5a565b506020820151816001019081610d019190611c5a565b50604082015181600201556060820151816003015560808201518160040160006101000a81548173ffffffffffffffffffffffffffffffffffffffff021916908373ffffffffffffffffffffffffffffffffffffffff1602179055505050600060016000803373ffffffffffffffffffffffffffffffffffffffff1673ffffffffffffffffffffffffffffffffffffffff16815260200190815260200160002080549050610daf9190611a5f565b9050803373ffffffffffffffffffffffffffffffffffffffff167f5fa975b058a6046ec5054ab1ec0cc5c350c1c467c8147cd03ca62342bc63545e60405160405180910390a3505050505050565b816000808573ffffffffffffffffffffffffffffffffffffffff1673ffffffffffffffffffffffffffffffffffffffff1681526020019081526020016000208054905011610e80576040517f08c379a0000000000000000000000000000000000000000000000000000000008152600401610e77906116f6565b60405180910390fd5b60008060008573ffffffffffffffffffffffffffffffffffffffff1673ffffffffffffffffffffffffffffffffffffffff1681526020019081526020016000208381548110610ed257610ed1611716565b5b906000526020600020906005020190508181600301541015610f29576040517f08c379a0000000000000000000000000000000000000000000000000000000008152600401610f2090611927565b60405180910390fd5b818160020154610f399190611976565b341015610f7b576040517f08c379a0000000000000000000000000000000000000000000000000000000008152600401610f7290611d78565b60405180910390fd5b81816003016000828254610f8f9190611a5f565b92505081905550828473ffffffffffffffffffffffffffffffffffffffff167f1452773cf753d0d7c71ed9990f7c7e2bdde4a2d08d187b3647953877e400488d84604051610fdd9190611a93565b60405180910390a350505050565b508054610ff790611774565b6000825580601f106110095750611028565b601f016020900490600052602060002090810190611027919061102b565b5b50565b5b8082111561104457600081600090555060010161102c565b5090565b6000604051905090565b600080fd5b600080fd5b600073ffffffffffffffffffffffffffffffffffffffff82169050919050565b60006110878261105c565b9050919050565b6110978161107c565b81146110a257600080fd5b50565b6000813590506110b48161108e565b92915050565b6000819050919050565b6110cd816110ba565b81146110d857600080fd5b50565b6000813590506110ea816110c4565b92915050565b6000806040838503121561110757611106611052565b5b6000611115858286016110a5565b9250506020611126858286016110db565b9150509250929050565b600081519050919050565b600082825260208201905092915050565b60005b8381101561116a57808201518184015260208101905061114f565b60008484015250505050565b6000601f19601f8301169050919050565b600061119282611130565b61119c818561113b565b93506111ac81856020860161114c565b6111b581611176565b840191505092915050565b6111c9816110ba565b82525050565b6111d88161107c565b82525050565b600060a08201905081810360008301526111f88188611187565b9050818103602083015261120c8187611187565b905061121b60408301866111c0565b61122860608301856111c0565b61123560808301846111cf565b9695505050505050565b600080fd5b600080fd5b7f4e487b7100000000000000000000000000000000000000000000000000000000600052604160045260246000fd5b61128182611176565b810181811067ffffffffffffffff821117156112a05761129f611249565b5b80604052505050565b60006112b3611048565b90506112bf8282611278565b919050565b600067ffffffffffffffff8211156112df576112de611249565b5b6112e882611176565b9050602081019050919050565b82818337600083830152505050565b6000611317611312846112c4565b6112a9565b90508281526020810184848401111561133357611332611244565b5b61133e8482856112f5565b509392505050565b600082601f83011261135b5761135a61123f565b5b813561136b848260208601611304565b91505092915050565b6000806040838503121561138b5761138a611052565b5b6000611399858286016110a5565b925050602083013567ffffffffffffffff8111156113ba576113b9611057565b5b6113c685828601611346565b9150509250929050565b6000602082840312156113e6576113e5611052565b5b60006113f4848285016110db565b91505092915050565b6000806000806080858703121561141757611416611052565b5b6000611425878288016110a5565b9450506020611436878288016110db565b9350506040611447878288016110db565b9250506060611458878288016110a5565b91505092959194509250565b600067ffffffffffffffff82111561147f5761147e611249565b5b61148882611176565b9050602081019050919050565b60006114a86114a384611464565b6112a9565b9050828152602081018484840111156114c4576114c3611244565b5b6114cf8482856112f5565b509392505050565b600082601f8301126114ec576114eb61123f565b5b81356114fc848260208601611495565b91505092915050565b600080600080600060a0868803121561152157611520611052565b5b600061152f888289016110db565b955050602086013567ffffffffffffffff8111156115505761154f611057565b5b61155c888289016114d7565b945050604086013567ffffffffffffffff81111561157d5761157c611057565b5b611589888289016114d7565b935050606061159a888289016110db565b92505060806115ab888289016110db565b9150509295509295909350565b600080600080608085870312156115d2576115d1611052565b5b600085013567ffffffffffffffff8111156115f0576115ef611057565b5b6115fc878288016114d7565b945050602085013567ffffffffffffffff81111561161d5761161c611057565b5b611629878288016114d7565b935050604061163a878288016110db565b925050606061164b878288016110db565b91505092959194509250565b6000806000606084860312156116705761166f611052565b5b600061167e868287016110a5565b935050602061168f868287016110db565b92505060406116a0868287016110db565b9150509250925092565b7f496e76616c6964206974656d2049440000000000000000000000000000000000600082015250565b60006116e0600f8361113b565b91506116eb826116aa565b602082019050919050565b6000602082019050818103600083015261170f816116d3565b9050919050565b7f4e487b7100000000000000000000000000000000000000000000000000000000600052603260045260246000fd5b7f4e487b7100000000000000000000000000000000000000000000000000000000600052602260045260246000fd5b6000600282049050600182168061178c57607f821691505b60208210810361179f5761179e611745565b5b50919050565b600081519050919050565b600081905092915050565b60006117c6826117a5565b6117d081856117b0565b93506117e081856020860161114c565b80840191505092915050565b60006117f882846117bb565b915081905092915050565b7f45787465726e616c20636f6e74726163742063616c6c206661696c6564000000600082015250565b6000611839601d8361113b565b915061184482611803565b602082019050919050565b600060208201905081810360008301526118688161182c565b9050919050565b7f4e6f7420746865206974656d206f776e65720000000000000000000000000000600082015250565b60006118a560128361113b565b91506118b08261186f565b602082019050919050565b600060208201905081810360008301526118d481611898565b9050919050565b7f4e6f7420656e6f756768207175616e7469747920617661696c61626c65000000600082015250565b6000611911601d8361113b565b915061191c826118db565b602082019050919050565b6000602082019050818103600083015261194081611904565b9050919050565b7f4e487b7100000000000000000000000000000000000000000000000000000000600052601160045260246000fd5b6000611981826110ba565b915061198c836110ba565b925082820261199a816110ba565b915082820484148315176119b1576119b0611947565b5b5092915050565b50565b60006119c86000836117b0565b91506119d3826119b8565b600082019050919050565b60006119e9826119bb565b9150819050919050565b7f5061796d656e74206661696c6564000000000000000000000000000000000000600082015250565b6000611a29600e8361113b565b9150611a34826119f3565b602082019050919050565b60006020820190508181036000830152611a5881611a1c565b9050919050565b6000611a6a826110ba565b9150611a75836110ba565b9250828203905081811115611a8d57611a8c611947565b5b92915050565b6000602082019050611aa860008301846111c0565b92915050565b60008190508160005260206000209050919050565b60006020601f8301049050919050565b600082821b905092915050565b600060088302611b107fffffffffffffffffffffffffffffffffffffffffffffffffffffffffffffffff82611ad3565b611b1a8683611ad3565b95508019841693508086168417925050509392505050565b6000819050919050565b6000611b57611b52611b4d846110ba565b611b32565b6110ba565b9050919050565b6000819050919050565b611b7183611b3c565b611b85611b7d82611b5e565b848454611ae0565b825550505050565b600090565b611b9a611b8d565b611ba5818484611b68565b505050565b5b81811015611bc957611bbe600082611b92565b600181019050611bab565b5050565b601f821115611c0e57611bdf81611aae565b611be884611ac3565b81016020851015611bf7578190505b611c0b611c0385611ac3565b830182611baa565b50505b505050565b600082821c905092915050565b6000611c3160001984600802611c13565b1980831691505092915050565b6000611c4a8383611c20565b9150826002028217905092915050565b611c6382611130565b67ffffffffffffffff811115611c7c57611c7b611249565b5b611c868254611774565b611c91828285611bcd565b600060209050601f831160018114611cc45760008415611cb2578287015190505b611cbc8582611c3e565b865550611d24565b601f198416611cd286611aae565b60005b82811015611cfa57848901518255600182019150602085019450602081019050611cd5565b86831015611d175784890151611d13601f891682611c20565b8355505b6001600288020188555050505b505050505050565b7f496e73756666696369656e74207061796d656e74000000000000000000000000600082015250565b6000611d6260148361113b565b9150611d6d82611d2c565b602082019050919050565b60006020820190508181036000830152611d9181611d55565b905091905056fea26469706673582212208263a5ce50a089c007ee1cd0eecf48efa531c8974ea1e64b20eccf2b65f3604c64736f6c63430008110033",
					"opcodes": "PUSH1 0x80 PUSH1 0x40 MSTORE CALLVALUE DUP1 ISZERO PUSH2 0x10 JUMPI PUSH1 0x0 DUP1 REVERT JUMPDEST POP PUSH2 0x1DCE DUP1 PUSH2 0x20 PUSH1 0x0 CODECOPY PUSH1 0x0 RETURN INVALID PUSH1 0x80 PUSH1 0x40 MSTORE PUSH1 0x4 CALLDATASIZE LT PUSH2 0x70 JUMPI PUSH1 0x0 CALLDATALOAD PUSH1 0xE0 SHR DUP1 PUSH4 0xA92E06A5 GT PUSH2 0x4E JUMPI DUP1 PUSH4 0xA92E06A5 EQ PUSH2 0x108 JUMPI DUP1 PUSH4 0xCA339212 EQ PUSH2 0x131 JUMPI DUP1 PUSH4 0xEC4CEEEA EQ PUSH2 0x15A JUMPI DUP1 PUSH4 0xFE6A30CA EQ PUSH2 0x183 JUMPI PUSH2 0x70 JUMP JUMPDEST DUP1 PUSH4 0x594B1BFD EQ PUSH2 0x75 JUMPI DUP1 PUSH4 0x5E7B5FBF EQ PUSH2 0xB6 JUMPI DUP1 PUSH4 0x654FC833 EQ PUSH2 0xDF JUMPI JUMPDEST PUSH1 0x0 DUP1 REVERT JUMPDEST CALLVALUE DUP1 ISZERO PUSH2 0x81 JUMPI PUSH1 0x0 DUP1 REVERT JUMPDEST POP PUSH2 0x9C PUSH1 0x4 DUP1 CALLDATASIZE SUB DUP2 ADD SWAP1 PUSH2 0x97 SWAP2 SWAP1 PUSH2 0x10F0 JUMP JUMPDEST PUSH2 0x19F JUMP JUMPDEST PUSH1 0x40 MLOAD PUSH2 0xAD SWAP6 SWAP5 SWAP4 SWAP3 SWAP2 SWAP1 PUSH2 0x11DE JUMP JUMPDEST PUSH1 0x40 MLOAD DUP1 SWAP2 SUB SWAP1 RETURN JUMPDEST CALLVALUE DUP1 ISZERO PUSH2 0xC2 JUMPI PUSH1 0x0 DUP1 REVERT JUMPDEST POP PUSH2 0xDD PUSH1 0x4 DUP1 CALLDATASIZE SUB DUP2 ADD SWAP1 PUSH2 0xD8 SWAP2 SWAP1 PUSH2 0x1374 JUMP JUMPDEST PUSH2 0x453 JUMP JUMPDEST STOP JUMPDEST CALLVALUE DUP1 ISZERO PUSH2 0xEB JUMPI PUSH1 0x0 DUP1 REVERT JUMPDEST POP PUSH2 0x106 PUSH1 0x4 DUP1 CALLDATASIZE SUB DUP2 ADD SWAP1 PUSH2 0x101 SWAP2 SWAP1 PUSH2 0x13D0 JUMP JUMPDEST PUSH2 0x505 JUMP JUMPDEST STOP JUMPDEST CALLVALUE DUP1 ISZERO PUSH2 0x114 JUMPI PUSH1 0x0 DUP1 REVERT JUMPDEST POP PUSH2 0x12F PUSH1 0x4 DUP1 CALLDATASIZE SUB DUP2 ADD SWAP1 PUSH2 0x12A SWAP2 SWAP1 PUSH2 0x13FD JUMP JUMPDEST PUSH2 0x77A JUMP JUMPDEST STOP JUMPDEST CALLVALUE DUP1 ISZERO PUSH2 0x13D JUMPI PUSH1 0x0 DUP1 REVERT JUMPDEST POP PUSH2 0x158 PUSH1 0x4 DUP1 CALLDATASIZE SUB DUP2 ADD SWAP1 PUSH2 0x153 SWAP2 SWAP1 PUSH2 0x1505 JUMP JUMPDEST PUSH2 0x9D3 JUMP JUMPDEST STOP JUMPDEST CALLVALUE DUP1 ISZERO PUSH2 0x166 JUMPI PUSH1 0x0 DUP1 REVERT JUMPDEST POP PUSH2 0x181 PUSH1 0x4 DUP1 CALLDATASIZE SUB DUP2 ADD SWAP1 PUSH2 0x17C SWAP2 SWAP1 PUSH2 0x15B8 JUMP JUMPDEST PUSH2 0xC2D JUMP JUMPDEST STOP JUMPDEST PUSH2 0x19D PUSH1 0x4 DUP1 CALLDATASIZE SUB DUP2 ADD SWAP1 PUSH2 0x198 SWAP2 SWAP1 PUSH2 0x1657 JUMP JUMPDEST PUSH2 0xDFD JUMP JUMPDEST STOP JUMPDEST PUSH1 0x60 DUP1 PUSH1 0x0 DUP1 PUSH1 0x0 DUP6 PUSH1 0x0 DUP1 DUP10 PUSH20 0xFFFFFFFFFFFFFFFFFFFFFFFFFFFFFFFFFFFFFFFF AND PUSH20 0xFFFFFFFFFFFFFFFFFFFFFFFFFFFFFFFFFFFFFFFF AND DUP2 MSTORE PUSH1 0x20 ADD SWAP1 DUP2 MSTORE PUSH1 0x20 ADD PUSH1 0x0 KECCAK256 DUP1 SLOAD SWAP1 POP GT PUSH2 0x22A JUMPI PUSH1 0x40 MLOAD PUSH32 0x8C379A000000000000000000000000000000000000000000000000000000000 DUP2 MSTORE PUSH1 0x4 ADD PUSH2 0x221 SWAP1 PUSH2 0x16F6 JUMP JUMPDEST PUSH1 0x40 MLOAD DUP1 SWAP2 SUB SWAP1 REVERT JUMPDEST PUSH1 0x0 DUP1 PUSH1 0x0 DUP10 PUSH20 0xFFFFFFFFFFFFFFFFFFFFFFFFFFFFFFFFFFFFFFFF AND PUSH20 0xFFFFFFFFFFFFFFFFFFFFFFFFFFFFFFFFFFFFFFFF AND DUP2 MSTORE PUSH1 0x20 ADD SWAP1 DUP2 MSTORE PUSH1 0x20 ADD PUSH1 0x0 KECCAK256 DUP8 DUP2 SLOAD DUP2 LT PUSH2 0x27C JUMPI PUSH2 0x27B PUSH2 0x1716 JUMP JUMPDEST JUMPDEST SWAP1 PUSH1 0x0 MSTORE PUSH1 0x20 PUSH1 0x0 KECCAK256 SWAP1 PUSH1 0x5 MUL ADD PUSH1 0x40 MLOAD DUP1 PUSH1 0xA0 ADD PUSH1 0x40 MSTORE SWAP1 DUP2 PUSH1 0x0 DUP3 ADD DUP1 SLOAD PUSH2 0x2A5 SWAP1 PUSH2 0x1774 JUMP JUMPDEST DUP1 PUSH1 0x1F ADD PUSH1 0x20 DUP1 SWAP2 DIV MUL PUSH1 0x20 ADD PUSH1 0x40 MLOAD SWAP1 DUP2 ADD PUSH1 0x40 MSTORE DUP1 SWAP3 SWAP2 SWAP1 DUP2 DUP2 MSTORE PUSH1 0x20 ADD DUP3 DUP1 SLOAD PUSH2 0x2D1 SWAP1 PUSH2 0x1774 JUMP JUMPDEST DUP1 ISZERO PUSH2 0x31E JUMPI DUP1 PUSH1 0x1F LT PUSH2 0x2F3 JUMPI PUSH2 0x100 DUP1 DUP4 SLOAD DIV MUL DUP4 MSTORE SWAP2 PUSH1 0x20 ADD SWAP2 PUSH2 0x31E JUMP JUMPDEST DUP3 ADD SWAP2 SWAP1 PUSH1 0x0 MSTORE PUSH1 0x20 PUSH1 0x0 KECCAK256 SWAP1 JUMPDEST DUP2 SLOAD DUP2 MSTORE SWAP1 PUSH1 0x1 ADD SWAP1 PUSH1 0x20 ADD DUP1 DUP4 GT PUSH2 0x301 JUMPI DUP3 SWAP1 SUB PUSH1 0x1F AND DUP3 ADD SWAP2 JUMPDEST POP POP POP POP POP DUP2 MSTORE PUSH1 0x20 ADD PUSH1 0x1 DUP3 ADD DUP1 SLOAD PUSH2 0x337 SWAP1 PUSH2 0x1774 JUMP JUMPDEST DUP1 PUSH1 0x1F ADD PUSH1 0x20 DUP1 SWAP2 DIV MUL PUSH1 0x20 ADD PUSH1 0x40 MLOAD SWAP1 DUP2 ADD PUSH1 0x40 MSTORE DUP1 SWAP3 SWAP2 SWAP1 DUP2 DUP2 MSTORE PUSH1 0x20 ADD DUP3 DUP1 SLOAD PUSH2 0x363 SWAP1 PUSH2 0x1774 JUMP JUMPDEST DUP1 ISZERO PUSH2 0x3B0 JUMPI DUP1 PUSH1 0x1F LT PUSH2 0x385 JUMPI PUSH2 0x100 DUP1 DUP4 SLOAD DIV MUL DUP4 MSTORE SWAP2 PUSH1 0x20 ADD SWAP2 PUSH2 0x3B0 JUMP JUMPDEST DUP3 ADD SWAP2 SWAP1 PUSH1 0x0 MSTORE PUSH1 0x20 PUSH1 0x0 KECCAK256 SWAP1 JUMPDEST DUP2 SLOAD DUP2 MSTORE SWAP1 PUSH1 0x1 ADD SWAP1 PUSH1 0x20 ADD DUP1 DUP4 GT PUSH2 0x393 JUMPI DUP3 SWAP1 SUB PUSH1 0x1F AND DUP3 ADD SWAP2 JUMPDEST POP POP POP POP POP DUP2 MSTORE PUSH1 0x20 ADD PUSH1 0x2 DUP3 ADD SLOAD DUP2 MSTORE PUSH1 0x20 ADD PUSH1 0x3 DUP3 ADD SLOAD DUP2 MSTORE PUSH1 0x20 ADD PUSH1 0x4 DUP3 ADD PUSH1 0x0 SWAP1 SLOAD SWAP1 PUSH2 0x100 EXP SWAP1 DIV PUSH20 0xFFFFFFFFFFFFFFFFFFFFFFFFFFFFFFFFFFFFFFFF AND PUSH20 0xFFFFFFFFFFFFFFFFFFFFFFFFFFFFFFFFFFFFFFFF AND PUSH20 0xFFFFFFFFFFFFFFFFFFFFFFFFFFFFFFFFFFFFFFFF AND DUP2 MSTORE POP POP SWAP1 POP DUP1 PUSH1 0x0 ADD MLOAD DUP2 PUSH1 0x20 ADD MLOAD DUP3 PUSH1 0x40 ADD MLOAD DUP4 PUSH1 0x60 ADD MLOAD DUP5 PUSH1 0x80 ADD MLOAD SWAP6 POP SWAP6 POP SWAP6 POP SWAP6 POP SWAP6 POP POP SWAP3 SWAP6 POP SWAP3 SWAP6 SWAP1 SWAP4 POP JUMP JUMPDEST PUSH1 0x0 DUP3 PUSH20 0xFFFFFFFFFFFFFFFFFFFFFFFFFFFFFFFFFFFFFFFF AND DUP3 PUSH1 0x40 MLOAD PUSH2 0x47A SWAP2 SWAP1 PUSH2 0x17EC JUMP JUMPDEST PUSH1 0x0 PUSH1 0x40 MLOAD DUP1 DUP4 SUB DUP2 PUSH1 0x0 DUP7 GAS CALL SWAP2 POP POP RETURNDATASIZE DUP1 PUSH1 0x0 DUP2 EQ PUSH2 0x4B7 JUMPI PUSH1 0x40 MLOAD SWAP2 POP PUSH1 0x1F NOT PUSH1 0x3F RETURNDATASIZE ADD AND DUP3 ADD PUSH1 0x40 MSTORE RETURNDATASIZE DUP3 MSTORE RETURNDATASIZE PUSH1 0x0 PUSH1 0x20 DUP5 ADD RETURNDATACOPY PUSH2 0x4BC JUMP JUMPDEST PUSH1 0x60 SWAP2 POP JUMPDEST POP POP SWAP1 POP DUP1 PUSH2 0x500 JUMPI PUSH1 0x40 MLOAD PUSH32 0x8C379A000000000000000000000000000000000000000000000000000000000 DUP2 MSTORE PUSH1 0x4 ADD PUSH2 0x4F7 SWAP1 PUSH2 0x184F JUMP JUMPDEST PUSH1 0x40 MLOAD DUP1 SWAP2 SUB SWAP1 REVERT JUMPDEST POP POP POP JUMP JUMPDEST CALLER DUP2 DUP1 PUSH1 0x0 DUP1 DUP5 PUSH20 0xFFFFFFFFFFFFFFFFFFFFFFFFFFFFFFFFFFFFFFFF AND PUSH20 0xFFFFFFFFFFFFFFFFFFFFFFFFFFFFFFFFFFFFFFFF AND DUP2 MSTORE PUSH1 0x20 ADD SWAP1 DUP2 MSTORE PUSH1 0x20 ADD PUSH1 0x0 KECCAK256 DUP1 SLOAD SWAP1 POP GT PUSH2 0x58A JUMPI PUSH1 0x40 MLOAD PUSH32 0x8C379A000000000000000000000000000000000000000000000000000000000 DUP2 MSTORE PUSH1 0x4 ADD PUSH2 0x581 SWAP1 PUSH2 0x16F6 JUMP JUMPDEST PUSH1 0x40 MLOAD DUP1 SWAP2 SUB SWAP1 REVERT JUMPDEST CALLER PUSH20 0xFFFFFFFFFFFFFFFFFFFFFFFFFFFFFFFFFFFFFFFF AND PUSH1 0x0 DUP1 DUP5 PUSH20 0xFFFFFFFFFFFFFFFFFFFFFFFFFFFFFFFFFFFFFFFF AND PUSH20 0xFFFFFFFFFFFFFFFFFFFFFFFFFFFFFFFFFFFFFFFF AND DUP2 MSTORE PUSH1 0x20 ADD SWAP1 DUP2 MSTORE PUSH1 0x20 ADD PUSH1 0x0 KECCAK256 DUP3 DUP2 SLOAD DUP2 LT PUSH2 0x5F1 JUMPI PUSH2 0x5F0 PUSH2 0x1716 JUMP JUMPDEST JUMPDEST SWAP1 PUSH1 0x0 MSTORE PUSH1 0x20 PUSH1 0x0 KECCAK256 SWAP1 PUSH1 0x5 MUL ADD PUSH1 0x4 ADD PUSH1 0x0 SWAP1 SLOAD SWAP1 PUSH2 0x100 EXP SWAP1 DIV PUSH20 0xFFFFFFFFFFFFFFFFFFFFFFFFFFFFFFFFFFFFFFFF AND PUSH20 0xFFFFFFFFFFFFFFFFFFFFFFFFFFFFFFFFFFFFFFFF AND EQ PUSH2 0x679 JUMPI PUSH1 0x40 MLOAD PUSH32 0x8C379A000000000000000000000000000000000000000000000000000000000 DUP2 MSTORE PUSH1 0x4 ADD PUSH2 0x670 SWAP1 PUSH2 0x18BB JUMP JUMPDEST PUSH1 0x40 MLOAD DUP1 SWAP2 SUB SWAP1 REVERT JUMPDEST PUSH1 0x0 DUP1 CALLER PUSH20 0xFFFFFFFFFFFFFFFFFFFFFFFFFFFFFFFFFFFFFFFF AND PUSH20 0xFFFFFFFFFFFFFFFFFFFFFFFFFFFFFFFFFFFFFFFF AND DUP2 MSTORE PUSH1 0x20 ADD SWAP1 DUP2 MSTORE PUSH1 0x20 ADD PUSH1 0x0 KECCAK256 DUP4 DUP2 SLOAD DUP2 LT PUSH2 0x6C9 JUMPI PUSH2 0x6C8 PUSH2 0x1716 JUMP JUMPDEST JUMPDEST SWAP1 PUSH1 0x0 MSTORE PUSH1 0x20 PUSH1 0x0 KECCAK256 SWAP1 PUSH1 0x5 MUL ADD PUSH1 0x0 DUP1 DUP3 ADD PUSH1 0x0 PUSH2 0x6E8 SWAP2 SWAP1 PUSH2 0xFEB JUMP JUMPDEST PUSH1 0x1 DUP3 ADD PUSH1 0x0 PUSH2 0x6F8 SWAP2 SWAP1 PUSH2 0xFEB JUMP JUMPDEST PUSH1 0x2 DUP3 ADD PUSH1 0x0 SWAP1 SSTORE PUSH1 0x3 DUP3 ADD PUSH1 0x0 SWAP1 SSTORE PUSH1 0x4 DUP3 ADD PUSH1 0x0 PUSH2 0x100 EXP DUP2 SLOAD SWAP1 PUSH20 0xFFFFFFFFFFFFFFFFFFFFFFFFFFFFFFFFFFFFFFFF MUL NOT AND SWAP1 SSTORE POP POP DUP3 CALLER PUSH20 0xFFFFFFFFFFFFFFFFFFFFFFFFFFFFFFFFFFFFFFFF AND PUSH32 0x21C5FF13F7A7163D7CD6A98D82517DE93DCC833B527AD63A5550894BE16070C8 PUSH1 0x40 MLOAD PUSH1 0x40 MLOAD DUP1 SWAP2 SUB SWAP1 LOG3 POP POP POP JUMP JUMPDEST DUP3 PUSH1 0x0 DUP1 DUP7 PUSH20 0xFFFFFFFFFFFFFFFFFFFFFFFFFFFFFFFFFFFFFFFF AND PUSH20 0xFFFFFFFFFFFFFFFFFFFFFFFFFFFFFFFFFFFFFFFF AND DUP2 MSTORE PUSH1 0x20 ADD SWAP1 DUP2 MSTORE PUSH1 0x20 ADD PUSH1 0x0 KECCAK256 DUP1 SLOAD SWAP1 POP GT PUSH2 0x7FD JUMPI PUSH1 0x40 MLOAD PUSH32 0x8C379A000000000000000000000000000000000000000000000000000000000 DUP2 MSTORE PUSH1 0x4 ADD PUSH2 0x7F4 SWAP1 PUSH2 0x16F6 JUMP JUMPDEST PUSH1 0x40 MLOAD DUP1 SWAP2 SUB SWAP1 REVERT JUMPDEST PUSH1 0x0 DUP1 PUSH1 0x0 DUP7 PUSH20 0xFFFFFFFFFFFFFFFFFFFFFFFFFFFFFFFFFFFFFFFF AND PUSH20 0xFFFFFFFFFFFFFFFFFFFFFFFFFFFFFFFFFFFFFFFF AND DUP2 MSTORE PUSH1 0x20 ADD SWAP1 DUP2 MSTORE PUSH1 0x20 ADD PUSH1 0x0 KECCAK256 DUP5 DUP2 SLOAD DUP2 LT PUSH2 0x84F JUMPI PUSH2 0x84E PUSH2 0x1716 JUMP JUMPDEST JUMPDEST SWAP1 PUSH1 0x0 MSTORE PUSH1 0x20 PUSH1 0x0 KECCAK256 SWAP1 PUSH1 0x5 MUL ADD SWAP1 POP DUP3 DUP2 PUSH1 0x3 ADD SLOAD LT ISZERO PUSH2 0x8A6 JUMPI PUSH1 0x40 MLOAD PUSH32 0x8C379A000000000000000000000000000000000000000000000000000000000 DUP2 MSTORE PUSH1 0x4 ADD PUSH2 0x89D SWAP1 PUSH2 0x1927 JUMP JUMPDEST PUSH1 0x40 MLOAD DUP1 SWAP2 SUB SWAP1 REVERT JUMPDEST PUSH1 0x0 DUP3 PUSH20 0xFFFFFFFFFFFFFFFFFFFFFFFFFFFFFFFFFFFFFFFF AND DUP5 DUP4 PUSH1 0x2 ADD SLOAD PUSH2 0x8CF SWAP2 SWAP1 PUSH2 0x1976 JUMP JUMPDEST PUSH1 0x40 MLOAD PUSH2 0x8DB SWAP1 PUSH2 0x19DE JUMP JUMPDEST PUSH1 0x0 PUSH1 0x40 MLOAD DUP1 DUP4 SUB DUP2 DUP6 DUP8 GAS CALL SWAP3 POP POP POP RETURNDATASIZE DUP1 PUSH1 0x0 DUP2 EQ PUSH2 0x918 JUMPI PUSH1 0x40 MLOAD SWAP2 POP PUSH1 0x1F NOT PUSH1 0x3F RETURNDATASIZE ADD AND DUP3 ADD PUSH1 0x40 MSTORE RETURNDATASIZE DUP3 MSTORE RETURNDATASIZE PUSH1 0x0 PUSH1 0x20 DUP5 ADD RETURNDATACOPY PUSH2 0x91D JUMP JUMPDEST PUSH1 0x60 SWAP2 POP JUMPDEST POP POP SWAP1 POP DUP1 PUSH2 0x961 JUMPI PUSH1 0x40 MLOAD PUSH32 0x8C379A000000000000000000000000000000000000000000000000000000000 DUP2 MSTORE PUSH1 0x4 ADD PUSH2 0x958 SWAP1 PUSH2 0x1A3F JUMP JUMPDEST PUSH1 0x40 MLOAD DUP1 SWAP2 SUB SWAP1 REVERT JUMPDEST DUP4 DUP3 PUSH1 0x3 ADD PUSH1 0x0 DUP3 DUP3 SLOAD PUSH2 0x975 SWAP2 SWAP1 PUSH2 0x1A5F JUMP JUMPDEST SWAP3 POP POP DUP2 SWAP1 SSTORE POP DUP5 DUP7 PUSH20 0xFFFFFFFFFFFFFFFFFFFFFFFFFFFFFFFFFFFFFFFF AND PUSH32 0x1452773CF753D0D7C71ED9990F7C7E2BDDE4A2D08D187B3647953877E400488D DUP7 PUSH1 0x40 MLOAD PUSH2 0x9C3 SWAP2 SWAP1 PUSH2 0x1A93 JUMP JUMPDEST PUSH1 0x40 MLOAD DUP1 SWAP2 SUB SWAP1 LOG3 POP POP POP POP POP POP JUMP JUMPDEST CALLER DUP6 DUP1 PUSH1 0x0 DUP1 DUP5 PUSH20 0xFFFFFFFFFFFFFFFFFFFFFFFFFFFFFFFFFFFFFFFF AND PUSH20 0xFFFFFFFFFFFFFFFFFFFFFFFFFFFFFFFFFFFFFFFF AND DUP2 MSTORE PUSH1 0x20 ADD SWAP1 DUP2 MSTORE PUSH1 0x20 ADD PUSH1 0x0 KECCAK256 DUP1 SLOAD SWAP1 POP GT PUSH2 0xA58 JUMPI PUSH1 0x40 MLOAD PUSH32 0x8C379A000000000000000000000000000000000000000000000000000000000 DUP2 MSTORE PUSH1 0x4 ADD PUSH2 0xA4F SWAP1 PUSH2 0x16F6 JUMP JUMPDEST PUSH1 0x40 MLOAD DUP1 SWAP2 SUB SWAP1 REVERT JUMPDEST CALLER PUSH20 0xFFFFFFFFFFFFFFFFFFFFFFFFFFFFFFFFFFFFFFFF AND PUSH1 0x0 DUP1 DUP5 PUSH20 0xFFFFFFFFFFFFFFFFFFFFFFFFFFFFFFFFFFFFFFFF AND PUSH20 0xFFFFFFFFFFFFFFFFFFFFFFFFFFFFFFFFFFFFFFFF AND DUP2 MSTORE PUSH1 0x20 ADD SWAP1 DUP2 MSTORE PUSH1 0x20 ADD PUSH1 0x0 KECCAK256 DUP3 DUP2 SLOAD DUP2 LT PUSH2 0xABF JUMPI PUSH2 0xABE PUSH2 0x1716 JUMP JUMPDEST JUMPDEST SWAP1 PUSH1 0x0 MSTORE PUSH1 0x20 PUSH1 0x0 KECCAK256 SWAP1 PUSH1 0x5 MUL ADD PUSH1 0x4 ADD PUSH1 0x0 SWAP1 SLOAD SWAP1 PUSH2 0x100 EXP SWAP1 DIV PUSH20 0xFFFFFFFFFFFFFFFFFFFFFFFFFFFFFFFFFFFFFFFF AND PUSH20 0xFFFFFFFFFFFFFFFFFFFFFFFFFFFFFFFFFFFFFFFF AND EQ PUSH2 0xB47 JUMPI PUSH1 0x40 MLOAD PUSH32 0x8C379A000000000000000000000000000000000000000000000000000000000 DUP2 MSTORE PUSH1 0x4 ADD PUSH2 0xB3E SWAP1 PUSH2 0x18BB JUMP JUMPDEST PUSH1 0x40 MLOAD DUP1 SWAP2 SUB SWAP1 REVERT JUMPDEST PUSH1 0x0 DUP1 PUSH1 0x0 CALLER PUSH20 0xFFFFFFFFFFFFFFFFFFFFFFFFFFFFFFFFFFFFFFFF AND PUSH20 0xFFFFFFFFFFFFFFFFFFFFFFFFFFFFFFFFFFFFFFFF AND DUP2 MSTORE PUSH1 0x20 ADD SWAP1 DUP2 MSTORE PUSH1 0x20 ADD PUSH1 0x0 KECCAK256 DUP9 DUP2 SLOAD DUP2 LT PUSH2 0xB99 JUMPI PUSH2 0xB98 PUSH2 0x1716 JUMP JUMPDEST JUMPDEST SWAP1 PUSH1 0x0 MSTORE PUSH1 0x20 PUSH1 0x0 KECCAK256 SWAP1 PUSH1 0x5 MUL ADD SWAP1 POP DUP7 DUP2 PUSH1 0x0 ADD SWAP1 DUP2 PUSH2 0xBBA SWAP2 SWAP1 PUSH2 0x1C5A JUMP JUMPDEST POP DUP6 DUP2 PUSH1 0x1 ADD SWAP1 DUP2 PUSH2 0xBCC SWAP2 SWAP1 PUSH2 0x1C5A JUMP JUMPDEST POP DUP5 DUP2 PUSH1 0x2 ADD DUP2 SWAP1 SSTORE POP DUP4 DUP2 PUSH1 0x3 ADD DUP2 SWAP1 SSTORE POP DUP8 CALLER PUSH20 0xFFFFFFFFFFFFFFFFFFFFFFFFFFFFFFFFFFFFFFFF AND PUSH32 0xEF5C8E262C5EDE94F110EA1A85D49828BF157D39FF38B9DD555E8F409C93F058 PUSH1 0x40 MLOAD PUSH1 0x40 MLOAD DUP1 SWAP2 SUB SWAP1 LOG3 POP POP POP POP POP POP POP POP JUMP JUMPDEST PUSH1 0x0 PUSH1 0x40 MLOAD DUP1 PUSH1 0xA0 ADD PUSH1 0x40 MSTORE DUP1 DUP7 DUP2 MSTORE PUSH1 0x20 ADD DUP6 DUP2 MSTORE PUSH1 0x20 ADD DUP5 DUP2 MSTORE PUSH1 0x20 ADD DUP4 DUP2 MSTORE PUSH1 0x20 ADD CALLER PUSH20 0xFFFFFFFFFFFFFFFFFFFFFFFFFFFFFFFFFFFFFFFF AND DUP2 MSTORE POP SWAP1 POP PUSH1 0x0 DUP1 CALLER PUSH20 0xFFFFFFFFFFFFFFFFFFFFFFFFFFFFFFFFFFFFFFFF AND PUSH20 0xFFFFFFFFFFFFFFFFFFFFFFFFFFFFFFFFFFFFFFFF AND DUP2 MSTORE PUSH1 0x20 ADD SWAP1 DUP2 MSTORE PUSH1 0x20 ADD PUSH1 0x0 KECCAK256 DUP2 SWAP1 DUP1 PUSH1 0x1 DUP2 SLOAD ADD DUP1 DUP3 SSTORE DUP1 SWAP2 POP POP PUSH1 0x1 SWAP1 SUB SWAP1 PUSH1 0x0 MSTORE PUSH1 0x20 PUSH1 0x0 KECCAK256 SWAP1 PUSH1 0x5 MUL ADD PUSH1 0x0 SWAP1 SWAP2 SWAP1 SWAP2 SWAP1 SWAP2 POP PUSH1 0x0 DUP3 ADD MLOAD DUP2 PUSH1 0x0 ADD SWAP1 DUP2 PUSH2 0xCEB SWAP2 SWAP1 PUSH2 0x1C5A JUMP JUMPDEST POP PUSH1 0x20 DUP3 ADD MLOAD DUP2 PUSH1 0x1 ADD SWAP1 DUP2 PUSH2 0xD01 SWAP2 SWAP1 PUSH2 0x1C5A JUMP JUMPDEST POP PUSH1 0x40 DUP3 ADD MLOAD DUP2 PUSH1 0x2 ADD SSTORE PUSH1 0x60 DUP3 ADD MLOAD DUP2 PUSH1 0x3 ADD SSTORE PUSH1 0x80 DUP3 ADD MLOAD DUP2 PUSH1 0x4 ADD PUSH1 0x0 PUSH2 0x100 EXP DUP2 SLOAD DUP2 PUSH20 0xFFFFFFFFFFFFFFFFFFFFFFFFFFFFFFFFFFFFFFFF MUL NOT AND SWAP1 DUP4 PUSH20 0xFFFFFFFFFFFFFFFFFFFFFFFFFFFFFFFFFFFFFFFF AND MUL OR SWAP1 SSTORE POP POP POP PUSH1 0x0 PUSH1 0x1 PUSH1 0x0 DUP1 CALLER PUSH20 0xFFFFFFFFFFFFFFFFFFFFFFFFFFFFFFFFFFFFFFFF AND PUSH20 0xFFFFFFFFFFFFFFFFFFFFFFFFFFFFFFFFFFFFFFFF AND DUP2 MSTORE PUSH1 0x20 ADD SWAP1 DUP2 MSTORE PUSH1 0x20 ADD PUSH1 0x0 KECCAK256 DUP1 SLOAD SWAP1 POP PUSH2 0xDAF SWAP2 SWAP1 PUSH2 0x1A5F JUMP JUMPDEST SWAP1 POP DUP1 CALLER PUSH20 0xFFFFFFFFFFFFFFFFFFFFFFFFFFFFFFFFFFFFFFFF AND PUSH32 0x5FA975B058A6046EC5054AB1EC0CC5C350C1C467C8147CD03CA62342BC63545E PUSH1 0x40 MLOAD PUSH1 0x40 MLOAD DUP1 SWAP2 SUB SWAP1 LOG3 POP POP POP POP POP POP JUMP JUMPDEST DUP2 PUSH1 0x0 DUP1 DUP6 PUSH20 0xFFFFFFFFFFFFFFFFFFFFFFFFFFFFFFFFFFFFFFFF AND PUSH20 0xFFFFFFFFFFFFFFFFFFFFFFFFFFFFFFFFFFFFFFFF AND DUP2 MSTORE PUSH1 0x20 ADD SWAP1 DUP2 MSTORE PUSH1 0x20 ADD PUSH1 0x0 KECCAK256 DUP1 SLOAD SWAP1 POP GT PUSH2 0xE80 JUMPI PUSH1 0x40 MLOAD PUSH32 0x8C379A000000000000000000000000000000000000000000000000000000000 DUP2 MSTORE PUSH1 0x4 ADD PUSH2 0xE77 SWAP1 PUSH2 0x16F6 JUMP JUMPDEST PUSH1 0x40 MLOAD DUP1 SWAP2 SUB SWAP1 REVERT JUMPDEST PUSH1 0x0 DUP1 PUSH1 0x0 DUP6 PUSH20 0xFFFFFFFFFFFFFFFFFFFFFFFFFFFFFFFFFFFFFFFF AND PUSH20 0xFFFFFFFFFFFFFFFFFFFFFFFFFFFFFFFFFFFFFFFF AND DUP2 MSTORE PUSH1 0x20 ADD SWAP1 DUP2 MSTORE PUSH1 0x20 ADD PUSH1 0x0 KECCAK256 DUP4 DUP2 SLOAD DUP2 LT PUSH2 0xED2 JUMPI PUSH2 0xED1 PUSH2 0x1716 JUMP JUMPDEST JUMPDEST SWAP1 PUSH1 0x0 MSTORE PUSH1 0x20 PUSH1 0x0 KECCAK256 SWAP1 PUSH1 0x5 MUL ADD SWAP1 POP DUP2 DUP2 PUSH1 0x3 ADD SLOAD LT ISZERO PUSH2 0xF29 JUMPI PUSH1 0x40 MLOAD PUSH32 0x8C379A000000000000000000000000000000000000000000000000000000000 DUP2 MSTORE PUSH1 0x4 ADD PUSH2 0xF20 SWAP1 PUSH2 0x1927 JUMP JUMPDEST PUSH1 0x40 MLOAD DUP1 SWAP2 SUB SWAP1 REVERT JUMPDEST DUP2 DUP2 PUSH1 0x2 ADD SLOAD PUSH2 0xF39 SWAP2 SWAP1 PUSH2 0x1976 JUMP JUMPDEST CALLVALUE LT ISZERO PUSH2 0xF7B JUMPI PUSH1 0x40 MLOAD PUSH32 0x8C379A000000000000000000000000000000000000000000000000000000000 DUP2 MSTORE PUSH1 0x4 ADD PUSH2 0xF72 SWAP1 PUSH2 0x1D78 JUMP JUMPDEST PUSH1 0x40 MLOAD DUP1 SWAP2 SUB SWAP1 REVERT JUMPDEST DUP2 DUP2 PUSH1 0x3 ADD PUSH1 0x0 DUP3 DUP3 SLOAD PUSH2 0xF8F SWAP2 SWAP1 PUSH2 0x1A5F JUMP JUMPDEST SWAP3 POP POP DUP2 SWAP1 SSTORE POP DUP3 DUP5 PUSH20 0xFFFFFFFFFFFFFFFFFFFFFFFFFFFFFFFFFFFFFFFF AND PUSH32 0x1452773CF753D0D7C71ED9990F7C7E2BDDE4A2D08D187B3647953877E400488D DUP5 PUSH1 0x40 MLOAD PUSH2 0xFDD SWAP2 SWAP1 PUSH2 0x1A93 JUMP JUMPDEST PUSH1 0x40 MLOAD DUP1 SWAP2 SUB SWAP1 LOG3 POP POP POP POP JUMP JUMPDEST POP DUP1 SLOAD PUSH2 0xFF7 SWAP1 PUSH2 0x1774 JUMP JUMPDEST PUSH1 0x0 DUP3 SSTORE DUP1 PUSH1 0x1F LT PUSH2 0x1009 JUMPI POP PUSH2 0x1028 JUMP JUMPDEST PUSH1 0x1F ADD PUSH1 0x20 SWAP1 DIV SWAP1 PUSH1 0x0 MSTORE PUSH1 0x20 PUSH1 0x0 KECCAK256 SWAP1 DUP2 ADD SWAP1 PUSH2 0x1027 SWAP2 SWAP1 PUSH2 0x102B JUMP JUMPDEST JUMPDEST POP JUMP JUMPDEST JUMPDEST DUP1 DUP3 GT ISZERO PUSH2 0x1044 JUMPI PUSH1 0x0 DUP2 PUSH1 0x0 SWAP1 SSTORE POP PUSH1 0x1 ADD PUSH2 0x102C JUMP JUMPDEST POP SWAP1 JUMP JUMPDEST PUSH1 0x0 PUSH1 0x40 MLOAD SWAP1 POP SWAP1 JUMP JUMPDEST PUSH1 0x0 DUP1 REVERT JUMPDEST PUSH1 0x0 DUP1 REVERT JUMPDEST PUSH1 0x0 PUSH20 0xFFFFFFFFFFFFFFFFFFFFFFFFFFFFFFFFFFFFFFFF DUP3 AND SWAP1 POP SWAP2 SWAP1 POP JUMP JUMPDEST PUSH1 0x0 PUSH2 0x1087 DUP3 PUSH2 0x105C JUMP JUMPDEST SWAP1 POP SWAP2 SWAP1 POP JUMP JUMPDEST PUSH2 0x1097 DUP2 PUSH2 0x107C JUMP JUMPDEST DUP2 EQ PUSH2 0x10A2 JUMPI PUSH1 0x0 DUP1 REVERT JUMPDEST POP JUMP JUMPDEST PUSH1 0x0 DUP2 CALLDATALOAD SWAP1 POP PUSH2 0x10B4 DUP2 PUSH2 0x108E JUMP JUMPDEST SWAP3 SWAP2 POP POP JUMP JUMPDEST PUSH1 0x0 DUP2 SWAP1 POP SWAP2 SWAP1 POP JUMP JUMPDEST PUSH2 0x10CD DUP2 PUSH2 0x10BA JUMP JUMPDEST DUP2 EQ PUSH2 0x10D8 JUMPI PUSH1 0x0 DUP1 REVERT JUMPDEST POP JUMP JUMPDEST PUSH1 0x0 DUP2 CALLDATALOAD SWAP1 POP PUSH2 0x10EA DUP2 PUSH2 0x10C4 JUMP JUMPDEST SWAP3 SWAP2 POP POP JUMP JUMPDEST PUSH1 0x0 DUP1 PUSH1 0x40 DUP4 DUP6 SUB SLT ISZERO PUSH2 0x1107 JUMPI PUSH2 0x1106 PUSH2 0x1052 JUMP JUMPDEST JUMPDEST PUSH1 0x0 PUSH2 0x1115 DUP6 DUP3 DUP7 ADD PUSH2 0x10A5 JUMP JUMPDEST SWAP3 POP POP PUSH1 0x20 PUSH2 0x1126 DUP6 DUP3 DUP7 ADD PUSH2 0x10DB JUMP JUMPDEST SWAP2 POP POP SWAP3 POP SWAP3 SWAP1 POP JUMP JUMPDEST PUSH1 0x0 DUP2 MLOAD SWAP1 POP SWAP2 SWAP1 POP JUMP JUMPDEST PUSH1 0x0 DUP3 DUP3 MSTORE PUSH1 0x20 DUP3 ADD SWAP1 POP SWAP3 SWAP2 POP POP JUMP JUMPDEST PUSH1 0x0 JUMPDEST DUP4 DUP2 LT ISZERO PUSH2 0x116A JUMPI DUP1 DUP3 ADD MLOAD DUP2 DUP5 ADD MSTORE PUSH1 0x20 DUP2 ADD SWAP1 POP PUSH2 0x114F JUMP JUMPDEST PUSH1 0x0 DUP5 DUP5 ADD MSTORE POP POP POP POP JUMP JUMPDEST PUSH1 0x0 PUSH1 0x1F NOT PUSH1 0x1F DUP4 ADD AND SWAP1 POP SWAP2 SWAP1 POP JUMP JUMPDEST PUSH1 0x0 PUSH2 0x1192 DUP3 PUSH2 0x1130 JUMP JUMPDEST PUSH2 0x119C DUP2 DUP6 PUSH2 0x113B JUMP JUMPDEST SWAP4 POP PUSH2 0x11AC DUP2 DUP6 PUSH1 0x20 DUP7 ADD PUSH2 0x114C JUMP JUMPDEST PUSH2 0x11B5 DUP2 PUSH2 0x1176 JUMP JUMPDEST DUP5 ADD SWAP2 POP POP SWAP3 SWAP2 POP POP JUMP JUMPDEST PUSH2 0x11C9 DUP2 PUSH2 0x10BA JUMP JUMPDEST DUP3 MSTORE POP POP JUMP JUMPDEST PUSH2 0x11D8 DUP2 PUSH2 0x107C JUMP JUMPDEST DUP3 MSTORE POP POP JUMP JUMPDEST PUSH1 0x0 PUSH1 0xA0 DUP3 ADD SWAP1 POP DUP2 DUP2 SUB PUSH1 0x0 DUP4 ADD MSTORE PUSH2 0x11F8 DUP2 DUP9 PUSH2 0x1187 JUMP JUMPDEST SWAP1 POP DUP2 DUP2 SUB PUSH1 0x20 DUP4 ADD MSTORE PUSH2 0x120C DUP2 DUP8 PUSH2 0x1187 JUMP JUMPDEST SWAP1 POP PUSH2 0x121B PUSH1 0x40 DUP4 ADD DUP7 PUSH2 0x11C0 JUMP JUMPDEST PUSH2 0x1228 PUSH1 0x60 DUP4 ADD DUP6 PUSH2 0x11C0 JUMP JUMPDEST PUSH2 0x1235 PUSH1 0x80 DUP4 ADD DUP5 PUSH2 0x11CF JUMP JUMPDEST SWAP7 SWAP6 POP POP POP POP POP POP JUMP JUMPDEST PUSH1 0x0 DUP1 REVERT JUMPDEST PUSH1 0x0 DUP1 REVERT JUMPDEST PUSH32 0x4E487B7100000000000000000000000000000000000000000000000000000000 PUSH1 0x0 MSTORE PUSH1 0x41 PUSH1 0x4 MSTORE PUSH1 0x24 PUSH1 0x0 REVERT JUMPDEST PUSH2 0x1281 DUP3 PUSH2 0x1176 JUMP JUMPDEST DUP2 ADD DUP2 DUP2 LT PUSH8 0xFFFFFFFFFFFFFFFF DUP3 GT OR ISZERO PUSH2 0x12A0 JUMPI PUSH2 0x129F PUSH2 0x1249 JUMP JUMPDEST JUMPDEST DUP1 PUSH1 0x40 MSTORE POP POP POP JUMP JUMPDEST PUSH1 0x0 PUSH2 0x12B3 PUSH2 0x1048 JUMP JUMPDEST SWAP1 POP PUSH2 0x12BF DUP3 DUP3 PUSH2 0x1278 JUMP JUMPDEST SWAP2 SWAP1 POP JUMP JUMPDEST PUSH1 0x0 PUSH8 0xFFFFFFFFFFFFFFFF DUP3 GT ISZERO PUSH2 0x12DF JUMPI PUSH2 0x12DE PUSH2 0x1249 JUMP JUMPDEST JUMPDEST PUSH2 0x12E8 DUP3 PUSH2 0x1176 JUMP JUMPDEST SWAP1 POP PUSH1 0x20 DUP2 ADD SWAP1 POP SWAP2 SWAP1 POP JUMP JUMPDEST DUP3 DUP2 DUP4 CALLDATACOPY PUSH1 0x0 DUP4 DUP4 ADD MSTORE POP POP POP JUMP JUMPDEST PUSH1 0x0 PUSH2 0x1317 PUSH2 0x1312 DUP5 PUSH2 0x12C4 JUMP JUMPDEST PUSH2 0x12A9 JUMP JUMPDEST SWAP1 POP DUP3 DUP2 MSTORE PUSH1 0x20 DUP2 ADD DUP5 DUP5 DUP5 ADD GT ISZERO PUSH2 0x1333 JUMPI PUSH2 0x1332 PUSH2 0x1244 JUMP JUMPDEST JUMPDEST PUSH2 0x133E DUP5 DUP3 DUP6 PUSH2 0x12F5 JUMP JUMPDEST POP SWAP4 SWAP3 POP POP POP JUMP JUMPDEST PUSH1 0x0 DUP3 PUSH1 0x1F DUP4 ADD SLT PUSH2 0x135B JUMPI PUSH2 0x135A PUSH2 0x123F JUMP JUMPDEST JUMPDEST DUP2 CALLDATALOAD PUSH2 0x136B DUP5 DUP3 PUSH1 0x20 DUP7 ADD PUSH2 0x1304 JUMP JUMPDEST SWAP2 POP POP SWAP3 SWAP2 POP POP JUMP JUMPDEST PUSH1 0x0 DUP1 PUSH1 0x40 DUP4 DUP6 SUB SLT ISZERO PUSH2 0x138B JUMPI PUSH2 0x138A PUSH2 0x1052 JUMP JUMPDEST JUMPDEST PUSH1 0x0 PUSH2 0x1399 DUP6 DUP3 DUP7 ADD PUSH2 0x10A5 JUMP JUMPDEST SWAP3 POP POP PUSH1 0x20 DUP4 ADD CALLDATALOAD PUSH8 0xFFFFFFFFFFFFFFFF DUP2 GT ISZERO PUSH2 0x13BA JUMPI PUSH2 0x13B9 PUSH2 0x1057 JUMP JUMPDEST JUMPDEST PUSH2 0x13C6 DUP6 DUP3 DUP7 ADD PUSH2 0x1346 JUMP JUMPDEST SWAP2 POP POP SWAP3 POP SWAP3 SWAP1 POP JUMP JUMPDEST PUSH1 0x0 PUSH1 0x20 DUP3 DUP5 SUB SLT ISZERO PUSH2 0x13E6 JUMPI PUSH2 0x13E5 PUSH2 0x1052 JUMP JUMPDEST JUMPDEST PUSH1 0x0 PUSH2 0x13F4 DUP5 DUP3 DUP6 ADD PUSH2 0x10DB JUMP JUMPDEST SWAP2 POP POP SWAP3 SWAP2 POP POP JUMP JUMPDEST PUSH1 0x0 DUP1 PUSH1 0x0 DUP1 PUSH1 0x80 DUP6 DUP8 SUB SLT ISZERO PUSH2 0x1417 JUMPI PUSH2 0x1416 PUSH2 0x1052 JUMP JUMPDEST JUMPDEST PUSH1 0x0 PUSH2 0x1425 DUP8 DUP3 DUP9 ADD PUSH2 0x10A5 JUMP JUMPDEST SWAP5 POP POP PUSH1 0x20 PUSH2 0x1436 DUP8 DUP3 DUP9 ADD PUSH2 0x10DB JUMP JUMPDEST SWAP4 POP POP PUSH1 0x40 PUSH2 0x1447 DUP8 DUP3 DUP9 ADD PUSH2 0x10DB JUMP JUMPDEST SWAP3 POP POP PUSH1 0x60 PUSH2 0x1458 DUP8 DUP3 DUP9 ADD PUSH2 0x10A5 JUMP JUMPDEST SWAP2 POP POP SWAP3 SWAP6 SWAP2 SWAP5 POP SWAP3 POP JUMP JUMPDEST PUSH1 0x0 PUSH8 0xFFFFFFFFFFFFFFFF DUP3 GT ISZERO PUSH2 0x147F JUMPI PUSH2 0x147E PUSH2 0x1249 JUMP JUMPDEST JUMPDEST PUSH2 0x1488 DUP3 PUSH2 0x1176 JUMP JUMPDEST SWAP1 POP PUSH1 0x20 DUP2 ADD SWAP1 POP SWAP2 SWAP1 POP JUMP JUMPDEST PUSH1 0x0 PUSH2 0x14A8 PUSH2 0x14A3 DUP5 PUSH2 0x1464 JUMP JUMPDEST PUSH2 0x12A9 JUMP JUMPDEST SWAP1 POP DUP3 DUP2 MSTORE PUSH1 0x20 DUP2 ADD DUP5 DUP5 DUP5 ADD GT ISZERO PUSH2 0x14C4 JUMPI PUSH2 0x14C3 PUSH2 0x1244 JUMP JUMPDEST JUMPDEST PUSH2 0x14CF DUP5 DUP3 DUP6 PUSH2 0x12F5 JUMP JUMPDEST POP SWAP4 SWAP3 POP POP POP JUMP JUMPDEST PUSH1 0x0 DUP3 PUSH1 0x1F DUP4 ADD SLT PUSH2 0x14EC JUMPI PUSH2 0x14EB PUSH2 0x123F JUMP JUMPDEST JUMPDEST DUP2 CALLDATALOAD PUSH2 0x14FC DUP5 DUP3 PUSH1 0x20 DUP7 ADD PUSH2 0x1495 JUMP JUMPDEST SWAP2 POP POP SWAP3 SWAP2 POP POP JUMP JUMPDEST PUSH1 0x0 DUP1 PUSH1 0x0 DUP1 PUSH1 0x0 PUSH1 0xA0 DUP7 DUP9 SUB SLT ISZERO PUSH2 0x1521 JUMPI PUSH2 0x1520 PUSH2 0x1052 JUMP JUMPDEST JUMPDEST PUSH1 0x0 PUSH2 0x152F DUP9 DUP3 DUP10 ADD PUSH2 0x10DB JUMP JUMPDEST SWAP6 POP POP PUSH1 0x20 DUP7 ADD CALLDATALOAD PUSH8 0xFFFFFFFFFFFFFFFF DUP2 GT ISZERO PUSH2 0x1550 JUMPI PUSH2 0x154F PUSH2 0x1057 JUMP JUMPDEST JUMPDEST PUSH2 0x155C DUP9 DUP3 DUP10 ADD PUSH2 0x14D7 JUMP JUMPDEST SWAP5 POP POP PUSH1 0x40 DUP7 ADD CALLDATALOAD PUSH8 0xFFFFFFFFFFFFFFFF DUP2 GT ISZERO PUSH2 0x157D JUMPI PUSH2 0x157C PUSH2 0x1057 JUMP JUMPDEST JUMPDEST PUSH2 0x1589 DUP9 DUP3 DUP10 ADD PUSH2 0x14D7 JUMP JUMPDEST SWAP4 POP POP PUSH1 0x60 PUSH2 0x159A DUP9 DUP3 DUP10 ADD PUSH2 0x10DB JUMP JUMPDEST SWAP3 POP POP PUSH1 0x80 PUSH2 0x15AB DUP9 DUP3 DUP10 ADD PUSH2 0x10DB JUMP JUMPDEST SWAP2 POP POP SWAP3 SWAP6 POP SWAP3 SWAP6 SWAP1 SWAP4 POP JUMP JUMPDEST PUSH1 0x0 DUP1 PUSH1 0x0 DUP1 PUSH1 0x80 DUP6 DUP8 SUB SLT ISZERO PUSH2 0x15D2 JUMPI PUSH2 0x15D1 PUSH2 0x1052 JUMP JUMPDEST JUMPDEST PUSH1 0x0 DUP6 ADD CALLDATALOAD PUSH8 0xFFFFFFFFFFFFFFFF DUP2 GT ISZERO PUSH2 0x15F0 JUMPI PUSH2 0x15EF PUSH2 0x1057 JUMP JUMPDEST JUMPDEST PUSH2 0x15FC DUP8 DUP3 DUP9 ADD PUSH2 0x14D7 JUMP JUMPDEST SWAP5 POP POP PUSH1 0x20 DUP6 ADD CALLDATALOAD PUSH8 0xFFFFFFFFFFFFFFFF DUP2 GT ISZERO PUSH2 0x161D JUMPI PUSH2 0x161C PUSH2 0x1057 JUMP JUMPDEST JUMPDEST PUSH2 0x1629 DUP8 DUP3 DUP9 ADD PUSH2 0x14D7 JUMP JUMPDEST SWAP4 POP POP PUSH1 0x40 PUSH2 0x163A DUP8 DUP3 DUP9 ADD PUSH2 0x10DB JUMP JUMPDEST SWAP3 POP POP PUSH1 0x60 PUSH2 0x164B DUP8 DUP3 DUP9 ADD PUSH2 0x10DB JUMP JUMPDEST SWAP2 POP POP SWAP3 SWAP6 SWAP2 SWAP5 POP SWAP3 POP JUMP JUMPDEST PUSH1 0x0 DUP1 PUSH1 0x0 PUSH1 0x60 DUP5 DUP7 SUB SLT ISZERO PUSH2 0x1670 JUMPI PUSH2 0x166F PUSH2 0x1052 JUMP JUMPDEST JUMPDEST PUSH1 0x0 PUSH2 0x167E DUP7 DUP3 DUP8 ADD PUSH2 0x10A5 JUMP JUMPDEST SWAP4 POP POP PUSH1 0x20 PUSH2 0x168F DUP7 DUP3 DUP8 ADD PUSH2 0x10DB JUMP JUMPDEST SWAP3 POP POP PUSH1 0x40 PUSH2 0x16A0 DUP7 DUP3 DUP8 ADD PUSH2 0x10DB JUMP JUMPDEST SWAP2 POP POP SWAP3 POP SWAP3 POP SWAP3 JUMP JUMPDEST PUSH32 0x496E76616C6964206974656D2049440000000000000000000000000000000000 PUSH1 0x0 DUP3 ADD MSTORE POP JUMP JUMPDEST PUSH1 0x0 PUSH2 0x16E0 PUSH1 0xF DUP4 PUSH2 0x113B JUMP JUMPDEST SWAP2 POP PUSH2 0x16EB DUP3 PUSH2 0x16AA JUMP JUMPDEST PUSH1 0x20 DUP3 ADD SWAP1 POP SWAP2 SWAP1 POP JUMP JUMPDEST PUSH1 0x0 PUSH1 0x20 DUP3 ADD SWAP1 POP DUP2 DUP2 SUB PUSH1 0x0 DUP4 ADD MSTORE PUSH2 0x170F DUP2 PUSH2 0x16D3 JUMP JUMPDEST SWAP1 POP SWAP2 SWAP1 POP JUMP JUMPDEST PUSH32 0x4E487B7100000000000000000000000000000000000000000000000000000000 PUSH1 0x0 MSTORE PUSH1 0x32 PUSH1 0x4 MSTORE PUSH1 0x24 PUSH1 0x0 REVERT JUMPDEST PUSH32 0x4E487B7100000000000000000000000000000000000000000000000000000000 PUSH1 0x0 MSTORE PUSH1 0x22 PUSH1 0x4 MSTORE PUSH1 0x24 PUSH1 0x0 REVERT JUMPDEST PUSH1 0x0 PUSH1 0x2 DUP3 DIV SWAP1 POP PUSH1 0x1 DUP3 AND DUP1 PUSH2 0x178C JUMPI PUSH1 0x7F DUP3 AND SWAP2 POP JUMPDEST PUSH1 0x20 DUP3 LT DUP2 SUB PUSH2 0x179F JUMPI PUSH2 0x179E PUSH2 0x1745 JUMP JUMPDEST JUMPDEST POP SWAP2 SWAP1 POP JUMP JUMPDEST PUSH1 0x0 DUP2 MLOAD SWAP1 POP SWAP2 SWAP1 POP JUMP JUMPDEST PUSH1 0x0 DUP2 SWAP1 POP SWAP3 SWAP2 POP POP JUMP JUMPDEST PUSH1 0x0 PUSH2 0x17C6 DUP3 PUSH2 0x17A5 JUMP JUMPDEST PUSH2 0x17D0 DUP2 DUP6 PUSH2 0x17B0 JUMP JUMPDEST SWAP4 POP PUSH2 0x17E0 DUP2 DUP6 PUSH1 0x20 DUP7 ADD PUSH2 0x114C JUMP JUMPDEST DUP1 DUP5 ADD SWAP2 POP POP SWAP3 SWAP2 POP POP JUMP JUMPDEST PUSH1 0x0 PUSH2 0x17F8 DUP3 DUP5 PUSH2 0x17BB JUMP JUMPDEST SWAP2 POP DUP2 SWAP1 POP SWAP3 SWAP2 POP POP JUMP JUMPDEST PUSH32 0x45787465726E616C20636F6E74726163742063616C6C206661696C6564000000 PUSH1 0x0 DUP3 ADD MSTORE POP JUMP JUMPDEST PUSH1 0x0 PUSH2 0x1839 PUSH1 0x1D DUP4 PUSH2 0x113B JUMP JUMPDEST SWAP2 POP PUSH2 0x1844 DUP3 PUSH2 0x1803 JUMP JUMPDEST PUSH1 0x20 DUP3 ADD SWAP1 POP SWAP2 SWAP1 POP JUMP JUMPDEST PUSH1 0x0 PUSH1 0x20 DUP3 ADD SWAP1 POP DUP2 DUP2 SUB PUSH1 0x0 DUP4 ADD MSTORE PUSH2 0x1868 DUP2 PUSH2 0x182C JUMP JUMPDEST SWAP1 POP SWAP2 SWAP1 POP JUMP JUMPDEST PUSH32 0x4E6F7420746865206974656D206F776E65720000000000000000000000000000 PUSH1 0x0 DUP3 ADD MSTORE POP JUMP JUMPDEST PUSH1 0x0 PUSH2 0x18A5 PUSH1 0x12 DUP4 PUSH2 0x113B JUMP JUMPDEST SWAP2 POP PUSH2 0x18B0 DUP3 PUSH2 0x186F JUMP JUMPDEST PUSH1 0x20 DUP3 ADD SWAP1 POP SWAP2 SWAP1 POP JUMP JUMPDEST PUSH1 0x0 PUSH1 0x20 DUP3 ADD SWAP1 POP DUP2 DUP2 SUB PUSH1 0x0 DUP4 ADD MSTORE PUSH2 0x18D4 DUP2 PUSH2 0x1898 JUMP JUMPDEST SWAP1 POP SWAP2 SWAP1 POP JUMP JUMPDEST PUSH32 0x4E6F7420656E6F756768207175616E7469747920617661696C61626C65000000 PUSH1 0x0 DUP3 ADD MSTORE POP JUMP JUMPDEST PUSH1 0x0 PUSH2 0x1911 PUSH1 0x1D DUP4 PUSH2 0x113B JUMP JUMPDEST SWAP2 POP PUSH2 0x191C DUP3 PUSH2 0x18DB JUMP JUMPDEST PUSH1 0x20 DUP3 ADD SWAP1 POP SWAP2 SWAP1 POP JUMP JUMPDEST PUSH1 0x0 PUSH1 0x20 DUP3 ADD SWAP1 POP DUP2 DUP2 SUB PUSH1 0x0 DUP4 ADD MSTORE PUSH2 0x1940 DUP2 PUSH2 0x1904 JUMP JUMPDEST SWAP1 POP SWAP2 SWAP1 POP JUMP JUMPDEST PUSH32 0x4E487B7100000000000000000000000000000000000000000000000000000000 PUSH1 0x0 MSTORE PUSH1 0x11 PUSH1 0x4 MSTORE PUSH1 0x24 PUSH1 0x0 REVERT JUMPDEST PUSH1 0x0 PUSH2 0x1981 DUP3 PUSH2 0x10BA JUMP JUMPDEST SWAP2 POP PUSH2 0x198C DUP4 PUSH2 0x10BA JUMP JUMPDEST SWAP3 POP DUP3 DUP3 MUL PUSH2 0x199A DUP2 PUSH2 0x10BA JUMP JUMPDEST SWAP2 POP DUP3 DUP3 DIV DUP5 EQ DUP4 ISZERO OR PUSH2 0x19B1 JUMPI PUSH2 0x19B0 PUSH2 0x1947 JUMP JUMPDEST JUMPDEST POP SWAP3 SWAP2 POP POP JUMP JUMPDEST POP JUMP JUMPDEST PUSH1 0x0 PUSH2 0x19C8 PUSH1 0x0 DUP4 PUSH2 0x17B0 JUMP JUMPDEST SWAP2 POP PUSH2 0x19D3 DUP3 PUSH2 0x19B8 JUMP JUMPDEST PUSH1 0x0 DUP3 ADD SWAP1 POP SWAP2 SWAP1 POP JUMP JUMPDEST PUSH1 0x0 PUSH2 0x19E9 DUP3 PUSH2 0x19BB JUMP JUMPDEST SWAP2 POP DUP2 SWAP1 POP SWAP2 SWAP1 POP JUMP JUMPDEST PUSH32 0x5061796D656E74206661696C6564000000000000000000000000000000000000 PUSH1 0x0 DUP3 ADD MSTORE POP JUMP JUMPDEST PUSH1 0x0 PUSH2 0x1A29 PUSH1 0xE DUP4 PUSH2 0x113B JUMP JUMPDEST SWAP2 POP PUSH2 0x1A34 DUP3 PUSH2 0x19F3 JUMP JUMPDEST PUSH1 0x20 DUP3 ADD SWAP1 POP SWAP2 SWAP1 POP JUMP JUMPDEST PUSH1 0x0 PUSH1 0x20 DUP3 ADD SWAP1 POP DUP2 DUP2 SUB PUSH1 0x0 DUP4 ADD MSTORE PUSH2 0x1A58 DUP2 PUSH2 0x1A1C JUMP JUMPDEST SWAP1 POP SWAP2 SWAP1 POP JUMP JUMPDEST PUSH1 0x0 PUSH2 0x1A6A DUP3 PUSH2 0x10BA JUMP JUMPDEST SWAP2 POP PUSH2 0x1A75 DUP4 PUSH2 0x10BA JUMP JUMPDEST SWAP3 POP DUP3 DUP3 SUB SWAP1 POP DUP2 DUP2 GT ISZERO PUSH2 0x1A8D JUMPI PUSH2 0x1A8C PUSH2 0x1947 JUMP JUMPDEST JUMPDEST SWAP3 SWAP2 POP POP JUMP JUMPDEST PUSH1 0x0 PUSH1 0x20 DUP3 ADD SWAP1 POP PUSH2 0x1AA8 PUSH1 0x0 DUP4 ADD DUP5 PUSH2 0x11C0 JUMP JUMPDEST SWAP3 SWAP2 POP POP JUMP JUMPDEST PUSH1 0x0 DUP2 SWAP1 POP DUP2 PUSH1 0x0 MSTORE PUSH1 0x20 PUSH1 0x0 KECCAK256 SWAP1 POP SWAP2 SWAP1 POP JUMP JUMPDEST PUSH1 0x0 PUSH1 0x20 PUSH1 0x1F DUP4 ADD DIV SWAP1 POP SWAP2 SWAP1 POP JUMP JUMPDEST PUSH1 0x0 DUP3 DUP3 SHL SWAP1 POP SWAP3 SWAP2 POP POP JUMP JUMPDEST PUSH1 0x0 PUSH1 0x8 DUP4 MUL PUSH2 0x1B10 PUSH32 0xFFFFFFFFFFFFFFFFFFFFFFFFFFFFFFFFFFFFFFFFFFFFFFFFFFFFFFFFFFFFFFFF DUP3 PUSH2 0x1AD3 JUMP JUMPDEST PUSH2 0x1B1A DUP7 DUP4 PUSH2 0x1AD3 JUMP JUMPDEST SWAP6 POP DUP1 NOT DUP5 AND SWAP4 POP DUP1 DUP7 AND DUP5 OR SWAP3 POP POP POP SWAP4 SWAP3 POP POP POP JUMP JUMPDEST PUSH1 0x0 DUP2 SWAP1 POP SWAP2 SWAP1 POP JUMP JUMPDEST PUSH1 0x0 PUSH2 0x1B57 PUSH2 0x1B52 PUSH2 0x1B4D DUP5 PUSH2 0x10BA JUMP JUMPDEST PUSH2 0x1B32 JUMP JUMPDEST PUSH2 0x10BA JUMP JUMPDEST SWAP1 POP SWAP2 SWAP1 POP JUMP JUMPDEST PUSH1 0x0 DUP2 SWAP1 POP SWAP2 SWAP1 POP JUMP JUMPDEST PUSH2 0x1B71 DUP4 PUSH2 0x1B3C JUMP JUMPDEST PUSH2 0x1B85 PUSH2 0x1B7D DUP3 PUSH2 0x1B5E JUMP JUMPDEST DUP5 DUP5 SLOAD PUSH2 0x1AE0 JUMP JUMPDEST DUP3 SSTORE POP POP POP POP JUMP JUMPDEST PUSH1 0x0 SWAP1 JUMP JUMPDEST PUSH2 0x1B9A PUSH2 0x1B8D JUMP JUMPDEST PUSH2 0x1BA5 DUP2 DUP5 DUP5 PUSH2 0x1B68 JUMP JUMPDEST POP POP POP JUMP JUMPDEST JUMPDEST DUP2 DUP2 LT ISZERO PUSH2 0x1BC9 JUMPI PUSH2 0x1BBE PUSH1 0x0 DUP3 PUSH2 0x1B92 JUMP JUMPDEST PUSH1 0x1 DUP2 ADD SWAP1 POP PUSH2 0x1BAB JUMP JUMPDEST POP POP JUMP JUMPDEST PUSH1 0x1F DUP3 GT ISZERO PUSH2 0x1C0E JUMPI PUSH2 0x1BDF DUP2 PUSH2 0x1AAE JUMP JUMPDEST PUSH2 0x1BE8 DUP5 PUSH2 0x1AC3 JUMP JUMPDEST DUP2 ADD PUSH1 0x20 DUP6 LT ISZERO PUSH2 0x1BF7 JUMPI DUP2 SWAP1 POP JUMPDEST PUSH2 0x1C0B PUSH2 0x1C03 DUP6 PUSH2 0x1AC3 JUMP JUMPDEST DUP4 ADD DUP3 PUSH2 0x1BAA JUMP JUMPDEST POP POP JUMPDEST POP POP POP JUMP JUMPDEST PUSH1 0x0 DUP3 DUP3 SHR SWAP1 POP SWAP3 SWAP2 POP POP JUMP JUMPDEST PUSH1 0x0 PUSH2 0x1C31 PUSH1 0x0 NOT DUP5 PUSH1 0x8 MUL PUSH2 0x1C13 JUMP JUMPDEST NOT DUP1 DUP4 AND SWAP2 POP POP SWAP3 SWAP2 POP POP JUMP JUMPDEST PUSH1 0x0 PUSH2 0x1C4A DUP4 DUP4 PUSH2 0x1C20 JUMP JUMPDEST SWAP2 POP DUP3 PUSH1 0x2 MUL DUP3 OR SWAP1 POP SWAP3 SWAP2 POP POP JUMP JUMPDEST PUSH2 0x1C63 DUP3 PUSH2 0x1130 JUMP JUMPDEST PUSH8 0xFFFFFFFFFFFFFFFF DUP2 GT ISZERO PUSH2 0x1C7C JUMPI PUSH2 0x1C7B PUSH2 0x1249 JUMP JUMPDEST JUMPDEST PUSH2 0x1C86 DUP3 SLOAD PUSH2 0x1774 JUMP JUMPDEST PUSH2 0x1C91 DUP3 DUP3 DUP6 PUSH2 0x1BCD JUMP JUMPDEST PUSH1 0x0 PUSH1 0x20 SWAP1 POP PUSH1 0x1F DUP4 GT PUSH1 0x1 DUP2 EQ PUSH2 0x1CC4 JUMPI PUSH1 0x0 DUP5 ISZERO PUSH2 0x1CB2 JUMPI DUP3 DUP8 ADD MLOAD SWAP1 POP JUMPDEST PUSH2 0x1CBC DUP6 DUP3 PUSH2 0x1C3E JUMP JUMPDEST DUP7 SSTORE POP PUSH2 0x1D24 JUMP JUMPDEST PUSH1 0x1F NOT DUP5 AND PUSH2 0x1CD2 DUP7 PUSH2 0x1AAE JUMP JUMPDEST PUSH1 0x0 JUMPDEST DUP3 DUP2 LT ISZERO PUSH2 0x1CFA JUMPI DUP5 DUP10 ADD MLOAD DUP3 SSTORE PUSH1 0x1 DUP3 ADD SWAP2 POP PUSH1 0x20 DUP6 ADD SWAP5 POP PUSH1 0x20 DUP2 ADD SWAP1 POP PUSH2 0x1CD5 JUMP JUMPDEST DUP7 DUP4 LT ISZERO PUSH2 0x1D17 JUMPI DUP5 DUP10 ADD MLOAD PUSH2 0x1D13 PUSH1 0x1F DUP10 AND DUP3 PUSH2 0x1C20 JUMP JUMPDEST DUP4 SSTORE POP JUMPDEST PUSH1 0x1 PUSH1 0x2 DUP9 MUL ADD DUP9 SSTORE POP POP POP JUMPDEST POP POP POP POP POP POP JUMP JUMPDEST PUSH32 0x496E73756666696369656E74207061796D656E74000000000000000000000000 PUSH1 0x0 DUP3 ADD MSTORE POP JUMP JUMPDEST PUSH1 0x0 PUSH2 0x1D62 PUSH1 0x14 DUP4 PUSH2 0x113B JUMP JUMPDEST SWAP2 POP PUSH2 0x1D6D DUP3 PUSH2 0x1D2C JUMP JUMPDEST PUSH1 0x20 DUP3 ADD SWAP1 POP SWAP2 SWAP1 POP JUMP JUMPDEST PUSH1 0x0 PUSH1 0x20 DUP3 ADD SWAP1 POP DUP2 DUP2 SUB PUSH1 0x0 DUP4 ADD MSTORE PUSH2 0x1D91 DUP2 PUSH2 0x1D55 JUMP JUMPDEST SWAP1 POP SWAP2 SWAP1 POP JUMP INVALID LOG2 PUSH5 0x6970667358 0x22 SLT KECCAK256 DUP3 PUSH4 0xA5CE50A0 DUP10 0xC0 SMOD 0xEE SHR 0xD0 0xEE 0xCF BASEFEE 0xEF 0xA5 BALANCE 0xC8 SWAP8 0x4E LOG1 0xE6 0x4B KECCAK256 0xEC 0xCF 0x2B PUSH6 0xF3604C64736F PUSH13 0x63430008110033000000000000 "
				},
				"gasEstimates": {
					"creation": {
						"codeDepositCost": "1526000",
						"executionCost": "1596",
						"totalCost": "1527596"
					},
					"external": {
						"buyItem(address,uint256,uint256,address)": "infinite",
						"callExternalContract(address,bytes)": "infinite",
						"deleteItem(uint256)": "infinite",
						"editItem(uint256,string,string,uint256,uint256)": "infinite",
						"getItemDetails(address,uint256)": "infinite",
						"listItem(string,string,uint256,uint256)": "infinite",
						"purchaseItem(address,uint256,uint256)": "infinite"
					}
				},
				"methodIdentifiers": {
					"buyItem(address,uint256,uint256,address)": "a92e06a5",
					"callExternalContract(address,bytes)": "5e7b5fbf",
					"deleteItem(uint256)": "654fc833",
					"editItem(uint256,string,string,uint256,uint256)": "ca339212",
					"getItemDetails(address,uint256)": "594b1bfd",
					"listItem(string,string,uint256,uint256)": "ec4ceeea",
					"purchaseItem(address,uint256,uint256)": "fe6a30ca"
				}
			},
			"storageLayout": {
				"storage": [
					{
						"astId": 18,
						"contract": "NewContract.sol:ItemListing",
						"label": "sellerItems",
						"offset": 0,
						"slot": "0",
						"type": "t_mapping(t_address,t_array(t_struct(Item)12_storage)dyn_storage)"
					}
				],
				"types": {
					"t_address": {
						"encoding": "inplace",
						"label": "address",
						"numberOfBytes": "20"
					},
					"t_array(t_struct(Item)12_storage)dyn_storage": {
						"base": "t_struct(Item)12_storage",
						"encoding": "dynamic_array",
						"label": "struct ItemListing.Item[]",
						"numberOfBytes": "32"
					},
					"t_mapping(t_address,t_array(t_struct(Item)12_storage)dyn_storage)": {
						"encoding": "mapping",
						"key": "t_address",
						"label": "mapping(address => struct ItemListing.Item[])",
						"numberOfBytes": "32",
						"value": "t_array(t_struct(Item)12_storage)dyn_storage"
					},
					"t_string_storage": {
						"encoding": "bytes",
						"label": "string",
						"numberOfBytes": "32"
					},
					"t_struct(Item)12_storage": {
						"encoding": "inplace",
						"label": "struct ItemListing.Item",
						"members": [
							{
								"astId": 3,
								"contract": "NewContract.sol:ItemListing",
								"label": "name",
								"offset": 0,
								"slot": "0",
								"type": "t_string_storage"
							},
							{
								"astId": 5,
								"contract": "NewContract.sol:ItemListing",
								"label": "description",
								"offset": 0,
								"slot": "1",
								"type": "t_string_storage"
							},
							{
								"astId": 7,
								"contract": "NewContract.sol:ItemListing",
								"label": "price",
								"offset": 0,
								"slot": "2",
								"type": "t_uint256"
							},
							{
								"astId": 9,
								"contract": "NewContract.sol:ItemListing",
								"label": "quantity",
								"offset": 0,
								"slot": "3",
								"type": "t_uint256"
							},
							{
								"astId": 11,
								"contract": "NewContract.sol:ItemListing",
								"label": "owner",
								"offset": 0,
								"slot": "4",
								"type": "t_address"
							}
						],
						"numberOfBytes": "160"
					},
					"t_uint256": {
						"encoding": "inplace",
						"label": "uint256",
						"numberOfBytes": "32"
					}
				}
			},
			"userdoc": {
				"kind": "user",
				"methods": {},
				"version": 1
			}
		}
	}
}