{
	"Hello world.sol": {
		"ItemListing": {
			"abi": [
				{
					"inputs": [
						{
							"internalType": "string",
							"name": "_name",
							"type": "string"
						},
						{
							"internalType": "string",
							"name": "_description",
							"type": "string"
						},
						{
							"internalType": "uint256",
							"name": "_price",
							"type": "uint256"
						},
						{
							"internalType": "uint256",
							"name": "_quantity",
							"type": "uint256"
						}
					],
					"name": "createItem",
					"outputs": [],
					"stateMutability": "nonpayable",
					"type": "function"
				},
				{
					"inputs": [
						{
							"internalType": "address",
							"name": "_seller",
							"type": "address"
						},
						{
							"internalType": "uint256",
							"name": "_itemId",
							"type": "uint256"
						}
					],
					"name": "getItemDetails",
					"outputs": [
						{
							"internalType": "string",
							"name": "",
							"type": "string"
						},
						{
							"internalType": "string",
							"name": "",
							"type": "string"
						},
						{
							"internalType": "uint256",
							"name": "",
							"type": "uint256"
						},
						{
							"internalType": "uint256",
							"name": "",
							"type": "uint256"
						}
					],
					"stateMutability": "view",
					"type": "function"
				},
				{
					"inputs": [
						{
							"internalType": "address",
							"name": "_seller",
							"type": "address"
						}
					],
					"name": "getSellerItemCount",
					"outputs": [
						{
							"internalType": "uint256",
							"name": "",
							"type": "uint256"
						}
					],
					"stateMutability": "view",
					"type": "function"
				}
			],
			"devdoc": {
				"kind": "dev",
				"methods": {},
				"version": 1
			},
			"evm": {
				"assembly": "    /* \"Hello world.sol\":60:1277  contract ItemListing {... */\n  mstore(0x40, 0x80)\n  callvalue\n  dup1\n  iszero\n  tag_1\n  jumpi\n  0x00\n  dup1\n  revert\ntag_1:\n  pop\n  dataSize(sub_0)\n  dup1\n  dataOffset(sub_0)\n  0x00\n  codecopy\n  0x00\n  return\nstop\n\nsub_0: assembly {\n        /* \"Hello world.sol\":60:1277  contract ItemListing {... */\n      mstore(0x40, 0x80)\n      callvalue\n      dup1\n      iszero\n      tag_1\n      jumpi\n      0x00\n      dup1\n      revert\n    tag_1:\n      pop\n      jumpi(tag_2, lt(calldatasize, 0x04))\n      shr(0xe0, calldataload(0x00))\n      dup1\n      0x1733e999\n      eq\n      tag_3\n      jumpi\n      dup1\n      0x594b1bfd\n      eq\n      tag_4\n      jumpi\n      dup1\n      0x6fc36b38\n      eq\n      tag_5\n      jumpi\n    tag_2:\n      0x00\n      dup1\n      revert\n        /* \"Hello world.sol\":721:849  function getSellerItemCount(address _seller) public view returns (uint256) {... */\n    tag_3:\n      tag_6\n      0x04\n      dup1\n      calldatasize\n      sub\n      dup2\n      add\n      swap1\n      tag_7\n      swap2\n      swap1\n      tag_8\n      jump\t// in\n    tag_7:\n      tag_9\n      jump\t// in\n    tag_6:\n      mload(0x40)\n      tag_10\n      swap2\n      swap1\n      tag_11\n      jump\t// in\n    tag_10:\n      mload(0x40)\n      dup1\n      swap2\n      sub\n      swap1\n      return\n        /* \"Hello world.sol\":931:1274  function getItemDetails(address _seller, uint256 _itemId) public view returns(string memory, string memory, uint256, uint256) {... */\n    tag_4:\n      tag_12\n      0x04\n      dup1\n      calldatasize\n      sub\n      dup2\n      add\n      swap1\n      tag_13\n      swap2\n      swap1\n      tag_14\n      jump\t// in\n    tag_13:\n      tag_15\n      jump\t// in\n    tag_12:\n      mload(0x40)\n      tag_16\n      swap5\n      swap4\n      swap3\n      swap2\n      swap1\n      tag_17\n      jump\t// in\n    tag_16:\n      mload(0x40)\n      dup1\n      swap2\n      sub\n      swap1\n      return\n        /* \"Hello world.sol\":400:644  function createItem(string memory _name, string memory _description, uint256 _price, uint256 _quantity) public {... */\n    tag_5:\n      tag_18\n      0x04\n      dup1\n      calldatasize\n      sub\n      dup2\n      add\n      swap1\n      tag_19\n      swap2\n      swap1\n      tag_20\n      jump\t// in\n    tag_19:\n      tag_21\n      jump\t// in\n    tag_18:\n      stop\n        /* \"Hello world.sol\":721:849  function getSellerItemCount(address _seller) public view returns (uint256) {... */\n    tag_9:\n        /* \"Hello world.sol\":787:794  uint256 */\n      0x00\n        /* \"Hello world.sol\":814:825  sellerItems */\n      dup1\n        /* \"Hello world.sol\":814:834  sellerItems[_seller] */\n      0x00\n        /* \"Hello world.sol\":826:833  _seller */\n      dup4\n        /* \"Hello world.sol\":814:834  sellerItems[_seller] */\n      0xffffffffffffffffffffffffffffffffffffffff\n      and\n      0xffffffffffffffffffffffffffffffffffffffff\n      and\n      dup2\n      mstore\n      0x20\n      add\n      swap1\n      dup2\n      mstore\n      0x20\n      add\n      0x00\n      keccak256\n        /* \"Hello world.sol\":814:841  sellerItems[_seller].length */\n      dup1\n      sload\n      swap1\n      pop\n        /* \"Hello world.sol\":807:841  return sellerItems[_seller].length */\n      swap1\n      pop\n        /* \"Hello world.sol\":721:849  function getSellerItemCount(address _seller) public view returns (uint256) {... */\n      swap2\n      swap1\n      pop\n      jump\t// out\n        /* \"Hello world.sol\":931:1274  function getItemDetails(address _seller, uint256 _itemId) public view returns(string memory, string memory, uint256, uint256) {... */\n    tag_15:\n        /* \"Hello world.sol\":1009:1022  string memory */\n      0x60\n        /* \"Hello world.sol\":1024:1037  string memory */\n      dup1\n        /* \"Hello world.sol\":1039:1046  uint256 */\n      0x00\n        /* \"Hello world.sol\":1048:1055  uint256 */\n      dup1\n        /* \"Hello world.sol\":1086:1097  sellerItems */\n      0x00\n        /* \"Hello world.sol\":1086:1106  sellerItems[_seller] */\n      dup1\n        /* \"Hello world.sol\":1098:1105  _seller */\n      dup8\n        /* \"Hello world.sol\":1086:1106  sellerItems[_seller] */\n      0xffffffffffffffffffffffffffffffffffffffff\n      and\n      0xffffffffffffffffffffffffffffffffffffffff\n      and\n      dup2\n      mstore\n      0x20\n      add\n      swap1\n      dup2\n      mstore\n      0x20\n      add\n      0x00\n      keccak256\n        /* \"Hello world.sol\":1086:1113  sellerItems[_seller].length */\n      dup1\n      sload\n      swap1\n      pop\n        /* \"Hello world.sol\":1076:1083  _itemId */\n      dup6\n        /* \"Hello world.sol\":1076:1113  _itemId < sellerItems[_seller].length */\n      lt\n        /* \"Hello world.sol\":1068:1133  require(_itemId < sellerItems[_seller].length, \"Invalid item ID\") */\n      tag_24\n      jumpi\n      mload(0x40)\n      0x08c379a000000000000000000000000000000000000000000000000000000000\n      dup2\n      mstore\n      0x04\n      add\n      tag_25\n      swap1\n      tag_26\n      jump\t// in\n    tag_25:\n      mload(0x40)\n      dup1\n      swap2\n      sub\n      swap1\n      revert\n    tag_24:\n        /* \"Hello world.sol\":1144:1160  Item memory item */\n      0x00\n        /* \"Hello world.sol\":1163:1174  sellerItems */\n      dup1\n        /* \"Hello world.sol\":1163:1183  sellerItems[_seller] */\n      0x00\n        /* \"Hello world.sol\":1175:1182  _seller */\n      dup9\n        /* \"Hello world.sol\":1163:1183  sellerItems[_seller] */\n      0xffffffffffffffffffffffffffffffffffffffff\n      and\n      0xffffffffffffffffffffffffffffffffffffffff\n      and\n      dup2\n      mstore\n      0x20\n      add\n      swap1\n      dup2\n      mstore\n      0x20\n      add\n      0x00\n      keccak256\n        /* \"Hello world.sol\":1184:1191  _itemId */\n      dup7\n        /* \"Hello world.sol\":1163:1192  sellerItems[_seller][_itemId] */\n      dup2\n      sload\n      dup2\n      lt\n      tag_27\n      jumpi\n      tag_28\n      tag_29\n      jump\t// in\n    tag_28:\n    tag_27:\n      swap1\n      0x00\n      mstore\n      keccak256(0x00, 0x20)\n      swap1\n      0x04\n      mul\n      add\n        /* \"Hello world.sol\":1144:1192  Item memory item = sellerItems[_seller][_itemId] */\n      mload(0x40)\n      dup1\n      0x80\n      add\n      0x40\n      mstore\n      swap1\n      dup2\n      0x00\n      dup3\n      add\n      dup1\n      sload\n      tag_31\n      swap1\n      tag_32\n      jump\t// in\n    tag_31:\n      dup1\n      0x1f\n      add\n      0x20\n      dup1\n      swap2\n      div\n      mul\n      0x20\n      add\n      mload(0x40)\n      swap1\n      dup2\n      add\n      0x40\n      mstore\n      dup1\n      swap3\n      swap2\n      swap1\n      dup2\n      dup2\n      mstore\n      0x20\n      add\n      dup3\n      dup1\n      sload\n      tag_33\n      swap1\n      tag_32\n      jump\t// in\n    tag_33:\n      dup1\n      iszero\n      tag_34\n      jumpi\n      dup1\n      0x1f\n      lt\n      tag_35\n      jumpi\n      0x0100\n      dup1\n      dup4\n      sload\n      div\n      mul\n      dup4\n      mstore\n      swap2\n      0x20\n      add\n      swap2\n      jump(tag_34)\n    tag_35:\n      dup3\n      add\n      swap2\n      swap1\n      0x00\n      mstore\n      keccak256(0x00, 0x20)\n      swap1\n    tag_36:\n      dup2\n      sload\n      dup2\n      mstore\n      swap1\n      0x01\n      add\n      swap1\n      0x20\n      add\n      dup1\n      dup4\n      gt\n      tag_36\n      jumpi\n      dup3\n      swap1\n      sub\n      0x1f\n      and\n      dup3\n      add\n      swap2\n    tag_34:\n      pop\n      pop\n      pop\n      pop\n      pop\n      dup2\n      mstore\n      0x20\n      add\n      0x01\n      dup3\n      add\n      dup1\n      sload\n      tag_37\n      swap1\n      tag_32\n      jump\t// in\n    tag_37:\n      dup1\n      0x1f\n      add\n      0x20\n      dup1\n      swap2\n      div\n      mul\n      0x20\n      add\n      mload(0x40)\n      swap1\n      dup2\n      add\n      0x40\n      mstore\n      dup1\n      swap3\n      swap2\n      swap1\n      dup2\n      dup2\n      mstore\n      0x20\n      add\n      dup3\n      dup1\n      sload\n      tag_38\n      swap1\n      tag_32\n      jump\t// in\n    tag_38:\n      dup1\n      iszero\n      tag_39\n      jumpi\n      dup1\n      0x1f\n      lt\n      tag_40\n      jumpi\n      0x0100\n      dup1\n      dup4\n      sload\n      div\n      mul\n      dup4\n      mstore\n      swap2\n      0x20\n      add\n      swap2\n      jump(tag_39)\n    tag_40:\n      dup3\n      add\n      swap2\n      swap1\n      0x00\n      mstore\n      keccak256(0x00, 0x20)\n      swap1\n    tag_41:\n      dup2\n      sload\n      dup2\n      mstore\n      swap1\n      0x01\n      add\n      swap1\n      0x20\n      add\n      dup1\n      dup4\n      gt\n      tag_41\n      jumpi\n      dup3\n      swap1\n      sub\n      0x1f\n      and\n      dup3\n      add\n      swap2\n    tag_39:\n      pop\n      pop\n      pop\n      pop\n      pop\n      dup2\n      mstore\n      0x20\n      add\n      0x02\n      dup3\n      add\n      sload\n      dup2\n      mstore\n      0x20\n      add\n      0x03\n      dup3\n      add\n      sload\n      dup2\n      mstore\n      pop\n      pop\n      swap1\n      pop\n        /* \"Hello world.sol\":1211:1215  item */\n      dup1\n        /* \"Hello world.sol\":1211:1220  item.name */\n      0x00\n      add\n      mload\n        /* \"Hello world.sol\":1222:1226  item */\n      dup2\n        /* \"Hello world.sol\":1222:1238  item.description */\n      0x20\n      add\n      mload\n        /* \"Hello world.sol\":1240:1244  item */\n      dup3\n        /* \"Hello world.sol\":1240:1250  item.price */\n      0x40\n      add\n      mload\n        /* \"Hello world.sol\":1252:1256  item */\n      dup4\n        /* \"Hello world.sol\":1252:1265  item.quantity */\n      0x60\n      add\n      mload\n        /* \"Hello world.sol\":1203:1266  return (item.name, item.description, item.price, item.quantity) */\n      swap5\n      pop\n      swap5\n      pop\n      swap5\n      pop\n      swap5\n      pop\n      pop\n        /* \"Hello world.sol\":931:1274  function getItemDetails(address _seller, uint256 _itemId) public view returns(string memory, string memory, uint256, uint256) {... */\n      swap3\n      swap6\n      swap2\n      swap5\n      pop\n      swap3\n      pop\n      jump\t// out\n        /* \"Hello world.sol\":400:644  function createItem(string memory _name, string memory _description, uint256 _price, uint256 _quantity) public {... */\n    tag_21:\n        /* \"Hello world.sol\":522:541  Item memory newItem */\n      0x00\n        /* \"Hello world.sol\":544:588  Item(_name, _description, _price, _quantity) */\n      mload(0x40)\n      dup1\n      0x80\n      add\n      0x40\n      mstore\n      dup1\n        /* \"Hello world.sol\":549:554  _name */\n      dup7\n        /* \"Hello world.sol\":544:588  Item(_name, _description, _price, _quantity) */\n      dup2\n      mstore\n      0x20\n      add\n        /* \"Hello world.sol\":556:568  _description */\n      dup6\n        /* \"Hello world.sol\":544:588  Item(_name, _description, _price, _quantity) */\n      dup2\n      mstore\n      0x20\n      add\n        /* \"Hello world.sol\":570:576  _price */\n      dup5\n        /* \"Hello world.sol\":544:588  Item(_name, _description, _price, _quantity) */\n      dup2\n      mstore\n      0x20\n      add\n        /* \"Hello world.sol\":578:587  _quantity */\n      dup4\n        /* \"Hello world.sol\":544:588  Item(_name, _description, _price, _quantity) */\n      dup2\n      mstore\n      pop\n        /* \"Hello world.sol\":522:588  Item memory newItem = Item(_name, _description, _price, _quantity) */\n      swap1\n      pop\n        /* \"Hello world.sol\":599:610  sellerItems */\n      0x00\n        /* \"Hello world.sol\":599:622  sellerItems[msg.sender] */\n      dup1\n        /* \"Hello world.sol\":611:621  msg.sender */\n      caller\n        /* \"Hello world.sol\":599:622  sellerItems[msg.sender] */\n      0xffffffffffffffffffffffffffffffffffffffff\n      and\n      0xffffffffffffffffffffffffffffffffffffffff\n      and\n      dup2\n      mstore\n      0x20\n      add\n      swap1\n      dup2\n      mstore\n      0x20\n      add\n      0x00\n      keccak256\n        /* \"Hello world.sol\":628:635  newItem */\n      dup2\n        /* \"Hello world.sol\":599:636  sellerItems[msg.sender].push(newItem) */\n      swap1\n      dup1\n      0x01\n      dup2\n      sload\n      add\n      dup1\n      dup3\n      sstore\n      dup1\n      swap2\n      pop\n      pop\n      0x01\n      swap1\n      sub\n      swap1\n      0x00\n      mstore\n      keccak256(0x00, 0x20)\n      swap1\n      0x04\n      mul\n      add\n      0x00\n      swap1\n      swap2\n      swap1\n      swap2\n      swap1\n      swap2\n      pop\n      0x00\n      dup3\n      add\n      mload\n      dup2\n      0x00\n      add\n      swap1\n      dup2\n      tag_44\n      swap2\n      swap1\n      tag_45\n      jump\t// in\n    tag_44:\n      pop\n      0x20\n      dup3\n      add\n      mload\n      dup2\n      0x01\n      add\n      swap1\n      dup2\n      tag_46\n      swap2\n      swap1\n      tag_45\n      jump\t// in\n    tag_46:\n      pop\n      0x40\n      dup3\n      add\n      mload\n      dup2\n      0x02\n      add\n      sstore\n      0x60\n      dup3\n      add\n      mload\n      dup2\n      0x03\n      add\n      sstore\n      pop\n      pop\n        /* \"Hello world.sol\":511:644  {... */\n      pop\n        /* \"Hello world.sol\":400:644  function createItem(string memory _name, string memory _description, uint256 _price, uint256 _quantity) public {... */\n      pop\n      pop\n      pop\n      pop\n      jump\t// out\n        /* \"#utility.yul\":7:82   */\n    tag_47:\n        /* \"#utility.yul\":40:46   */\n      0x00\n        /* \"#utility.yul\":73:75   */\n      0x40\n        /* \"#utility.yul\":67:76   */\n      mload\n        /* \"#utility.yul\":57:76   */\n      swap1\n      pop\n        /* \"#utility.yul\":7:82   */\n      swap1\n      jump\t// out\n        /* \"#utility.yul\":88:205   */\n    tag_48:\n        /* \"#utility.yul\":197:198   */\n      0x00\n        /* \"#utility.yul\":194:195   */\n      dup1\n        /* \"#utility.yul\":187:199   */\n      revert\n        /* \"#utility.yul\":211:328   */\n    tag_49:\n        /* \"#utility.yul\":320:321   */\n      0x00\n        /* \"#utility.yul\":317:318   */\n      dup1\n        /* \"#utility.yul\":310:322   */\n      revert\n        /* \"#utility.yul\":334:460   */\n    tag_50:\n        /* \"#utility.yul\":371:378   */\n      0x00\n        /* \"#utility.yul\":411:453   */\n      0xffffffffffffffffffffffffffffffffffffffff\n        /* \"#utility.yul\":404:409   */\n      dup3\n        /* \"#utility.yul\":400:454   */\n      and\n        /* \"#utility.yul\":389:454   */\n      swap1\n      pop\n        /* \"#utility.yul\":334:460   */\n      swap2\n      swap1\n      pop\n      jump\t// out\n        /* \"#utility.yul\":466:562   */\n    tag_51:\n        /* \"#utility.yul\":503:510   */\n      0x00\n        /* \"#utility.yul\":532:556   */\n      tag_96\n        /* \"#utility.yul\":550:555   */\n      dup3\n        /* \"#utility.yul\":532:556   */\n      tag_50\n      jump\t// in\n    tag_96:\n        /* \"#utility.yul\":521:556   */\n      swap1\n      pop\n        /* \"#utility.yul\":466:562   */\n      swap2\n      swap1\n      pop\n      jump\t// out\n        /* \"#utility.yul\":568:690   */\n    tag_52:\n        /* \"#utility.yul\":641:665   */\n      tag_98\n        /* \"#utility.yul\":659:664   */\n      dup2\n        /* \"#utility.yul\":641:665   */\n      tag_51\n      jump\t// in\n    tag_98:\n        /* \"#utility.yul\":634:639   */\n      dup2\n        /* \"#utility.yul\":631:666   */\n      eq\n        /* \"#utility.yul\":621:684   */\n      tag_99\n      jumpi\n        /* \"#utility.yul\":680:681   */\n      0x00\n        /* \"#utility.yul\":677:678   */\n      dup1\n        /* \"#utility.yul\":670:682   */\n      revert\n        /* \"#utility.yul\":621:684   */\n    tag_99:\n        /* \"#utility.yul\":568:690   */\n      pop\n      jump\t// out\n        /* \"#utility.yul\":696:835   */\n    tag_53:\n        /* \"#utility.yul\":742:747   */\n      0x00\n        /* \"#utility.yul\":780:786   */\n      dup2\n        /* \"#utility.yul\":767:787   */\n      calldataload\n        /* \"#utility.yul\":758:787   */\n      swap1\n      pop\n        /* \"#utility.yul\":796:829   */\n      tag_101\n        /* \"#utility.yul\":823:828   */\n      dup2\n        /* \"#utility.yul\":796:829   */\n      tag_52\n      jump\t// in\n    tag_101:\n        /* \"#utility.yul\":696:835   */\n      swap3\n      swap2\n      pop\n      pop\n      jump\t// out\n        /* \"#utility.yul\":841:1170   */\n    tag_8:\n        /* \"#utility.yul\":900:906   */\n      0x00\n        /* \"#utility.yul\":949:951   */\n      0x20\n        /* \"#utility.yul\":937:946   */\n      dup3\n        /* \"#utility.yul\":928:935   */\n      dup5\n        /* \"#utility.yul\":924:947   */\n      sub\n        /* \"#utility.yul\":920:952   */\n      slt\n        /* \"#utility.yul\":917:1036   */\n      iszero\n      tag_103\n      jumpi\n        /* \"#utility.yul\":955:1034   */\n      tag_104\n      tag_48\n      jump\t// in\n    tag_104:\n        /* \"#utility.yul\":917:1036   */\n    tag_103:\n        /* \"#utility.yul\":1075:1076   */\n      0x00\n        /* \"#utility.yul\":1100:1153   */\n      tag_105\n        /* \"#utility.yul\":1145:1152   */\n      dup5\n        /* \"#utility.yul\":1136:1142   */\n      dup3\n        /* \"#utility.yul\":1125:1134   */\n      dup6\n        /* \"#utility.yul\":1121:1143   */\n      add\n        /* \"#utility.yul\":1100:1153   */\n      tag_53\n      jump\t// in\n    tag_105:\n        /* \"#utility.yul\":1090:1153   */\n      swap2\n      pop\n        /* \"#utility.yul\":1046:1163   */\n      pop\n        /* \"#utility.yul\":841:1170   */\n      swap3\n      swap2\n      pop\n      pop\n      jump\t// out\n        /* \"#utility.yul\":1176:1253   */\n    tag_54:\n        /* \"#utility.yul\":1213:1220   */\n      0x00\n        /* \"#utility.yul\":1242:1247   */\n      dup2\n        /* \"#utility.yul\":1231:1247   */\n      swap1\n      pop\n        /* \"#utility.yul\":1176:1253   */\n      swap2\n      swap1\n      pop\n      jump\t// out\n        /* \"#utility.yul\":1259:1377   */\n    tag_55:\n        /* \"#utility.yul\":1346:1370   */\n      tag_108\n        /* \"#utility.yul\":1364:1369   */\n      dup2\n        /* \"#utility.yul\":1346:1370   */\n      tag_54\n      jump\t// in\n    tag_108:\n        /* \"#utility.yul\":1341:1344   */\n      dup3\n        /* \"#utility.yul\":1334:1371   */\n      mstore\n        /* \"#utility.yul\":1259:1377   */\n      pop\n      pop\n      jump\t// out\n        /* \"#utility.yul\":1383:1605   */\n    tag_11:\n        /* \"#utility.yul\":1476:1480   */\n      0x00\n        /* \"#utility.yul\":1514:1516   */\n      0x20\n        /* \"#utility.yul\":1503:1512   */\n      dup3\n        /* \"#utility.yul\":1499:1517   */\n      add\n        /* \"#utility.yul\":1491:1517   */\n      swap1\n      pop\n        /* \"#utility.yul\":1527:1598   */\n      tag_110\n        /* \"#utility.yul\":1595:1596   */\n      0x00\n        /* \"#utility.yul\":1584:1593   */\n      dup4\n        /* \"#utility.yul\":1580:1597   */\n      add\n        /* \"#utility.yul\":1571:1577   */\n      dup5\n        /* \"#utility.yul\":1527:1598   */\n      tag_55\n      jump\t// in\n    tag_110:\n        /* \"#utility.yul\":1383:1605   */\n      swap3\n      swap2\n      pop\n      pop\n      jump\t// out\n        /* \"#utility.yul\":1611:1733   */\n    tag_56:\n        /* \"#utility.yul\":1684:1708   */\n      tag_112\n        /* \"#utility.yul\":1702:1707   */\n      dup2\n        /* \"#utility.yul\":1684:1708   */\n      tag_54\n      jump\t// in\n    tag_112:\n        /* \"#utility.yul\":1677:1682   */\n      dup2\n        /* \"#utility.yul\":1674:1709   */\n      eq\n        /* \"#utility.yul\":1664:1727   */\n      tag_113\n      jumpi\n        /* \"#utility.yul\":1723:1724   */\n      0x00\n        /* \"#utility.yul\":1720:1721   */\n      dup1\n        /* \"#utility.yul\":1713:1725   */\n      revert\n        /* \"#utility.yul\":1664:1727   */\n    tag_113:\n        /* \"#utility.yul\":1611:1733   */\n      pop\n      jump\t// out\n        /* \"#utility.yul\":1739:1878   */\n    tag_57:\n        /* \"#utility.yul\":1785:1790   */\n      0x00\n        /* \"#utility.yul\":1823:1829   */\n      dup2\n        /* \"#utility.yul\":1810:1830   */\n      calldataload\n        /* \"#utility.yul\":1801:1830   */\n      swap1\n      pop\n        /* \"#utility.yul\":1839:1872   */\n      tag_115\n        /* \"#utility.yul\":1866:1871   */\n      dup2\n        /* \"#utility.yul\":1839:1872   */\n      tag_56\n      jump\t// in\n    tag_115:\n        /* \"#utility.yul\":1739:1878   */\n      swap3\n      swap2\n      pop\n      pop\n      jump\t// out\n        /* \"#utility.yul\":1884:2358   */\n    tag_14:\n        /* \"#utility.yul\":1952:1958   */\n      0x00\n        /* \"#utility.yul\":1960:1966   */\n      dup1\n        /* \"#utility.yul\":2009:2011   */\n      0x40\n        /* \"#utility.yul\":1997:2006   */\n      dup4\n        /* \"#utility.yul\":1988:1995   */\n      dup6\n        /* \"#utility.yul\":1984:2007   */\n      sub\n        /* \"#utility.yul\":1980:2012   */\n      slt\n        /* \"#utility.yul\":1977:2096   */\n      iszero\n      tag_117\n      jumpi\n        /* \"#utility.yul\":2015:2094   */\n      tag_118\n      tag_48\n      jump\t// in\n    tag_118:\n        /* \"#utility.yul\":1977:2096   */\n    tag_117:\n        /* \"#utility.yul\":2135:2136   */\n      0x00\n        /* \"#utility.yul\":2160:2213   */\n      tag_119\n        /* \"#utility.yul\":2205:2212   */\n      dup6\n        /* \"#utility.yul\":2196:2202   */\n      dup3\n        /* \"#utility.yul\":2185:2194   */\n      dup7\n        /* \"#utility.yul\":2181:2203   */\n      add\n        /* \"#utility.yul\":2160:2213   */\n      tag_53\n      jump\t// in\n    tag_119:\n        /* \"#utility.yul\":2150:2213   */\n      swap3\n      pop\n        /* \"#utility.yul\":2106:2223   */\n      pop\n        /* \"#utility.yul\":2262:2264   */\n      0x20\n        /* \"#utility.yul\":2288:2341   */\n      tag_120\n        /* \"#utility.yul\":2333:2340   */\n      dup6\n        /* \"#utility.yul\":2324:2330   */\n      dup3\n        /* \"#utility.yul\":2313:2322   */\n      dup7\n        /* \"#utility.yul\":2309:2331   */\n      add\n        /* \"#utility.yul\":2288:2341   */\n      tag_57\n      jump\t// in\n    tag_120:\n        /* \"#utility.yul\":2278:2341   */\n      swap2\n      pop\n        /* \"#utility.yul\":2233:2351   */\n      pop\n        /* \"#utility.yul\":1884:2358   */\n      swap3\n      pop\n      swap3\n      swap1\n      pop\n      jump\t// out\n        /* \"#utility.yul\":2364:2463   */\n    tag_58:\n        /* \"#utility.yul\":2416:2422   */\n      0x00\n        /* \"#utility.yul\":2450:2455   */\n      dup2\n        /* \"#utility.yul\":2444:2456   */\n      mload\n        /* \"#utility.yul\":2434:2456   */\n      swap1\n      pop\n        /* \"#utility.yul\":2364:2463   */\n      swap2\n      swap1\n      pop\n      jump\t// out\n        /* \"#utility.yul\":2469:2638   */\n    tag_59:\n        /* \"#utility.yul\":2553:2564   */\n      0x00\n        /* \"#utility.yul\":2587:2593   */\n      dup3\n        /* \"#utility.yul\":2582:2585   */\n      dup3\n        /* \"#utility.yul\":2575:2594   */\n      mstore\n        /* \"#utility.yul\":2627:2631   */\n      0x20\n        /* \"#utility.yul\":2622:2625   */\n      dup3\n        /* \"#utility.yul\":2618:2632   */\n      add\n        /* \"#utility.yul\":2603:2632   */\n      swap1\n      pop\n        /* \"#utility.yul\":2469:2638   */\n      swap3\n      swap2\n      pop\n      pop\n      jump\t// out\n        /* \"#utility.yul\":2644:2890   */\n    tag_60:\n        /* \"#utility.yul\":2725:2726   */\n      0x00\n        /* \"#utility.yul\":2735:2848   */\n    tag_124:\n        /* \"#utility.yul\":2749:2755   */\n      dup4\n        /* \"#utility.yul\":2746:2747   */\n      dup2\n        /* \"#utility.yul\":2743:2756   */\n      lt\n        /* \"#utility.yul\":2735:2848   */\n      iszero\n      tag_126\n      jumpi\n        /* \"#utility.yul\":2834:2835   */\n      dup1\n        /* \"#utility.yul\":2829:2832   */\n      dup3\n        /* \"#utility.yul\":2825:2836   */\n      add\n        /* \"#utility.yul\":2819:2837   */\n      mload\n        /* \"#utility.yul\":2815:2816   */\n      dup2\n        /* \"#utility.yul\":2810:2813   */\n      dup5\n        /* \"#utility.yul\":2806:2817   */\n      add\n        /* \"#utility.yul\":2799:2838   */\n      mstore\n        /* \"#utility.yul\":2771:2773   */\n      0x20\n        /* \"#utility.yul\":2768:2769   */\n      dup2\n        /* \"#utility.yul\":2764:2774   */\n      add\n        /* \"#utility.yul\":2759:2774   */\n      swap1\n      pop\n        /* \"#utility.yul\":2735:2848   */\n      jump(tag_124)\n    tag_126:\n        /* \"#utility.yul\":2882:2883   */\n      0x00\n        /* \"#utility.yul\":2873:2879   */\n      dup5\n        /* \"#utility.yul\":2868:2871   */\n      dup5\n        /* \"#utility.yul\":2864:2880   */\n      add\n        /* \"#utility.yul\":2857:2884   */\n      mstore\n        /* \"#utility.yul\":2706:2890   */\n      pop\n        /* \"#utility.yul\":2644:2890   */\n      pop\n      pop\n      pop\n      jump\t// out\n        /* \"#utility.yul\":2896:2998   */\n    tag_61:\n        /* \"#utility.yul\":2937:2943   */\n      0x00\n        /* \"#utility.yul\":2988:2990   */\n      0x1f\n        /* \"#utility.yul\":2984:2991   */\n      not\n        /* \"#utility.yul\":2979:2981   */\n      0x1f\n        /* \"#utility.yul\":2972:2977   */\n      dup4\n        /* \"#utility.yul\":2968:2982   */\n      add\n        /* \"#utility.yul\":2964:2992   */\n      and\n        /* \"#utility.yul\":2954:2992   */\n      swap1\n      pop\n        /* \"#utility.yul\":2896:2998   */\n      swap2\n      swap1\n      pop\n      jump\t// out\n        /* \"#utility.yul\":3004:3381   */\n    tag_62:\n        /* \"#utility.yul\":3092:3095   */\n      0x00\n        /* \"#utility.yul\":3120:3159   */\n      tag_129\n        /* \"#utility.yul\":3153:3158   */\n      dup3\n        /* \"#utility.yul\":3120:3159   */\n      tag_58\n      jump\t// in\n    tag_129:\n        /* \"#utility.yul\":3175:3246   */\n      tag_130\n        /* \"#utility.yul\":3239:3245   */\n      dup2\n        /* \"#utility.yul\":3234:3237   */\n      dup6\n        /* \"#utility.yul\":3175:3246   */\n      tag_59\n      jump\t// in\n    tag_130:\n        /* \"#utility.yul\":3168:3246   */\n      swap4\n      pop\n        /* \"#utility.yul\":3255:3320   */\n      tag_131\n        /* \"#utility.yul\":3313:3319   */\n      dup2\n        /* \"#utility.yul\":3308:3311   */\n      dup6\n        /* \"#utility.yul\":3301:3305   */\n      0x20\n        /* \"#utility.yul\":3294:3299   */\n      dup7\n        /* \"#utility.yul\":3290:3306   */\n      add\n        /* \"#utility.yul\":3255:3320   */\n      tag_60\n      jump\t// in\n    tag_131:\n        /* \"#utility.yul\":3345:3374   */\n      tag_132\n        /* \"#utility.yul\":3367:3373   */\n      dup2\n        /* \"#utility.yul\":3345:3374   */\n      tag_61\n      jump\t// in\n    tag_132:\n        /* \"#utility.yul\":3340:3343   */\n      dup5\n        /* \"#utility.yul\":3336:3375   */\n      add\n        /* \"#utility.yul\":3329:3375   */\n      swap2\n      pop\n        /* \"#utility.yul\":3096:3381   */\n      pop\n        /* \"#utility.yul\":3004:3381   */\n      swap3\n      swap2\n      pop\n      pop\n      jump\t// out\n        /* \"#utility.yul\":3387:4122   */\n    tag_17:\n        /* \"#utility.yul\":3604:3608   */\n      0x00\n        /* \"#utility.yul\":3642:3645   */\n      0x80\n        /* \"#utility.yul\":3631:3640   */\n      dup3\n        /* \"#utility.yul\":3627:3646   */\n      add\n        /* \"#utility.yul\":3619:3646   */\n      swap1\n      pop\n        /* \"#utility.yul\":3692:3701   */\n      dup2\n        /* \"#utility.yul\":3686:3690   */\n      dup2\n        /* \"#utility.yul\":3682:3702   */\n      sub\n        /* \"#utility.yul\":3678:3679   */\n      0x00\n        /* \"#utility.yul\":3667:3676   */\n      dup4\n        /* \"#utility.yul\":3663:3680   */\n      add\n        /* \"#utility.yul\":3656:3703   */\n      mstore\n        /* \"#utility.yul\":3720:3798   */\n      tag_134\n        /* \"#utility.yul\":3793:3797   */\n      dup2\n        /* \"#utility.yul\":3784:3790   */\n      dup8\n        /* \"#utility.yul\":3720:3798   */\n      tag_62\n      jump\t// in\n    tag_134:\n        /* \"#utility.yul\":3712:3798   */\n      swap1\n      pop\n        /* \"#utility.yul\":3845:3854   */\n      dup2\n        /* \"#utility.yul\":3839:3843   */\n      dup2\n        /* \"#utility.yul\":3835:3855   */\n      sub\n        /* \"#utility.yul\":3830:3832   */\n      0x20\n        /* \"#utility.yul\":3819:3828   */\n      dup4\n        /* \"#utility.yul\":3815:3833   */\n      add\n        /* \"#utility.yul\":3808:3856   */\n      mstore\n        /* \"#utility.yul\":3873:3951   */\n      tag_135\n        /* \"#utility.yul\":3946:3950   */\n      dup2\n        /* \"#utility.yul\":3937:3943   */\n      dup7\n        /* \"#utility.yul\":3873:3951   */\n      tag_62\n      jump\t// in\n    tag_135:\n        /* \"#utility.yul\":3865:3951   */\n      swap1\n      pop\n        /* \"#utility.yul\":3961:4033   */\n      tag_136\n        /* \"#utility.yul\":4029:4031   */\n      0x40\n        /* \"#utility.yul\":4018:4027   */\n      dup4\n        /* \"#utility.yul\":4014:4032   */\n      add\n        /* \"#utility.yul\":4005:4011   */\n      dup6\n        /* \"#utility.yul\":3961:4033   */\n      tag_55\n      jump\t// in\n    tag_136:\n        /* \"#utility.yul\":4043:4115   */\n      tag_137\n        /* \"#utility.yul\":4111:4113   */\n      0x60\n        /* \"#utility.yul\":4100:4109   */\n      dup4\n        /* \"#utility.yul\":4096:4114   */\n      add\n        /* \"#utility.yul\":4087:4093   */\n      dup5\n        /* \"#utility.yul\":4043:4115   */\n      tag_55\n      jump\t// in\n    tag_137:\n        /* \"#utility.yul\":3387:4122   */\n      swap6\n      swap5\n      pop\n      pop\n      pop\n      pop\n      pop\n      jump\t// out\n        /* \"#utility.yul\":4128:4245   */\n    tag_63:\n        /* \"#utility.yul\":4237:4238   */\n      0x00\n        /* \"#utility.yul\":4234:4235   */\n      dup1\n        /* \"#utility.yul\":4227:4239   */\n      revert\n        /* \"#utility.yul\":4251:4368   */\n    tag_64:\n        /* \"#utility.yul\":4360:4361   */\n      0x00\n        /* \"#utility.yul\":4357:4358   */\n      dup1\n        /* \"#utility.yul\":4350:4362   */\n      revert\n        /* \"#utility.yul\":4374:4554   */\n    tag_65:\n        /* \"#utility.yul\":4422:4499   */\n      0x4e487b7100000000000000000000000000000000000000000000000000000000\n        /* \"#utility.yul\":4419:4420   */\n      0x00\n        /* \"#utility.yul\":4412:4500   */\n      mstore\n        /* \"#utility.yul\":4519:4523   */\n      0x41\n        /* \"#utility.yul\":4516:4517   */\n      0x04\n        /* \"#utility.yul\":4509:4524   */\n      mstore\n        /* \"#utility.yul\":4543:4547   */\n      0x24\n        /* \"#utility.yul\":4540:4541   */\n      0x00\n        /* \"#utility.yul\":4533:4548   */\n      revert\n        /* \"#utility.yul\":4560:4841   */\n    tag_66:\n        /* \"#utility.yul\":4643:4670   */\n      tag_142\n        /* \"#utility.yul\":4665:4669   */\n      dup3\n        /* \"#utility.yul\":4643:4670   */\n      tag_61\n      jump\t// in\n    tag_142:\n        /* \"#utility.yul\":4635:4641   */\n      dup2\n        /* \"#utility.yul\":4631:4671   */\n      add\n        /* \"#utility.yul\":4773:4779   */\n      dup2\n        /* \"#utility.yul\":4761:4771   */\n      dup2\n        /* \"#utility.yul\":4758:4780   */\n      lt\n        /* \"#utility.yul\":4737:4755   */\n      0xffffffffffffffff\n        /* \"#utility.yul\":4725:4735   */\n      dup3\n        /* \"#utility.yul\":4722:4756   */\n      gt\n        /* \"#utility.yul\":4719:4781   */\n      or\n        /* \"#utility.yul\":4716:4804   */\n      iszero\n      tag_143\n      jumpi\n        /* \"#utility.yul\":4784:4802   */\n      tag_144\n      tag_65\n      jump\t// in\n    tag_144:\n        /* \"#utility.yul\":4716:4804   */\n    tag_143:\n        /* \"#utility.yul\":4824:4834   */\n      dup1\n        /* \"#utility.yul\":4820:4822   */\n      0x40\n        /* \"#utility.yul\":4813:4835   */\n      mstore\n        /* \"#utility.yul\":4603:4841   */\n      pop\n        /* \"#utility.yul\":4560:4841   */\n      pop\n      pop\n      jump\t// out\n        /* \"#utility.yul\":4847:4976   */\n    tag_67:\n        /* \"#utility.yul\":4881:4887   */\n      0x00\n        /* \"#utility.yul\":4908:4928   */\n      tag_146\n      tag_47\n      jump\t// in\n    tag_146:\n        /* \"#utility.yul\":4898:4928   */\n      swap1\n      pop\n        /* \"#utility.yul\":4937:4970   */\n      tag_147\n        /* \"#utility.yul\":4965:4969   */\n      dup3\n        /* \"#utility.yul\":4957:4963   */\n      dup3\n        /* \"#utility.yul\":4937:4970   */\n      tag_66\n      jump\t// in\n    tag_147:\n        /* \"#utility.yul\":4847:4976   */\n      swap2\n      swap1\n      pop\n      jump\t// out\n        /* \"#utility.yul\":4982:5290   */\n    tag_68:\n        /* \"#utility.yul\":5044:5048   */\n      0x00\n        /* \"#utility.yul\":5134:5152   */\n      0xffffffffffffffff\n        /* \"#utility.yul\":5126:5132   */\n      dup3\n        /* \"#utility.yul\":5123:5153   */\n      gt\n        /* \"#utility.yul\":5120:5176   */\n      iszero\n      tag_149\n      jumpi\n        /* \"#utility.yul\":5156:5174   */\n      tag_150\n      tag_65\n      jump\t// in\n    tag_150:\n        /* \"#utility.yul\":5120:5176   */\n    tag_149:\n        /* \"#utility.yul\":5194:5223   */\n      tag_151\n        /* \"#utility.yul\":5216:5222   */\n      dup3\n        /* \"#utility.yul\":5194:5223   */\n      tag_61\n      jump\t// in\n    tag_151:\n        /* \"#utility.yul\":5186:5223   */\n      swap1\n      pop\n        /* \"#utility.yul\":5278:5282   */\n      0x20\n        /* \"#utility.yul\":5272:5276   */\n      dup2\n        /* \"#utility.yul\":5268:5283   */\n      add\n        /* \"#utility.yul\":5260:5283   */\n      swap1\n      pop\n        /* \"#utility.yul\":4982:5290   */\n      swap2\n      swap1\n      pop\n      jump\t// out\n        /* \"#utility.yul\":5296:5442   */\n    tag_69:\n        /* \"#utility.yul\":5393:5399   */\n      dup3\n        /* \"#utility.yul\":5388:5391   */\n      dup2\n        /* \"#utility.yul\":5383:5386   */\n      dup4\n        /* \"#utility.yul\":5370:5400   */\n      calldatacopy\n        /* \"#utility.yul\":5434:5435   */\n      0x00\n        /* \"#utility.yul\":5425:5431   */\n      dup4\n        /* \"#utility.yul\":5420:5423   */\n      dup4\n        /* \"#utility.yul\":5416:5432   */\n      add\n        /* \"#utility.yul\":5409:5436   */\n      mstore\n        /* \"#utility.yul\":5296:5442   */\n      pop\n      pop\n      pop\n      jump\t// out\n        /* \"#utility.yul\":5448:5873   */\n    tag_70:\n        /* \"#utility.yul\":5526:5531   */\n      0x00\n        /* \"#utility.yul\":5551:5617   */\n      tag_154\n        /* \"#utility.yul\":5567:5616   */\n      tag_155\n        /* \"#utility.yul\":5609:5615   */\n      dup5\n        /* \"#utility.yul\":5567:5616   */\n      tag_68\n      jump\t// in\n    tag_155:\n        /* \"#utility.yul\":5551:5617   */\n      tag_67\n      jump\t// in\n    tag_154:\n        /* \"#utility.yul\":5542:5617   */\n      swap1\n      pop\n        /* \"#utility.yul\":5640:5646   */\n      dup3\n        /* \"#utility.yul\":5633:5638   */\n      dup2\n        /* \"#utility.yul\":5626:5647   */\n      mstore\n        /* \"#utility.yul\":5678:5682   */\n      0x20\n        /* \"#utility.yul\":5671:5676   */\n      dup2\n        /* \"#utility.yul\":5667:5683   */\n      add\n        /* \"#utility.yul\":5716:5719   */\n      dup5\n        /* \"#utility.yul\":5707:5713   */\n      dup5\n        /* \"#utility.yul\":5702:5705   */\n      dup5\n        /* \"#utility.yul\":5698:5714   */\n      add\n        /* \"#utility.yul\":5695:5720   */\n      gt\n        /* \"#utility.yul\":5692:5804   */\n      iszero\n      tag_156\n      jumpi\n        /* \"#utility.yul\":5723:5802   */\n      tag_157\n      tag_64\n      jump\t// in\n    tag_157:\n        /* \"#utility.yul\":5692:5804   */\n    tag_156:\n        /* \"#utility.yul\":5813:5867   */\n      tag_158\n        /* \"#utility.yul\":5860:5866   */\n      dup5\n        /* \"#utility.yul\":5855:5858   */\n      dup3\n        /* \"#utility.yul\":5850:5853   */\n      dup6\n        /* \"#utility.yul\":5813:5867   */\n      tag_69\n      jump\t// in\n    tag_158:\n        /* \"#utility.yul\":5532:5873   */\n      pop\n        /* \"#utility.yul\":5448:5873   */\n      swap4\n      swap3\n      pop\n      pop\n      pop\n      jump\t// out\n        /* \"#utility.yul\":5893:6233   */\n    tag_71:\n        /* \"#utility.yul\":5949:5954   */\n      0x00\n        /* \"#utility.yul\":5998:6001   */\n      dup3\n        /* \"#utility.yul\":5991:5995   */\n      0x1f\n        /* \"#utility.yul\":5983:5989   */\n      dup4\n        /* \"#utility.yul\":5979:5996   */\n      add\n        /* \"#utility.yul\":5975:6002   */\n      slt\n        /* \"#utility.yul\":5965:6087   */\n      tag_160\n      jumpi\n        /* \"#utility.yul\":6006:6085   */\n      tag_161\n      tag_63\n      jump\t// in\n    tag_161:\n        /* \"#utility.yul\":5965:6087   */\n    tag_160:\n        /* \"#utility.yul\":6123:6129   */\n      dup2\n        /* \"#utility.yul\":6110:6130   */\n      calldataload\n        /* \"#utility.yul\":6148:6227   */\n      tag_162\n        /* \"#utility.yul\":6223:6226   */\n      dup5\n        /* \"#utility.yul\":6215:6221   */\n      dup3\n        /* \"#utility.yul\":6208:6212   */\n      0x20\n        /* \"#utility.yul\":6200:6206   */\n      dup7\n        /* \"#utility.yul\":6196:6213   */\n      add\n        /* \"#utility.yul\":6148:6227   */\n      tag_70\n      jump\t// in\n    tag_162:\n        /* \"#utility.yul\":6139:6227   */\n      swap2\n      pop\n        /* \"#utility.yul\":5955:6233   */\n      pop\n        /* \"#utility.yul\":5893:6233   */\n      swap3\n      swap2\n      pop\n      pop\n      jump\t// out\n        /* \"#utility.yul\":6239:7364   */\n    tag_20:\n        /* \"#utility.yul\":6345:6351   */\n      0x00\n        /* \"#utility.yul\":6353:6359   */\n      dup1\n        /* \"#utility.yul\":6361:6367   */\n      0x00\n        /* \"#utility.yul\":6369:6375   */\n      dup1\n        /* \"#utility.yul\":6418:6421   */\n      0x80\n        /* \"#utility.yul\":6406:6415   */\n      dup6\n        /* \"#utility.yul\":6397:6404   */\n      dup8\n        /* \"#utility.yul\":6393:6416   */\n      sub\n        /* \"#utility.yul\":6389:6422   */\n      slt\n        /* \"#utility.yul\":6386:6506   */\n      iszero\n      tag_164\n      jumpi\n        /* \"#utility.yul\":6425:6504   */\n      tag_165\n      tag_48\n      jump\t// in\n    tag_165:\n        /* \"#utility.yul\":6386:6506   */\n    tag_164:\n        /* \"#utility.yul\":6573:6574   */\n      0x00\n        /* \"#utility.yul\":6562:6571   */\n      dup6\n        /* \"#utility.yul\":6558:6575   */\n      add\n        /* \"#utility.yul\":6545:6576   */\n      calldataload\n        /* \"#utility.yul\":6603:6621   */\n      0xffffffffffffffff\n        /* \"#utility.yul\":6595:6601   */\n      dup2\n        /* \"#utility.yul\":6592:6622   */\n      gt\n        /* \"#utility.yul\":6589:6706   */\n      iszero\n      tag_166\n      jumpi\n        /* \"#utility.yul\":6625:6704   */\n      tag_167\n      tag_49\n      jump\t// in\n    tag_167:\n        /* \"#utility.yul\":6589:6706   */\n    tag_166:\n        /* \"#utility.yul\":6730:6793   */\n      tag_168\n        /* \"#utility.yul\":6785:6792   */\n      dup8\n        /* \"#utility.yul\":6776:6782   */\n      dup3\n        /* \"#utility.yul\":6765:6774   */\n      dup9\n        /* \"#utility.yul\":6761:6783   */\n      add\n        /* \"#utility.yul\":6730:6793   */\n      tag_71\n      jump\t// in\n    tag_168:\n        /* \"#utility.yul\":6720:6793   */\n      swap5\n      pop\n        /* \"#utility.yul\":6516:6803   */\n      pop\n        /* \"#utility.yul\":6870:6872   */\n      0x20\n        /* \"#utility.yul\":6859:6868   */\n      dup6\n        /* \"#utility.yul\":6855:6873   */\n      add\n        /* \"#utility.yul\":6842:6874   */\n      calldataload\n        /* \"#utility.yul\":6901:6919   */\n      0xffffffffffffffff\n        /* \"#utility.yul\":6893:6899   */\n      dup2\n        /* \"#utility.yul\":6890:6920   */\n      gt\n        /* \"#utility.yul\":6887:7004   */\n      iszero\n      tag_169\n      jumpi\n        /* \"#utility.yul\":6923:7002   */\n      tag_170\n      tag_49\n      jump\t// in\n    tag_170:\n        /* \"#utility.yul\":6887:7004   */\n    tag_169:\n        /* \"#utility.yul\":7028:7091   */\n      tag_171\n        /* \"#utility.yul\":7083:7090   */\n      dup8\n        /* \"#utility.yul\":7074:7080   */\n      dup3\n        /* \"#utility.yul\":7063:7072   */\n      dup9\n        /* \"#utility.yul\":7059:7081   */\n      add\n        /* \"#utility.yul\":7028:7091   */\n      tag_71\n      jump\t// in\n    tag_171:\n        /* \"#utility.yul\":7018:7091   */\n      swap4\n      pop\n        /* \"#utility.yul\":6813:7101   */\n      pop\n        /* \"#utility.yul\":7140:7142   */\n      0x40\n        /* \"#utility.yul\":7166:7219   */\n      tag_172\n        /* \"#utility.yul\":7211:7218   */\n      dup8\n        /* \"#utility.yul\":7202:7208   */\n      dup3\n        /* \"#utility.yul\":7191:7200   */\n      dup9\n        /* \"#utility.yul\":7187:7209   */\n      add\n        /* \"#utility.yul\":7166:7219   */\n      tag_57\n      jump\t// in\n    tag_172:\n        /* \"#utility.yul\":7156:7219   */\n      swap3\n      pop\n        /* \"#utility.yul\":7111:7229   */\n      pop\n        /* \"#utility.yul\":7268:7270   */\n      0x60\n        /* \"#utility.yul\":7294:7347   */\n      tag_173\n        /* \"#utility.yul\":7339:7346   */\n      dup8\n        /* \"#utility.yul\":7330:7336   */\n      dup3\n        /* \"#utility.yul\":7319:7328   */\n      dup9\n        /* \"#utility.yul\":7315:7337   */\n      add\n        /* \"#utility.yul\":7294:7347   */\n      tag_57\n      jump\t// in\n    tag_173:\n        /* \"#utility.yul\":7284:7347   */\n      swap2\n      pop\n        /* \"#utility.yul\":7239:7357   */\n      pop\n        /* \"#utility.yul\":6239:7364   */\n      swap3\n      swap6\n      swap2\n      swap5\n      pop\n      swap3\n      pop\n      jump\t// out\n        /* \"#utility.yul\":7370:7535   */\n    tag_72:\n        /* \"#utility.yul\":7510:7527   */\n      0x496e76616c6964206974656d2049440000000000000000000000000000000000\n        /* \"#utility.yul\":7506:7507   */\n      0x00\n        /* \"#utility.yul\":7498:7504   */\n      dup3\n        /* \"#utility.yul\":7494:7508   */\n      add\n        /* \"#utility.yul\":7487:7528   */\n      mstore\n        /* \"#utility.yul\":7370:7535   */\n      pop\n      jump\t// out\n        /* \"#utility.yul\":7541:7907   */\n    tag_73:\n        /* \"#utility.yul\":7683:7686   */\n      0x00\n        /* \"#utility.yul\":7704:7771   */\n      tag_176\n        /* \"#utility.yul\":7768:7770   */\n      0x0f\n        /* \"#utility.yul\":7763:7766   */\n      dup4\n        /* \"#utility.yul\":7704:7771   */\n      tag_59\n      jump\t// in\n    tag_176:\n        /* \"#utility.yul\":7697:7771   */\n      swap2\n      pop\n        /* \"#utility.yul\":7780:7873   */\n      tag_177\n        /* \"#utility.yul\":7869:7872   */\n      dup3\n        /* \"#utility.yul\":7780:7873   */\n      tag_72\n      jump\t// in\n    tag_177:\n        /* \"#utility.yul\":7898:7900   */\n      0x20\n        /* \"#utility.yul\":7893:7896   */\n      dup3\n        /* \"#utility.yul\":7889:7901   */\n      add\n        /* \"#utility.yul\":7882:7901   */\n      swap1\n      pop\n        /* \"#utility.yul\":7541:7907   */\n      swap2\n      swap1\n      pop\n      jump\t// out\n        /* \"#utility.yul\":7913:8332   */\n    tag_26:\n        /* \"#utility.yul\":8079:8083   */\n      0x00\n        /* \"#utility.yul\":8117:8119   */\n      0x20\n        /* \"#utility.yul\":8106:8115   */\n      dup3\n        /* \"#utility.yul\":8102:8120   */\n      add\n        /* \"#utility.yul\":8094:8120   */\n      swap1\n      pop\n        /* \"#utility.yul\":8166:8175   */\n      dup2\n        /* \"#utility.yul\":8160:8164   */\n      dup2\n        /* \"#utility.yul\":8156:8176   */\n      sub\n        /* \"#utility.yul\":8152:8153   */\n      0x00\n        /* \"#utility.yul\":8141:8150   */\n      dup4\n        /* \"#utility.yul\":8137:8154   */\n      add\n        /* \"#utility.yul\":8130:8177   */\n      mstore\n        /* \"#utility.yul\":8194:8325   */\n      tag_179\n        /* \"#utility.yul\":8320:8324   */\n      dup2\n        /* \"#utility.yul\":8194:8325   */\n      tag_73\n      jump\t// in\n    tag_179:\n        /* \"#utility.yul\":8186:8325   */\n      swap1\n      pop\n        /* \"#utility.yul\":7913:8332   */\n      swap2\n      swap1\n      pop\n      jump\t// out\n        /* \"#utility.yul\":8338:8518   */\n    tag_29:\n        /* \"#utility.yul\":8386:8463   */\n      0x4e487b7100000000000000000000000000000000000000000000000000000000\n        /* \"#utility.yul\":8383:8384   */\n      0x00\n        /* \"#utility.yul\":8376:8464   */\n      mstore\n        /* \"#utility.yul\":8483:8487   */\n      0x32\n        /* \"#utility.yul\":8480:8481   */\n      0x04\n        /* \"#utility.yul\":8473:8488   */\n      mstore\n        /* \"#utility.yul\":8507:8511   */\n      0x24\n        /* \"#utility.yul\":8504:8505   */\n      0x00\n        /* \"#utility.yul\":8497:8512   */\n      revert\n        /* \"#utility.yul\":8524:8704   */\n    tag_74:\n        /* \"#utility.yul\":8572:8649   */\n      0x4e487b7100000000000000000000000000000000000000000000000000000000\n        /* \"#utility.yul\":8569:8570   */\n      0x00\n        /* \"#utility.yul\":8562:8650   */\n      mstore\n        /* \"#utility.yul\":8669:8673   */\n      0x22\n        /* \"#utility.yul\":8666:8667   */\n      0x04\n        /* \"#utility.yul\":8659:8674   */\n      mstore\n        /* \"#utility.yul\":8693:8697   */\n      0x24\n        /* \"#utility.yul\":8690:8691   */\n      0x00\n        /* \"#utility.yul\":8683:8698   */\n      revert\n        /* \"#utility.yul\":8710:9030   */\n    tag_32:\n        /* \"#utility.yul\":8754:8760   */\n      0x00\n        /* \"#utility.yul\":8791:8792   */\n      0x02\n        /* \"#utility.yul\":8785:8789   */\n      dup3\n        /* \"#utility.yul\":8781:8793   */\n      div\n        /* \"#utility.yul\":8771:8793   */\n      swap1\n      pop\n        /* \"#utility.yul\":8838:8839   */\n      0x01\n        /* \"#utility.yul\":8832:8836   */\n      dup3\n        /* \"#utility.yul\":8828:8840   */\n      and\n        /* \"#utility.yul\":8859:8877   */\n      dup1\n        /* \"#utility.yul\":8849:8930   */\n      tag_183\n      jumpi\n        /* \"#utility.yul\":8915:8919   */\n      0x7f\n        /* \"#utility.yul\":8907:8913   */\n      dup3\n        /* \"#utility.yul\":8903:8920   */\n      and\n        /* \"#utility.yul\":8893:8920   */\n      swap2\n      pop\n        /* \"#utility.yul\":8849:8930   */\n    tag_183:\n        /* \"#utility.yul\":8977:8979   */\n      0x20\n        /* \"#utility.yul\":8969:8975   */\n      dup3\n        /* \"#utility.yul\":8966:8980   */\n      lt\n        /* \"#utility.yul\":8946:8964   */\n      dup2\n        /* \"#utility.yul\":8943:8981   */\n      sub\n        /* \"#utility.yul\":8940:9024   */\n      tag_184\n      jumpi\n        /* \"#utility.yul\":8996:9014   */\n      tag_185\n      tag_74\n      jump\t// in\n    tag_185:\n        /* \"#utility.yul\":8940:9024   */\n    tag_184:\n        /* \"#utility.yul\":8761:9030   */\n      pop\n        /* \"#utility.yul\":8710:9030   */\n      swap2\n      swap1\n      pop\n      jump\t// out\n        /* \"#utility.yul\":9036:9177   */\n    tag_75:\n        /* \"#utility.yul\":9085:9089   */\n      0x00\n        /* \"#utility.yul\":9108:9111   */\n      dup2\n        /* \"#utility.yul\":9100:9111   */\n      swap1\n      pop\n        /* \"#utility.yul\":9131:9134   */\n      dup2\n        /* \"#utility.yul\":9128:9129   */\n      0x00\n        /* \"#utility.yul\":9121:9135   */\n      mstore\n        /* \"#utility.yul\":9165:9169   */\n      0x20\n        /* \"#utility.yul\":9162:9163   */\n      0x00\n        /* \"#utility.yul\":9152:9170   */\n      keccak256\n        /* \"#utility.yul\":9144:9170   */\n      swap1\n      pop\n        /* \"#utility.yul\":9036:9177   */\n      swap2\n      swap1\n      pop\n      jump\t// out\n        /* \"#utility.yul\":9183:9276   */\n    tag_76:\n        /* \"#utility.yul\":9220:9226   */\n      0x00\n        /* \"#utility.yul\":9267:9269   */\n      0x20\n        /* \"#utility.yul\":9262:9264   */\n      0x1f\n        /* \"#utility.yul\":9255:9260   */\n      dup4\n        /* \"#utility.yul\":9251:9265   */\n      add\n        /* \"#utility.yul\":9247:9270   */\n      div\n        /* \"#utility.yul\":9237:9270   */\n      swap1\n      pop\n        /* \"#utility.yul\":9183:9276   */\n      swap2\n      swap1\n      pop\n      jump\t// out\n        /* \"#utility.yul\":9282:9389   */\n    tag_77:\n        /* \"#utility.yul\":9326:9334   */\n      0x00\n        /* \"#utility.yul\":9376:9381   */\n      dup3\n        /* \"#utility.yul\":9370:9374   */\n      dup3\n        /* \"#utility.yul\":9366:9382   */\n      shl\n        /* \"#utility.yul\":9345:9382   */\n      swap1\n      pop\n        /* \"#utility.yul\":9282:9389   */\n      swap3\n      swap2\n      pop\n      pop\n      jump\t// out\n        /* \"#utility.yul\":9395:9788   */\n    tag_78:\n        /* \"#utility.yul\":9464:9470   */\n      0x00\n        /* \"#utility.yul\":9514:9515   */\n      0x08\n        /* \"#utility.yul\":9502:9512   */\n      dup4\n        /* \"#utility.yul\":9498:9516   */\n      mul\n        /* \"#utility.yul\":9537:9634   */\n      tag_190\n        /* \"#utility.yul\":9567:9633   */\n      0xffffffffffffffffffffffffffffffffffffffffffffffffffffffffffffffff\n        /* \"#utility.yul\":9556:9565   */\n      dup3\n        /* \"#utility.yul\":9537:9634   */\n      tag_77\n      jump\t// in\n    tag_190:\n        /* \"#utility.yul\":9655:9694   */\n      tag_191\n        /* \"#utility.yul\":9685:9693   */\n      dup7\n        /* \"#utility.yul\":9674:9683   */\n      dup4\n        /* \"#utility.yul\":9655:9694   */\n      tag_77\n      jump\t// in\n    tag_191:\n        /* \"#utility.yul\":9643:9694   */\n      swap6\n      pop\n        /* \"#utility.yul\":9727:9731   */\n      dup1\n        /* \"#utility.yul\":9723:9732   */\n      not\n        /* \"#utility.yul\":9716:9721   */\n      dup5\n        /* \"#utility.yul\":9712:9733   */\n      and\n        /* \"#utility.yul\":9703:9733   */\n      swap4\n      pop\n        /* \"#utility.yul\":9776:9780   */\n      dup1\n        /* \"#utility.yul\":9766:9774   */\n      dup7\n        /* \"#utility.yul\":9762:9781   */\n      and\n        /* \"#utility.yul\":9755:9760   */\n      dup5\n        /* \"#utility.yul\":9752:9782   */\n      or\n        /* \"#utility.yul\":9742:9782   */\n      swap3\n      pop\n        /* \"#utility.yul\":9471:9788   */\n      pop\n      pop\n        /* \"#utility.yul\":9395:9788   */\n      swap4\n      swap3\n      pop\n      pop\n      pop\n      jump\t// out\n        /* \"#utility.yul\":9794:9854   */\n    tag_79:\n        /* \"#utility.yul\":9822:9825   */\n      0x00\n        /* \"#utility.yul\":9843:9848   */\n      dup2\n        /* \"#utility.yul\":9836:9848   */\n      swap1\n      pop\n        /* \"#utility.yul\":9794:9854   */\n      swap2\n      swap1\n      pop\n      jump\t// out\n        /* \"#utility.yul\":9860:10002   */\n    tag_80:\n        /* \"#utility.yul\":9910:9919   */\n      0x00\n        /* \"#utility.yul\":9943:9996   */\n      tag_194\n        /* \"#utility.yul\":9961:9995   */\n      tag_195\n        /* \"#utility.yul\":9970:9994   */\n      tag_196\n        /* \"#utility.yul\":9988:9993   */\n      dup5\n        /* \"#utility.yul\":9970:9994   */\n      tag_54\n      jump\t// in\n    tag_196:\n        /* \"#utility.yul\":9961:9995   */\n      tag_79\n      jump\t// in\n    tag_195:\n        /* \"#utility.yul\":9943:9996   */\n      tag_54\n      jump\t// in\n    tag_194:\n        /* \"#utility.yul\":9930:9996   */\n      swap1\n      pop\n        /* \"#utility.yul\":9860:10002   */\n      swap2\n      swap1\n      pop\n      jump\t// out\n        /* \"#utility.yul\":10008:10083   */\n    tag_81:\n        /* \"#utility.yul\":10051:10054   */\n      0x00\n        /* \"#utility.yul\":10072:10077   */\n      dup2\n        /* \"#utility.yul\":10065:10077   */\n      swap1\n      pop\n        /* \"#utility.yul\":10008:10083   */\n      swap2\n      swap1\n      pop\n      jump\t// out\n        /* \"#utility.yul\":10089:10358   */\n    tag_82:\n        /* \"#utility.yul\":10199:10238   */\n      tag_199\n        /* \"#utility.yul\":10230:10237   */\n      dup4\n        /* \"#utility.yul\":10199:10238   */\n      tag_80\n      jump\t// in\n    tag_199:\n        /* \"#utility.yul\":10260:10351   */\n      tag_200\n        /* \"#utility.yul\":10309:10350   */\n      tag_201\n        /* \"#utility.yul\":10333:10349   */\n      dup3\n        /* \"#utility.yul\":10309:10350   */\n      tag_81\n      jump\t// in\n    tag_201:\n        /* \"#utility.yul\":10301:10307   */\n      dup5\n        /* \"#utility.yul\":10294:10298   */\n      dup5\n        /* \"#utility.yul\":10288:10299   */\n      sload\n        /* \"#utility.yul\":10260:10351   */\n      tag_78\n      jump\t// in\n    tag_200:\n        /* \"#utility.yul\":10254:10258   */\n      dup3\n        /* \"#utility.yul\":10247:10352   */\n      sstore\n        /* \"#utility.yul\":10165:10358   */\n      pop\n        /* \"#utility.yul\":10089:10358   */\n      pop\n      pop\n      pop\n      jump\t// out\n        /* \"#utility.yul\":10364:10437   */\n    tag_83:\n        /* \"#utility.yul\":10409:10412   */\n      0x00\n        /* \"#utility.yul\":10364:10437   */\n      swap1\n      jump\t// out\n        /* \"#utility.yul\":10443:10632   */\n    tag_84:\n        /* \"#utility.yul\":10520:10552   */\n      tag_204\n      tag_83\n      jump\t// in\n    tag_204:\n        /* \"#utility.yul\":10561:10626   */\n      tag_205\n        /* \"#utility.yul\":10619:10625   */\n      dup2\n        /* \"#utility.yul\":10611:10617   */\n      dup5\n        /* \"#utility.yul\":10605:10609   */\n      dup5\n        /* \"#utility.yul\":10561:10626   */\n      tag_82\n      jump\t// in\n    tag_205:\n        /* \"#utility.yul\":10496:10632   */\n      pop\n        /* \"#utility.yul\":10443:10632   */\n      pop\n      pop\n      jump\t// out\n        /* \"#utility.yul\":10638:10824   */\n    tag_85:\n        /* \"#utility.yul\":10698:10818   */\n    tag_207:\n        /* \"#utility.yul\":10715:10718   */\n      dup2\n        /* \"#utility.yul\":10708:10713   */\n      dup2\n        /* \"#utility.yul\":10705:10719   */\n      lt\n        /* \"#utility.yul\":10698:10818   */\n      iszero\n      tag_209\n      jumpi\n        /* \"#utility.yul\":10769:10808   */\n      tag_210\n        /* \"#utility.yul\":10806:10807   */\n      0x00\n        /* \"#utility.yul\":10799:10804   */\n      dup3\n        /* \"#utility.yul\":10769:10808   */\n      tag_84\n      jump\t// in\n    tag_210:\n        /* \"#utility.yul\":10742:10743   */\n      0x01\n        /* \"#utility.yul\":10735:10740   */\n      dup2\n        /* \"#utility.yul\":10731:10744   */\n      add\n        /* \"#utility.yul\":10722:10744   */\n      swap1\n      pop\n        /* \"#utility.yul\":10698:10818   */\n      jump(tag_207)\n    tag_209:\n        /* \"#utility.yul\":10638:10824   */\n      pop\n      pop\n      jump\t// out\n        /* \"#utility.yul\":10830:11373   */\n    tag_86:\n        /* \"#utility.yul\":10931:10933   */\n      0x1f\n        /* \"#utility.yul\":10926:10929   */\n      dup3\n        /* \"#utility.yul\":10923:10934   */\n      gt\n        /* \"#utility.yul\":10920:11366   */\n      iszero\n      tag_212\n      jumpi\n        /* \"#utility.yul\":10965:11003   */\n      tag_213\n        /* \"#utility.yul\":10997:11002   */\n      dup2\n        /* \"#utility.yul\":10965:11003   */\n      tag_75\n      jump\t// in\n    tag_213:\n        /* \"#utility.yul\":11049:11078   */\n      tag_214\n        /* \"#utility.yul\":11067:11077   */\n      dup5\n        /* \"#utility.yul\":11049:11078   */\n      tag_76\n      jump\t// in\n    tag_214:\n        /* \"#utility.yul\":11039:11047   */\n      dup2\n        /* \"#utility.yul\":11035:11079   */\n      add\n        /* \"#utility.yul\":11232:11234   */\n      0x20\n        /* \"#utility.yul\":11220:11230   */\n      dup6\n        /* \"#utility.yul\":11217:11235   */\n      lt\n        /* \"#utility.yul\":11214:11263   */\n      iszero\n      tag_215\n      jumpi\n        /* \"#utility.yul\":11253:11261   */\n      dup2\n        /* \"#utility.yul\":11238:11261   */\n      swap1\n      pop\n        /* \"#utility.yul\":11214:11263   */\n    tag_215:\n        /* \"#utility.yul\":11276:11356   */\n      tag_216\n        /* \"#utility.yul\":11332:11354   */\n      tag_217\n        /* \"#utility.yul\":11350:11353   */\n      dup6\n        /* \"#utility.yul\":11332:11354   */\n      tag_76\n      jump\t// in\n    tag_217:\n        /* \"#utility.yul\":11322:11330   */\n      dup4\n        /* \"#utility.yul\":11318:11355   */\n      add\n        /* \"#utility.yul\":11305:11316   */\n      dup3\n        /* \"#utility.yul\":11276:11356   */\n      tag_85\n      jump\t// in\n    tag_216:\n        /* \"#utility.yul\":10935:11366   */\n      pop\n      pop\n        /* \"#utility.yul\":10920:11366   */\n    tag_212:\n        /* \"#utility.yul\":10830:11373   */\n      pop\n      pop\n      pop\n      jump\t// out\n        /* \"#utility.yul\":11379:11496   */\n    tag_87:\n        /* \"#utility.yul\":11433:11441   */\n      0x00\n        /* \"#utility.yul\":11483:11488   */\n      dup3\n        /* \"#utility.yul\":11477:11481   */\n      dup3\n        /* \"#utility.yul\":11473:11489   */\n      shr\n        /* \"#utility.yul\":11452:11489   */\n      swap1\n      pop\n        /* \"#utility.yul\":11379:11496   */\n      swap3\n      swap2\n      pop\n      pop\n      jump\t// out\n        /* \"#utility.yul\":11502:11671   */\n    tag_88:\n        /* \"#utility.yul\":11546:11552   */\n      0x00\n        /* \"#utility.yul\":11579:11630   */\n      tag_220\n        /* \"#utility.yul\":11627:11628   */\n      0x00\n        /* \"#utility.yul\":11623:11629   */\n      not\n        /* \"#utility.yul\":11615:11620   */\n      dup5\n        /* \"#utility.yul\":11612:11613   */\n      0x08\n        /* \"#utility.yul\":11608:11621   */\n      mul\n        /* \"#utility.yul\":11579:11630   */\n      tag_87\n      jump\t// in\n    tag_220:\n        /* \"#utility.yul\":11575:11631   */\n      not\n        /* \"#utility.yul\":11660:11664   */\n      dup1\n        /* \"#utility.yul\":11654:11658   */\n      dup4\n        /* \"#utility.yul\":11650:11665   */\n      and\n        /* \"#utility.yul\":11640:11665   */\n      swap2\n      pop\n        /* \"#utility.yul\":11553:11671   */\n      pop\n        /* \"#utility.yul\":11502:11671   */\n      swap3\n      swap2\n      pop\n      pop\n      jump\t// out\n        /* \"#utility.yul\":11676:11971   */\n    tag_89:\n        /* \"#utility.yul\":11752:11756   */\n      0x00\n        /* \"#utility.yul\":11898:11927   */\n      tag_222\n        /* \"#utility.yul\":11923:11926   */\n      dup4\n        /* \"#utility.yul\":11917:11921   */\n      dup4\n        /* \"#utility.yul\":11898:11927   */\n      tag_88\n      jump\t// in\n    tag_222:\n        /* \"#utility.yul\":11890:11927   */\n      swap2\n      pop\n        /* \"#utility.yul\":11960:11963   */\n      dup3\n        /* \"#utility.yul\":11957:11958   */\n      0x02\n        /* \"#utility.yul\":11953:11964   */\n      mul\n        /* \"#utility.yul\":11947:11951   */\n      dup3\n        /* \"#utility.yul\":11944:11965   */\n      or\n        /* \"#utility.yul\":11936:11965   */\n      swap1\n      pop\n        /* \"#utility.yul\":11676:11971   */\n      swap3\n      swap2\n      pop\n      pop\n      jump\t// out\n        /* \"#utility.yul\":11976:13371   */\n    tag_45:\n        /* \"#utility.yul\":12093:12130   */\n      tag_224\n        /* \"#utility.yul\":12126:12129   */\n      dup3\n        /* \"#utility.yul\":12093:12130   */\n      tag_58\n      jump\t// in\n    tag_224:\n        /* \"#utility.yul\":12195:12213   */\n      0xffffffffffffffff\n        /* \"#utility.yul\":12187:12193   */\n      dup2\n        /* \"#utility.yul\":12184:12214   */\n      gt\n        /* \"#utility.yul\":12181:12237   */\n      iszero\n      tag_225\n      jumpi\n        /* \"#utility.yul\":12217:12235   */\n      tag_226\n      tag_65\n      jump\t// in\n    tag_226:\n        /* \"#utility.yul\":12181:12237   */\n    tag_225:\n        /* \"#utility.yul\":12261:12299   */\n      tag_227\n        /* \"#utility.yul\":12293:12297   */\n      dup3\n        /* \"#utility.yul\":12287:12298   */\n      sload\n        /* \"#utility.yul\":12261:12299   */\n      tag_32\n      jump\t// in\n    tag_227:\n        /* \"#utility.yul\":12346:12413   */\n      tag_228\n        /* \"#utility.yul\":12406:12412   */\n      dup3\n        /* \"#utility.yul\":12398:12404   */\n      dup3\n        /* \"#utility.yul\":12392:12396   */\n      dup6\n        /* \"#utility.yul\":12346:12413   */\n      tag_86\n      jump\t// in\n    tag_228:\n        /* \"#utility.yul\":12440:12441   */\n      0x00\n        /* \"#utility.yul\":12464:12468   */\n      0x20\n        /* \"#utility.yul\":12451:12468   */\n      swap1\n      pop\n        /* \"#utility.yul\":12496:12498   */\n      0x1f\n        /* \"#utility.yul\":12488:12494   */\n      dup4\n        /* \"#utility.yul\":12485:12499   */\n      gt\n        /* \"#utility.yul\":12513:12514   */\n      0x01\n        /* \"#utility.yul\":12508:13126   */\n      dup2\n      eq\n      tag_230\n      jumpi\n        /* \"#utility.yul\":13170:13171   */\n      0x00\n        /* \"#utility.yul\":13187:13193   */\n      dup5\n        /* \"#utility.yul\":13184:13261   */\n      iszero\n      tag_231\n      jumpi\n        /* \"#utility.yul\":13236:13245   */\n      dup3\n        /* \"#utility.yul\":13231:13234   */\n      dup8\n        /* \"#utility.yul\":13227:13246   */\n      add\n        /* \"#utility.yul\":13221:13247   */\n      mload\n        /* \"#utility.yul\":13212:13247   */\n      swap1\n      pop\n        /* \"#utility.yul\":13184:13261   */\n    tag_231:\n        /* \"#utility.yul\":13287:13354   */\n      tag_232\n        /* \"#utility.yul\":13347:13353   */\n      dup6\n        /* \"#utility.yul\":13340:13345   */\n      dup3\n        /* \"#utility.yul\":13287:13354   */\n      tag_89\n      jump\t// in\n    tag_232:\n        /* \"#utility.yul\":13281:13285   */\n      dup7\n        /* \"#utility.yul\":13274:13355   */\n      sstore\n        /* \"#utility.yul\":13143:13365   */\n      pop\n        /* \"#utility.yul\":12478:13365   */\n      jump(tag_229)\n        /* \"#utility.yul\":12508:13126   */\n    tag_230:\n        /* \"#utility.yul\":12560:12564   */\n      0x1f\n        /* \"#utility.yul\":12556:12565   */\n      not\n        /* \"#utility.yul\":12548:12554   */\n      dup5\n        /* \"#utility.yul\":12544:12566   */\n      and\n        /* \"#utility.yul\":12594:12631   */\n      tag_233\n        /* \"#utility.yul\":12626:12630   */\n      dup7\n        /* \"#utility.yul\":12594:12631   */\n      tag_75\n      jump\t// in\n    tag_233:\n        /* \"#utility.yul\":12653:12654   */\n      0x00\n        /* \"#utility.yul\":12667:12875   */\n    tag_234:\n        /* \"#utility.yul\":12681:12688   */\n      dup3\n        /* \"#utility.yul\":12678:12679   */\n      dup2\n        /* \"#utility.yul\":12675:12689   */\n      lt\n        /* \"#utility.yul\":12667:12875   */\n      iszero\n      tag_236\n      jumpi\n        /* \"#utility.yul\":12760:12769   */\n      dup5\n        /* \"#utility.yul\":12755:12758   */\n      dup10\n        /* \"#utility.yul\":12751:12770   */\n      add\n        /* \"#utility.yul\":12745:12771   */\n      mload\n        /* \"#utility.yul\":12737:12743   */\n      dup3\n        /* \"#utility.yul\":12730:12772   */\n      sstore\n        /* \"#utility.yul\":12811:12812   */\n      0x01\n        /* \"#utility.yul\":12803:12809   */\n      dup3\n        /* \"#utility.yul\":12799:12813   */\n      add\n        /* \"#utility.yul\":12789:12813   */\n      swap2\n      pop\n        /* \"#utility.yul\":12858:12860   */\n      0x20\n        /* \"#utility.yul\":12847:12856   */\n      dup6\n        /* \"#utility.yul\":12843:12861   */\n      add\n        /* \"#utility.yul\":12830:12861   */\n      swap5\n      pop\n        /* \"#utility.yul\":12704:12708   */\n      0x20\n        /* \"#utility.yul\":12701:12702   */\n      dup2\n        /* \"#utility.yul\":12697:12709   */\n      add\n        /* \"#utility.yul\":12692:12709   */\n      swap1\n      pop\n        /* \"#utility.yul\":12667:12875   */\n      jump(tag_234)\n    tag_236:\n        /* \"#utility.yul\":12903:12909   */\n      dup7\n        /* \"#utility.yul\":12894:12901   */\n      dup4\n        /* \"#utility.yul\":12891:12910   */\n      lt\n        /* \"#utility.yul\":12888:13067   */\n      iszero\n      tag_237\n      jumpi\n        /* \"#utility.yul\":12961:12970   */\n      dup5\n        /* \"#utility.yul\":12956:12959   */\n      dup10\n        /* \"#utility.yul\":12952:12971   */\n      add\n        /* \"#utility.yul\":12946:12972   */\n      mload\n        /* \"#utility.yul\":13004:13052   */\n      tag_238\n        /* \"#utility.yul\":13046:13050   */\n      0x1f\n        /* \"#utility.yul\":13038:13044   */\n      dup10\n        /* \"#utility.yul\":13034:13051   */\n      and\n        /* \"#utility.yul\":13023:13032   */\n      dup3\n        /* \"#utility.yul\":13004:13052   */\n      tag_88\n      jump\t// in\n    tag_238:\n        /* \"#utility.yul\":12996:13002   */\n      dup4\n        /* \"#utility.yul\":12989:13053   */\n      sstore\n        /* \"#utility.yul\":12911:13067   */\n      pop\n        /* \"#utility.yul\":12888:13067   */\n    tag_237:\n        /* \"#utility.yul\":13113:13114   */\n      0x01\n        /* \"#utility.yul\":13109:13110   */\n      0x02\n        /* \"#utility.yul\":13101:13107   */\n      dup9\n        /* \"#utility.yul\":13097:13111   */\n      mul\n        /* \"#utility.yul\":13093:13115   */\n      add\n        /* \"#utility.yul\":13087:13091   */\n      dup9\n        /* \"#utility.yul\":13080:13116   */\n      sstore\n        /* \"#utility.yul\":12515:13126   */\n      pop\n      pop\n      pop\n        /* \"#utility.yul\":12478:13365   */\n    tag_229:\n      pop\n        /* \"#utility.yul\":12068:13371   */\n      pop\n      pop\n      pop\n        /* \"#utility.yul\":11976:13371   */\n      pop\n      pop\n      jump\t// out\n\n    auxdata: 0xa2646970667358221220d2b4fbc532fce96776c7e91b1aef8952bc0f1aa3f487c82e8707d56e575c345864736f6c63430008110033\n}\n",
				"bytecode": {
					"linkReferences": {},
					"object": "608060405234801561001057600080fd5b50610bdf806100206000396000f3fe608060405234801561001057600080fd5b50600436106100415760003560e01c80631733e99914610046578063594b1bfd146100765780636fc36b38146100a9575b600080fd5b610060600480360381019061005b91906104ac565b6100c5565b60405161006d91906104f2565b60405180910390f35b610090600480360381019061008b9190610539565b610110565b6040516100a09493929190610609565b60405180910390f35b6100c360048036038101906100be9190610791565b610364565b005b60008060008373ffffffffffffffffffffffffffffffffffffffff1673ffffffffffffffffffffffffffffffffffffffff168152602001908152602001600020805490509050919050565b6060806000806000808773ffffffffffffffffffffffffffffffffffffffff1673ffffffffffffffffffffffffffffffffffffffff168152602001908152602001600020805490508510610199576040517f08c379a00000000000000000000000000000000000000000000000000000000081526004016101909061087c565b60405180910390fd5b60008060008873ffffffffffffffffffffffffffffffffffffffff1673ffffffffffffffffffffffffffffffffffffffff16815260200190815260200160002086815481106101eb576101ea61089c565b5b9060005260206000209060040201604051806080016040529081600082018054610214906108fa565b80601f0160208091040260200160405190810160405280929190818152602001828054610240906108fa565b801561028d5780601f106102625761010080835404028352916020019161028d565b820191906000526020600020905b81548152906001019060200180831161027057829003601f168201915b505050505081526020016001820180546102a6906108fa565b80601f01602080910402602001604051908101604052809291908181526020018280546102d2906108fa565b801561031f5780601f106102f45761010080835404028352916020019161031f565b820191906000526020600020905b81548152906001019060200180831161030257829003601f168201915b50505050508152602001600282015481526020016003820154815250509050806000015181602001518260400151836060015194509450945094505092959194509250565b600060405180608001604052808681526020018581526020018481526020018381525090506000803373ffffffffffffffffffffffffffffffffffffffff1673ffffffffffffffffffffffffffffffffffffffff16815260200190815260200160002081908060018154018082558091505060019003906000526020600020906004020160009091909190915060008201518160000190816104069190610ad7565b50602082015181600101908161041c9190610ad7565b50604082015181600201556060820151816003015550505050505050565b6000604051905090565b600080fd5b600080fd5b600073ffffffffffffffffffffffffffffffffffffffff82169050919050565b60006104798261044e565b9050919050565b6104898161046e565b811461049457600080fd5b50565b6000813590506104a681610480565b92915050565b6000602082840312156104c2576104c1610444565b5b60006104d084828501610497565b91505092915050565b6000819050919050565b6104ec816104d9565b82525050565b600060208201905061050760008301846104e3565b92915050565b610516816104d9565b811461052157600080fd5b50565b6000813590506105338161050d565b92915050565b600080604083850312156105505761054f610444565b5b600061055e85828601610497565b925050602061056f85828601610524565b9150509250929050565b600081519050919050565b600082825260208201905092915050565b60005b838110156105b3578082015181840152602081019050610598565b60008484015250505050565b6000601f19601f8301169050919050565b60006105db82610579565b6105e58185610584565b93506105f5818560208601610595565b6105fe816105bf565b840191505092915050565b6000608082019050818103600083015261062381876105d0565b9050818103602083015261063781866105d0565b905061064660408301856104e3565b61065360608301846104e3565b95945050505050565b600080fd5b600080fd5b7f4e487b7100000000000000000000000000000000000000000000000000000000600052604160045260246000fd5b61069e826105bf565b810181811067ffffffffffffffff821117156106bd576106bc610666565b5b80604052505050565b60006106d061043a565b90506106dc8282610695565b919050565b600067ffffffffffffffff8211156106fc576106fb610666565b5b610705826105bf565b9050602081019050919050565b82818337600083830152505050565b600061073461072f846106e1565b6106c6565b9050828152602081018484840111156107505761074f610661565b5b61075b848285610712565b509392505050565b600082601f8301126107785761077761065c565b5b8135610788848260208601610721565b91505092915050565b600080600080608085870312156107ab576107aa610444565b5b600085013567ffffffffffffffff8111156107c9576107c8610449565b5b6107d587828801610763565b945050602085013567ffffffffffffffff8111156107f6576107f5610449565b5b61080287828801610763565b935050604061081387828801610524565b925050606061082487828801610524565b91505092959194509250565b7f496e76616c6964206974656d2049440000000000000000000000000000000000600082015250565b6000610866600f83610584565b915061087182610830565b602082019050919050565b6000602082019050818103600083015261089581610859565b9050919050565b7f4e487b7100000000000000000000000000000000000000000000000000000000600052603260045260246000fd5b7f4e487b7100000000000000000000000000000000000000000000000000000000600052602260045260246000fd5b6000600282049050600182168061091257607f821691505b602082108103610925576109246108cb565b5b50919050565b60008190508160005260206000209050919050565b60006020601f8301049050919050565b600082821b905092915050565b60006008830261098d7fffffffffffffffffffffffffffffffffffffffffffffffffffffffffffffffff82610950565b6109978683610950565b95508019841693508086168417925050509392505050565b6000819050919050565b60006109d46109cf6109ca846104d9565b6109af565b6104d9565b9050919050565b6000819050919050565b6109ee836109b9565b610a026109fa826109db565b84845461095d565b825550505050565b600090565b610a17610a0a565b610a228184846109e5565b505050565b5b81811015610a4657610a3b600082610a0f565b600181019050610a28565b5050565b601f821115610a8b57610a5c8161092b565b610a6584610940565b81016020851015610a74578190505b610a88610a8085610940565b830182610a27565b50505b505050565b600082821c905092915050565b6000610aae60001984600802610a90565b1980831691505092915050565b6000610ac78383610a9d565b9150826002028217905092915050565b610ae082610579565b67ffffffffffffffff811115610af957610af8610666565b5b610b0382546108fa565b610b0e828285610a4a565b600060209050601f831160018114610b415760008415610b2f578287015190505b610b398582610abb565b865550610ba1565b601f198416610b4f8661092b565b60005b82811015610b7757848901518255600182019150602085019450602081019050610b52565b86831015610b945784890151610b90601f891682610a9d565b8355505b6001600288020188555050505b50505050505056fea2646970667358221220d2b4fbc532fce96776c7e91b1aef8952bc0f1aa3f487c82e8707d56e575c345864736f6c63430008110033",
					"opcodes": "PUSH1 0x80 PUSH1 0x40 MSTORE CALLVALUE DUP1 ISZERO PUSH2 0x10 JUMPI PUSH1 0x0 DUP1 REVERT JUMPDEST POP PUSH2 0xBDF DUP1 PUSH2 0x20 PUSH1 0x0 CODECOPY PUSH1 0x0 RETURN INVALID PUSH1 0x80 PUSH1 0x40 MSTORE CALLVALUE DUP1 ISZERO PUSH2 0x10 JUMPI PUSH1 0x0 DUP1 REVERT JUMPDEST POP PUSH1 0x4 CALLDATASIZE LT PUSH2 0x41 JUMPI PUSH1 0x0 CALLDATALOAD PUSH1 0xE0 SHR DUP1 PUSH4 0x1733E999 EQ PUSH2 0x46 JUMPI DUP1 PUSH4 0x594B1BFD EQ PUSH2 0x76 JUMPI DUP1 PUSH4 0x6FC36B38 EQ PUSH2 0xA9 JUMPI JUMPDEST PUSH1 0x0 DUP1 REVERT JUMPDEST PUSH2 0x60 PUSH1 0x4 DUP1 CALLDATASIZE SUB DUP2 ADD SWAP1 PUSH2 0x5B SWAP2 SWAP1 PUSH2 0x4AC JUMP JUMPDEST PUSH2 0xC5 JUMP JUMPDEST PUSH1 0x40 MLOAD PUSH2 0x6D SWAP2 SWAP1 PUSH2 0x4F2 JUMP JUMPDEST PUSH1 0x40 MLOAD DUP1 SWAP2 SUB SWAP1 RETURN JUMPDEST PUSH2 0x90 PUSH1 0x4 DUP1 CALLDATASIZE SUB DUP2 ADD SWAP1 PUSH2 0x8B SWAP2 SWAP1 PUSH2 0x539 JUMP JUMPDEST PUSH2 0x110 JUMP JUMPDEST PUSH1 0x40 MLOAD PUSH2 0xA0 SWAP5 SWAP4 SWAP3 SWAP2 SWAP1 PUSH2 0x609 JUMP JUMPDEST PUSH1 0x40 MLOAD DUP1 SWAP2 SUB SWAP1 RETURN JUMPDEST PUSH2 0xC3 PUSH1 0x4 DUP1 CALLDATASIZE SUB DUP2 ADD SWAP1 PUSH2 0xBE SWAP2 SWAP1 PUSH2 0x791 JUMP JUMPDEST PUSH2 0x364 JUMP JUMPDEST STOP JUMPDEST PUSH1 0x0 DUP1 PUSH1 0x0 DUP4 PUSH20 0xFFFFFFFFFFFFFFFFFFFFFFFFFFFFFFFFFFFFFFFF AND PUSH20 0xFFFFFFFFFFFFFFFFFFFFFFFFFFFFFFFFFFFFFFFF AND DUP2 MSTORE PUSH1 0x20 ADD SWAP1 DUP2 MSTORE PUSH1 0x20 ADD PUSH1 0x0 KECCAK256 DUP1 SLOAD SWAP1 POP SWAP1 POP SWAP2 SWAP1 POP JUMP JUMPDEST PUSH1 0x60 DUP1 PUSH1 0x0 DUP1 PUSH1 0x0 DUP1 DUP8 PUSH20 0xFFFFFFFFFFFFFFFFFFFFFFFFFFFFFFFFFFFFFFFF AND PUSH20 0xFFFFFFFFFFFFFFFFFFFFFFFFFFFFFFFFFFFFFFFF AND DUP2 MSTORE PUSH1 0x20 ADD SWAP1 DUP2 MSTORE PUSH1 0x20 ADD PUSH1 0x0 KECCAK256 DUP1 SLOAD SWAP1 POP DUP6 LT PUSH2 0x199 JUMPI PUSH1 0x40 MLOAD PUSH32 0x8C379A000000000000000000000000000000000000000000000000000000000 DUP2 MSTORE PUSH1 0x4 ADD PUSH2 0x190 SWAP1 PUSH2 0x87C JUMP JUMPDEST PUSH1 0x40 MLOAD DUP1 SWAP2 SUB SWAP1 REVERT JUMPDEST PUSH1 0x0 DUP1 PUSH1 0x0 DUP9 PUSH20 0xFFFFFFFFFFFFFFFFFFFFFFFFFFFFFFFFFFFFFFFF AND PUSH20 0xFFFFFFFFFFFFFFFFFFFFFFFFFFFFFFFFFFFFFFFF AND DUP2 MSTORE PUSH1 0x20 ADD SWAP1 DUP2 MSTORE PUSH1 0x20 ADD PUSH1 0x0 KECCAK256 DUP7 DUP2 SLOAD DUP2 LT PUSH2 0x1EB JUMPI PUSH2 0x1EA PUSH2 0x89C JUMP JUMPDEST JUMPDEST SWAP1 PUSH1 0x0 MSTORE PUSH1 0x20 PUSH1 0x0 KECCAK256 SWAP1 PUSH1 0x4 MUL ADD PUSH1 0x40 MLOAD DUP1 PUSH1 0x80 ADD PUSH1 0x40 MSTORE SWAP1 DUP2 PUSH1 0x0 DUP3 ADD DUP1 SLOAD PUSH2 0x214 SWAP1 PUSH2 0x8FA JUMP JUMPDEST DUP1 PUSH1 0x1F ADD PUSH1 0x20 DUP1 SWAP2 DIV MUL PUSH1 0x20 ADD PUSH1 0x40 MLOAD SWAP1 DUP2 ADD PUSH1 0x40 MSTORE DUP1 SWAP3 SWAP2 SWAP1 DUP2 DUP2 MSTORE PUSH1 0x20 ADD DUP3 DUP1 SLOAD PUSH2 0x240 SWAP1 PUSH2 0x8FA JUMP JUMPDEST DUP1 ISZERO PUSH2 0x28D JUMPI DUP1 PUSH1 0x1F LT PUSH2 0x262 JUMPI PUSH2 0x100 DUP1 DUP4 SLOAD DIV MUL DUP4 MSTORE SWAP2 PUSH1 0x20 ADD SWAP2 PUSH2 0x28D JUMP JUMPDEST DUP3 ADD SWAP2 SWAP1 PUSH1 0x0 MSTORE PUSH1 0x20 PUSH1 0x0 KECCAK256 SWAP1 JUMPDEST DUP2 SLOAD DUP2 MSTORE SWAP1 PUSH1 0x1 ADD SWAP1 PUSH1 0x20 ADD DUP1 DUP4 GT PUSH2 0x270 JUMPI DUP3 SWAP1 SUB PUSH1 0x1F AND DUP3 ADD SWAP2 JUMPDEST POP POP POP POP POP DUP2 MSTORE PUSH1 0x20 ADD PUSH1 0x1 DUP3 ADD DUP1 SLOAD PUSH2 0x2A6 SWAP1 PUSH2 0x8FA JUMP JUMPDEST DUP1 PUSH1 0x1F ADD PUSH1 0x20 DUP1 SWAP2 DIV MUL PUSH1 0x20 ADD PUSH1 0x40 MLOAD SWAP1 DUP2 ADD PUSH1 0x40 MSTORE DUP1 SWAP3 SWAP2 SWAP1 DUP2 DUP2 MSTORE PUSH1 0x20 ADD DUP3 DUP1 SLOAD PUSH2 0x2D2 SWAP1 PUSH2 0x8FA JUMP JUMPDEST DUP1 ISZERO PUSH2 0x31F JUMPI DUP1 PUSH1 0x1F LT PUSH2 0x2F4 JUMPI PUSH2 0x100 DUP1 DUP4 SLOAD DIV MUL DUP4 MSTORE SWAP2 PUSH1 0x20 ADD SWAP2 PUSH2 0x31F JUMP JUMPDEST DUP3 ADD SWAP2 SWAP1 PUSH1 0x0 MSTORE PUSH1 0x20 PUSH1 0x0 KECCAK256 SWAP1 JUMPDEST DUP2 SLOAD DUP2 MSTORE SWAP1 PUSH1 0x1 ADD SWAP1 PUSH1 0x20 ADD DUP1 DUP4 GT PUSH2 0x302 JUMPI DUP3 SWAP1 SUB PUSH1 0x1F AND DUP3 ADD SWAP2 JUMPDEST POP POP POP POP POP DUP2 MSTORE PUSH1 0x20 ADD PUSH1 0x2 DUP3 ADD SLOAD DUP2 MSTORE PUSH1 0x20 ADD PUSH1 0x3 DUP3 ADD SLOAD DUP2 MSTORE POP POP SWAP1 POP DUP1 PUSH1 0x0 ADD MLOAD DUP2 PUSH1 0x20 ADD MLOAD DUP3 PUSH1 0x40 ADD MLOAD DUP4 PUSH1 0x60 ADD MLOAD SWAP5 POP SWAP5 POP SWAP5 POP SWAP5 POP POP SWAP3 SWAP6 SWAP2 SWAP5 POP SWAP3 POP JUMP JUMPDEST PUSH1 0x0 PUSH1 0x40 MLOAD DUP1 PUSH1 0x80 ADD PUSH1 0x40 MSTORE DUP1 DUP7 DUP2 MSTORE PUSH1 0x20 ADD DUP6 DUP2 MSTORE PUSH1 0x20 ADD DUP5 DUP2 MSTORE PUSH1 0x20 ADD DUP4 DUP2 MSTORE POP SWAP1 POP PUSH1 0x0 DUP1 CALLER PUSH20 0xFFFFFFFFFFFFFFFFFFFFFFFFFFFFFFFFFFFFFFFF AND PUSH20 0xFFFFFFFFFFFFFFFFFFFFFFFFFFFFFFFFFFFFFFFF AND DUP2 MSTORE PUSH1 0x20 ADD SWAP1 DUP2 MSTORE PUSH1 0x20 ADD PUSH1 0x0 KECCAK256 DUP2 SWAP1 DUP1 PUSH1 0x1 DUP2 SLOAD ADD DUP1 DUP3 SSTORE DUP1 SWAP2 POP POP PUSH1 0x1 SWAP1 SUB SWAP1 PUSH1 0x0 MSTORE PUSH1 0x20 PUSH1 0x0 KECCAK256 SWAP1 PUSH1 0x4 MUL ADD PUSH1 0x0 SWAP1 SWAP2 SWAP1 SWAP2 SWAP1 SWAP2 POP PUSH1 0x0 DUP3 ADD MLOAD DUP2 PUSH1 0x0 ADD SWAP1 DUP2 PUSH2 0x406 SWAP2 SWAP1 PUSH2 0xAD7 JUMP JUMPDEST POP PUSH1 0x20 DUP3 ADD MLOAD DUP2 PUSH1 0x1 ADD SWAP1 DUP2 PUSH2 0x41C SWAP2 SWAP1 PUSH2 0xAD7 JUMP JUMPDEST POP PUSH1 0x40 DUP3 ADD MLOAD DUP2 PUSH1 0x2 ADD SSTORE PUSH1 0x60 DUP3 ADD MLOAD DUP2 PUSH1 0x3 ADD SSTORE POP POP POP POP POP POP POP JUMP JUMPDEST PUSH1 0x0 PUSH1 0x40 MLOAD SWAP1 POP SWAP1 JUMP JUMPDEST PUSH1 0x0 DUP1 REVERT JUMPDEST PUSH1 0x0 DUP1 REVERT JUMPDEST PUSH1 0x0 PUSH20 0xFFFFFFFFFFFFFFFFFFFFFFFFFFFFFFFFFFFFFFFF DUP3 AND SWAP1 POP SWAP2 SWAP1 POP JUMP JUMPDEST PUSH1 0x0 PUSH2 0x479 DUP3 PUSH2 0x44E JUMP JUMPDEST SWAP1 POP SWAP2 SWAP1 POP JUMP JUMPDEST PUSH2 0x489 DUP2 PUSH2 0x46E JUMP JUMPDEST DUP2 EQ PUSH2 0x494 JUMPI PUSH1 0x0 DUP1 REVERT JUMPDEST POP JUMP JUMPDEST PUSH1 0x0 DUP2 CALLDATALOAD SWAP1 POP PUSH2 0x4A6 DUP2 PUSH2 0x480 JUMP JUMPDEST SWAP3 SWAP2 POP POP JUMP JUMPDEST PUSH1 0x0 PUSH1 0x20 DUP3 DUP5 SUB SLT ISZERO PUSH2 0x4C2 JUMPI PUSH2 0x4C1 PUSH2 0x444 JUMP JUMPDEST JUMPDEST PUSH1 0x0 PUSH2 0x4D0 DUP5 DUP3 DUP6 ADD PUSH2 0x497 JUMP JUMPDEST SWAP2 POP POP SWAP3 SWAP2 POP POP JUMP JUMPDEST PUSH1 0x0 DUP2 SWAP1 POP SWAP2 SWAP1 POP JUMP JUMPDEST PUSH2 0x4EC DUP2 PUSH2 0x4D9 JUMP JUMPDEST DUP3 MSTORE POP POP JUMP JUMPDEST PUSH1 0x0 PUSH1 0x20 DUP3 ADD SWAP1 POP PUSH2 0x507 PUSH1 0x0 DUP4 ADD DUP5 PUSH2 0x4E3 JUMP JUMPDEST SWAP3 SWAP2 POP POP JUMP JUMPDEST PUSH2 0x516 DUP2 PUSH2 0x4D9 JUMP JUMPDEST DUP2 EQ PUSH2 0x521 JUMPI PUSH1 0x0 DUP1 REVERT JUMPDEST POP JUMP JUMPDEST PUSH1 0x0 DUP2 CALLDATALOAD SWAP1 POP PUSH2 0x533 DUP2 PUSH2 0x50D JUMP JUMPDEST SWAP3 SWAP2 POP POP JUMP JUMPDEST PUSH1 0x0 DUP1 PUSH1 0x40 DUP4 DUP6 SUB SLT ISZERO PUSH2 0x550 JUMPI PUSH2 0x54F PUSH2 0x444 JUMP JUMPDEST JUMPDEST PUSH1 0x0 PUSH2 0x55E DUP6 DUP3 DUP7 ADD PUSH2 0x497 JUMP JUMPDEST SWAP3 POP POP PUSH1 0x20 PUSH2 0x56F DUP6 DUP3 DUP7 ADD PUSH2 0x524 JUMP JUMPDEST SWAP2 POP POP SWAP3 POP SWAP3 SWAP1 POP JUMP JUMPDEST PUSH1 0x0 DUP2 MLOAD SWAP1 POP SWAP2 SWAP1 POP JUMP JUMPDEST PUSH1 0x0 DUP3 DUP3 MSTORE PUSH1 0x20 DUP3 ADD SWAP1 POP SWAP3 SWAP2 POP POP JUMP JUMPDEST PUSH1 0x0 JUMPDEST DUP4 DUP2 LT ISZERO PUSH2 0x5B3 JUMPI DUP1 DUP3 ADD MLOAD DUP2 DUP5 ADD MSTORE PUSH1 0x20 DUP2 ADD SWAP1 POP PUSH2 0x598 JUMP JUMPDEST PUSH1 0x0 DUP5 DUP5 ADD MSTORE POP POP POP POP JUMP JUMPDEST PUSH1 0x0 PUSH1 0x1F NOT PUSH1 0x1F DUP4 ADD AND SWAP1 POP SWAP2 SWAP1 POP JUMP JUMPDEST PUSH1 0x0 PUSH2 0x5DB DUP3 PUSH2 0x579 JUMP JUMPDEST PUSH2 0x5E5 DUP2 DUP6 PUSH2 0x584 JUMP JUMPDEST SWAP4 POP PUSH2 0x5F5 DUP2 DUP6 PUSH1 0x20 DUP7 ADD PUSH2 0x595 JUMP JUMPDEST PUSH2 0x5FE DUP2 PUSH2 0x5BF JUMP JUMPDEST DUP5 ADD SWAP2 POP POP SWAP3 SWAP2 POP POP JUMP JUMPDEST PUSH1 0x0 PUSH1 0x80 DUP3 ADD SWAP1 POP DUP2 DUP2 SUB PUSH1 0x0 DUP4 ADD MSTORE PUSH2 0x623 DUP2 DUP8 PUSH2 0x5D0 JUMP JUMPDEST SWAP1 POP DUP2 DUP2 SUB PUSH1 0x20 DUP4 ADD MSTORE PUSH2 0x637 DUP2 DUP7 PUSH2 0x5D0 JUMP JUMPDEST SWAP1 POP PUSH2 0x646 PUSH1 0x40 DUP4 ADD DUP6 PUSH2 0x4E3 JUMP JUMPDEST PUSH2 0x653 PUSH1 0x60 DUP4 ADD DUP5 PUSH2 0x4E3 JUMP JUMPDEST SWAP6 SWAP5 POP POP POP POP POP JUMP JUMPDEST PUSH1 0x0 DUP1 REVERT JUMPDEST PUSH1 0x0 DUP1 REVERT JUMPDEST PUSH32 0x4E487B7100000000000000000000000000000000000000000000000000000000 PUSH1 0x0 MSTORE PUSH1 0x41 PUSH1 0x4 MSTORE PUSH1 0x24 PUSH1 0x0 REVERT JUMPDEST PUSH2 0x69E DUP3 PUSH2 0x5BF JUMP JUMPDEST DUP2 ADD DUP2 DUP2 LT PUSH8 0xFFFFFFFFFFFFFFFF DUP3 GT OR ISZERO PUSH2 0x6BD JUMPI PUSH2 0x6BC PUSH2 0x666 JUMP JUMPDEST JUMPDEST DUP1 PUSH1 0x40 MSTORE POP POP POP JUMP JUMPDEST PUSH1 0x0 PUSH2 0x6D0 PUSH2 0x43A JUMP JUMPDEST SWAP1 POP PUSH2 0x6DC DUP3 DUP3 PUSH2 0x695 JUMP JUMPDEST SWAP2 SWAP1 POP JUMP JUMPDEST PUSH1 0x0 PUSH8 0xFFFFFFFFFFFFFFFF DUP3 GT ISZERO PUSH2 0x6FC JUMPI PUSH2 0x6FB PUSH2 0x666 JUMP JUMPDEST JUMPDEST PUSH2 0x705 DUP3 PUSH2 0x5BF JUMP JUMPDEST SWAP1 POP PUSH1 0x20 DUP2 ADD SWAP1 POP SWAP2 SWAP1 POP JUMP JUMPDEST DUP3 DUP2 DUP4 CALLDATACOPY PUSH1 0x0 DUP4 DUP4 ADD MSTORE POP POP POP JUMP JUMPDEST PUSH1 0x0 PUSH2 0x734 PUSH2 0x72F DUP5 PUSH2 0x6E1 JUMP JUMPDEST PUSH2 0x6C6 JUMP JUMPDEST SWAP1 POP DUP3 DUP2 MSTORE PUSH1 0x20 DUP2 ADD DUP5 DUP5 DUP5 ADD GT ISZERO PUSH2 0x750 JUMPI PUSH2 0x74F PUSH2 0x661 JUMP JUMPDEST JUMPDEST PUSH2 0x75B DUP5 DUP3 DUP6 PUSH2 0x712 JUMP JUMPDEST POP SWAP4 SWAP3 POP POP POP JUMP JUMPDEST PUSH1 0x0 DUP3 PUSH1 0x1F DUP4 ADD SLT PUSH2 0x778 JUMPI PUSH2 0x777 PUSH2 0x65C JUMP JUMPDEST JUMPDEST DUP2 CALLDATALOAD PUSH2 0x788 DUP5 DUP3 PUSH1 0x20 DUP7 ADD PUSH2 0x721 JUMP JUMPDEST SWAP2 POP POP SWAP3 SWAP2 POP POP JUMP JUMPDEST PUSH1 0x0 DUP1 PUSH1 0x0 DUP1 PUSH1 0x80 DUP6 DUP8 SUB SLT ISZERO PUSH2 0x7AB JUMPI PUSH2 0x7AA PUSH2 0x444 JUMP JUMPDEST JUMPDEST PUSH1 0x0 DUP6 ADD CALLDATALOAD PUSH8 0xFFFFFFFFFFFFFFFF DUP2 GT ISZERO PUSH2 0x7C9 JUMPI PUSH2 0x7C8 PUSH2 0x449 JUMP JUMPDEST JUMPDEST PUSH2 0x7D5 DUP8 DUP3 DUP9 ADD PUSH2 0x763 JUMP JUMPDEST SWAP5 POP POP PUSH1 0x20 DUP6 ADD CALLDATALOAD PUSH8 0xFFFFFFFFFFFFFFFF DUP2 GT ISZERO PUSH2 0x7F6 JUMPI PUSH2 0x7F5 PUSH2 0x449 JUMP JUMPDEST JUMPDEST PUSH2 0x802 DUP8 DUP3 DUP9 ADD PUSH2 0x763 JUMP JUMPDEST SWAP4 POP POP PUSH1 0x40 PUSH2 0x813 DUP8 DUP3 DUP9 ADD PUSH2 0x524 JUMP JUMPDEST SWAP3 POP POP PUSH1 0x60 PUSH2 0x824 DUP8 DUP3 DUP9 ADD PUSH2 0x524 JUMP JUMPDEST SWAP2 POP POP SWAP3 SWAP6 SWAP2 SWAP5 POP SWAP3 POP JUMP JUMPDEST PUSH32 0x496E76616C6964206974656D2049440000000000000000000000000000000000 PUSH1 0x0 DUP3 ADD MSTORE POP JUMP JUMPDEST PUSH1 0x0 PUSH2 0x866 PUSH1 0xF DUP4 PUSH2 0x584 JUMP JUMPDEST SWAP2 POP PUSH2 0x871 DUP3 PUSH2 0x830 JUMP JUMPDEST PUSH1 0x20 DUP3 ADD SWAP1 POP SWAP2 SWAP1 POP JUMP JUMPDEST PUSH1 0x0 PUSH1 0x20 DUP3 ADD SWAP1 POP DUP2 DUP2 SUB PUSH1 0x0 DUP4 ADD MSTORE PUSH2 0x895 DUP2 PUSH2 0x859 JUMP JUMPDEST SWAP1 POP SWAP2 SWAP1 POP JUMP JUMPDEST PUSH32 0x4E487B7100000000000000000000000000000000000000000000000000000000 PUSH1 0x0 MSTORE PUSH1 0x32 PUSH1 0x4 MSTORE PUSH1 0x24 PUSH1 0x0 REVERT JUMPDEST PUSH32 0x4E487B7100000000000000000000000000000000000000000000000000000000 PUSH1 0x0 MSTORE PUSH1 0x22 PUSH1 0x4 MSTORE PUSH1 0x24 PUSH1 0x0 REVERT JUMPDEST PUSH1 0x0 PUSH1 0x2 DUP3 DIV SWAP1 POP PUSH1 0x1 DUP3 AND DUP1 PUSH2 0x912 JUMPI PUSH1 0x7F DUP3 AND SWAP2 POP JUMPDEST PUSH1 0x20 DUP3 LT DUP2 SUB PUSH2 0x925 JUMPI PUSH2 0x924 PUSH2 0x8CB JUMP JUMPDEST JUMPDEST POP SWAP2 SWAP1 POP JUMP JUMPDEST PUSH1 0x0 DUP2 SWAP1 POP DUP2 PUSH1 0x0 MSTORE PUSH1 0x20 PUSH1 0x0 KECCAK256 SWAP1 POP SWAP2 SWAP1 POP JUMP JUMPDEST PUSH1 0x0 PUSH1 0x20 PUSH1 0x1F DUP4 ADD DIV SWAP1 POP SWAP2 SWAP1 POP JUMP JUMPDEST PUSH1 0x0 DUP3 DUP3 SHL SWAP1 POP SWAP3 SWAP2 POP POP JUMP JUMPDEST PUSH1 0x0 PUSH1 0x8 DUP4 MUL PUSH2 0x98D PUSH32 0xFFFFFFFFFFFFFFFFFFFFFFFFFFFFFFFFFFFFFFFFFFFFFFFFFFFFFFFFFFFFFFFF DUP3 PUSH2 0x950 JUMP JUMPDEST PUSH2 0x997 DUP7 DUP4 PUSH2 0x950 JUMP JUMPDEST SWAP6 POP DUP1 NOT DUP5 AND SWAP4 POP DUP1 DUP7 AND DUP5 OR SWAP3 POP POP POP SWAP4 SWAP3 POP POP POP JUMP JUMPDEST PUSH1 0x0 DUP2 SWAP1 POP SWAP2 SWAP1 POP JUMP JUMPDEST PUSH1 0x0 PUSH2 0x9D4 PUSH2 0x9CF PUSH2 0x9CA DUP5 PUSH2 0x4D9 JUMP JUMPDEST PUSH2 0x9AF JUMP JUMPDEST PUSH2 0x4D9 JUMP JUMPDEST SWAP1 POP SWAP2 SWAP1 POP JUMP JUMPDEST PUSH1 0x0 DUP2 SWAP1 POP SWAP2 SWAP1 POP JUMP JUMPDEST PUSH2 0x9EE DUP4 PUSH2 0x9B9 JUMP JUMPDEST PUSH2 0xA02 PUSH2 0x9FA DUP3 PUSH2 0x9DB JUMP JUMPDEST DUP5 DUP5 SLOAD PUSH2 0x95D JUMP JUMPDEST DUP3 SSTORE POP POP POP POP JUMP JUMPDEST PUSH1 0x0 SWAP1 JUMP JUMPDEST PUSH2 0xA17 PUSH2 0xA0A JUMP JUMPDEST PUSH2 0xA22 DUP2 DUP5 DUP5 PUSH2 0x9E5 JUMP JUMPDEST POP POP POP JUMP JUMPDEST JUMPDEST DUP2 DUP2 LT ISZERO PUSH2 0xA46 JUMPI PUSH2 0xA3B PUSH1 0x0 DUP3 PUSH2 0xA0F JUMP JUMPDEST PUSH1 0x1 DUP2 ADD SWAP1 POP PUSH2 0xA28 JUMP JUMPDEST POP POP JUMP JUMPDEST PUSH1 0x1F DUP3 GT ISZERO PUSH2 0xA8B JUMPI PUSH2 0xA5C DUP2 PUSH2 0x92B JUMP JUMPDEST PUSH2 0xA65 DUP5 PUSH2 0x940 JUMP JUMPDEST DUP2 ADD PUSH1 0x20 DUP6 LT ISZERO PUSH2 0xA74 JUMPI DUP2 SWAP1 POP JUMPDEST PUSH2 0xA88 PUSH2 0xA80 DUP6 PUSH2 0x940 JUMP JUMPDEST DUP4 ADD DUP3 PUSH2 0xA27 JUMP JUMPDEST POP POP JUMPDEST POP POP POP JUMP JUMPDEST PUSH1 0x0 DUP3 DUP3 SHR SWAP1 POP SWAP3 SWAP2 POP POP JUMP JUMPDEST PUSH1 0x0 PUSH2 0xAAE PUSH1 0x0 NOT DUP5 PUSH1 0x8 MUL PUSH2 0xA90 JUMP JUMPDEST NOT DUP1 DUP4 AND SWAP2 POP POP SWAP3 SWAP2 POP POP JUMP JUMPDEST PUSH1 0x0 PUSH2 0xAC7 DUP4 DUP4 PUSH2 0xA9D JUMP JUMPDEST SWAP2 POP DUP3 PUSH1 0x2 MUL DUP3 OR SWAP1 POP SWAP3 SWAP2 POP POP JUMP JUMPDEST PUSH2 0xAE0 DUP3 PUSH2 0x579 JUMP JUMPDEST PUSH8 0xFFFFFFFFFFFFFFFF DUP2 GT ISZERO PUSH2 0xAF9 JUMPI PUSH2 0xAF8 PUSH2 0x666 JUMP JUMPDEST JUMPDEST PUSH2 0xB03 DUP3 SLOAD PUSH2 0x8FA JUMP JUMPDEST PUSH2 0xB0E DUP3 DUP3 DUP6 PUSH2 0xA4A JUMP JUMPDEST PUSH1 0x0 PUSH1 0x20 SWAP1 POP PUSH1 0x1F DUP4 GT PUSH1 0x1 DUP2 EQ PUSH2 0xB41 JUMPI PUSH1 0x0 DUP5 ISZERO PUSH2 0xB2F JUMPI DUP3 DUP8 ADD MLOAD SWAP1 POP JUMPDEST PUSH2 0xB39 DUP6 DUP3 PUSH2 0xABB JUMP JUMPDEST DUP7 SSTORE POP PUSH2 0xBA1 JUMP JUMPDEST PUSH1 0x1F NOT DUP5 AND PUSH2 0xB4F DUP7 PUSH2 0x92B JUMP JUMPDEST PUSH1 0x0 JUMPDEST DUP3 DUP2 LT ISZERO PUSH2 0xB77 JUMPI DUP5 DUP10 ADD MLOAD DUP3 SSTORE PUSH1 0x1 DUP3 ADD SWAP2 POP PUSH1 0x20 DUP6 ADD SWAP5 POP PUSH1 0x20 DUP2 ADD SWAP1 POP PUSH2 0xB52 JUMP JUMPDEST DUP7 DUP4 LT ISZERO PUSH2 0xB94 JUMPI DUP5 DUP10 ADD MLOAD PUSH2 0xB90 PUSH1 0x1F DUP10 AND DUP3 PUSH2 0xA9D JUMP JUMPDEST DUP4 SSTORE POP JUMPDEST PUSH1 0x1 PUSH1 0x2 DUP9 MUL ADD DUP9 SSTORE POP POP POP JUMPDEST POP POP POP POP POP POP JUMP INVALID LOG2 PUSH5 0x6970667358 0x22 SLT KECCAK256 0xD2 0xB4 0xFB 0xC5 ORIGIN 0xFC 0xE9 PUSH8 0x76C7E91B1AEF8952 0xBC 0xF BYTE LOG3 DELEGATECALL DUP8 0xC8 0x2E DUP8 SMOD 0xD5 PUSH15 0x575C345864736F6C63430008110033 "
				},
				"gasEstimates": {
					"creation": {
						"codeDepositCost": "607800",
						"executionCost": "638",
						"totalCost": "608438"
					},
					"external": {
						"createItem(string,string,uint256,uint256)": "infinite",
						"getItemDetails(address,uint256)": "infinite",
						"getSellerItemCount(address)": "2827"
					}
				},
				"methodIdentifiers": {
					"createItem(string,string,uint256,uint256)": "6fc36b38",
					"getItemDetails(address,uint256)": "594b1bfd",
					"getSellerItemCount(address)": "1733e999"
				}
			},
			"storageLayout": {
				"storage": [
					{
						"astId": 16,
						"contract": "Hello world.sol:ItemListing",
						"label": "sellerItems",
						"offset": 0,
						"slot": "0",
						"type": "t_mapping(t_address,t_array(t_struct(Item)10_storage)dyn_storage)"
					}
				],
				"types": {
					"t_address": {
						"encoding": "inplace",
						"label": "address",
						"numberOfBytes": "20"
					},
					"t_array(t_struct(Item)10_storage)dyn_storage": {
						"base": "t_struct(Item)10_storage",
						"encoding": "dynamic_array",
						"label": "struct ItemListing.Item[]",
						"numberOfBytes": "32"
					},
					"t_mapping(t_address,t_array(t_struct(Item)10_storage)dyn_storage)": {
						"encoding": "mapping",
						"key": "t_address",
						"label": "mapping(address => struct ItemListing.Item[])",
						"numberOfBytes": "32",
						"value": "t_array(t_struct(Item)10_storage)dyn_storage"
					},
					"t_string_storage": {
						"encoding": "bytes",
						"label": "string",
						"numberOfBytes": "32"
					},
					"t_struct(Item)10_storage": {
						"encoding": "inplace",
						"label": "struct ItemListing.Item",
						"members": [
							{
								"astId": 3,
								"contract": "Hello world.sol:ItemListing",
								"label": "name",
								"offset": 0,
								"slot": "0",
								"type": "t_string_storage"
							},
							{
								"astId": 5,
								"contract": "Hello world.sol:ItemListing",
								"label": "description",
								"offset": 0,
								"slot": "1",
								"type": "t_string_storage"
							},
							{
								"astId": 7,
								"contract": "Hello world.sol:ItemListing",
								"label": "price",
								"offset": 0,
								"slot": "2",
								"type": "t_uint256"
							},
							{
								"astId": 9,
								"contract": "Hello world.sol:ItemListing",
								"label": "quantity",
								"offset": 0,
								"slot": "3",
								"type": "t_uint256"
							}
						],
						"numberOfBytes": "128"
					},
					"t_uint256": {
						"encoding": "inplace",
						"label": "uint256",
						"numberOfBytes": "32"
					}
				}
			},
			"userdoc": {
				"kind": "user",
				"methods": {},
				"version": 1
			}
		}
	}
}